{
	"data": {
		"bytecode": {
			"linkReferences": {},
			"object": "608060405234801562000010575f80fd5b5060405162003730380380620037308339810160408190526200003391620000ca565b60015f55806001600160a01b0381166200006657604051631e4fbdf760e01b81525f600482015260240160405180910390fd5b620000718162000079565b5050620000f9565b600180546001600160a01b038381166001600160a01b0319831681179093556040519116919082907f8be0079c531659141344cd1fd0a4f28419497f9722a3daafe3b4186f6b6457e0905f90a35050565b5f60208284031215620000db575f80fd5b81516001600160a01b0381168114620000f2575f80fd5b9392505050565b61362980620001075f395ff3fe6080604052600436106101d0575f3560e01c80638da5cb5b116100fd578063d03efb1911610092578063f2fde38b11610062578063f2fde38b146106b1578063f5de2a4f146106d0578063fae8a599146106ef578063fdd658f91461072d575f80fd5b8063d03efb191461061d578063d462c2fb1461063c578063df9e608f1461065b578063e7734d121461067a575f80fd5b8063aac4fa1f116100cd578063aac4fa1f1461054b578063aaf7ec6f1461057a578063b30906d4146105d3578063c88d2719146105fe575f80fd5b80638da5cb5b146104a557806392132484146104c257806393cc6cff14610500578063a320bd5d1461051f575f80fd5b80634904190311610173578063654f1ccb11610143578063654f1ccb14610448578063715018a61461045c5780637b2e4a2b146104705780638757c36c14610492575f80fd5b8063490419031461037c5780634b3700a5146103d15780634bc935d7146103f25780635dd31c3d14610411575f80fd5b80633207b9b8116101ae5780633207b9b8146102d6578063332775b5146102f557806346d0bf8714610326578063481116b914610345575f80fd5b8063117a5b90146101d4578063160015231461027a5780632d82f702146102a7575b5f80fd5b3480156101df575f80fd5b506101f36101ee366004612cc1565b61074c565b604080516001600160801b039d8e1681529b8d1660208d0152998c16998b0199909952968a1660608a015294891660808901529790921660a087015260ff90811660c08701521660e08501526001600160a01b0394851661010085015293909316610120830152911515610140820152610160810191909152610180015b60405180910390f35b348015610285575f80fd5b50610299610294366004612cf3565b6107e3565b604051908152602001610271565b3480156102b2575f80fd5b506102c66102c1366004612cf3565b610829565b6040519015158152602001610271565b3480156102e1575f80fd5b506102996102f0366004612cf3565b61086f565b348015610300575f80fd5b5061031461030f366004612cf3565b6108a5565b60405160ff9091168152602001610271565b348015610331575f80fd5b506101f3610340366004612cf3565b6108de565b348015610350575f80fd5b5061036461035f366004612cf3565b610a31565b6040516001600160801b039091168152602001610271565b348015610387575f80fd5b5061039b610396366004612cf3565b610a70565b604080516001600160801b039586168152602081019490945260ff90921691830191909152919091166060820152608001610271565b3480156103dc575f80fd5b506103f06103eb366004612d0c565b610ade565b005b3480156103fd575f80fd5b506102c661040c366004612d76565b610b6a565b34801561041c575f80fd5b5061043061042b366004612cf3565b610bb3565b6040516001600160a01b039091168152602001610271565b348015610453575f80fd5b50600354610299565b348015610467575f80fd5b506103f0610bf2565b61048361047e366004612dc2565b610c05565b60405161027193929190612df2565b6102c66104a0366004612cf3565b610f5a565b3480156104b0575f80fd5b506001546001600160a01b0316610430565b3480156104cd575f80fd5b506104e16104dc366004612cf3565b61106c565b6040805192151583526001600160801b03909116602083015201610271565b34801561050b575f80fd5b506104e161051a366004612e69565b6111dc565b34801561052a575f80fd5b5061053e610539366004612cf3565b61141d565b6040516102719190612ed1565b348015610556575f80fd5b5061056a610565366004612f8a565b6116ae565b6040516102719493929190613018565b348015610585575f80fd5b50610599610594366004612cf3565b6116d5565b6040805160ff909616865260208601949094526001600160801b03909216928401929092526060830191909152608082015260a001610271565b3480156105de575f80fd5b506102996105ed366004612cc1565b60026020525f908152604090205481565b348015610609575f80fd5b506104e1610618366004613066565b611796565b348015610628575f80fd5b5061029961063736600461311f565b611a08565b348015610647575f80fd5b506102c6610656366004612cf3565b611ae8565b348015610666575f80fd5b50610364610675366004612cf3565b611c76565b348015610685575f80fd5b50610699610694366004613166565b611cbc565b6040516001600160401b039091168152602001610271565b3480156106bc575f80fd5b506103f06106cb3660046131de565b612182565b3480156106db575f80fd5b506102c66106ea366004612cf3565b6121bf565b3480156106fa575f80fd5b5061070e6107093660046131f9565b61220a565b6040805192151583526001600160401b03909116602083015201610271565b348015610738575f80fd5b506104e1610747366004613267565b6123f2565b6003818154811061075b575f80fd5b5f9182526020909120600890910201805460018201546002830154600384015460048501546005909501546001600160801b038086169750600160801b95869004811696858216969586900482169585831695049091169260ff8082169361010083048216936001600160a01b0362010000909404841693811692600160a01b90910416908c565b5f6003826001600160401b0316815481106108005761080061329c565b5f918252602090912060089091020160010154600160801b90046001600160801b031692915050565b5f6003826001600160401b0316815481106108465761084661329c565b5f918252602090912060089091020154600160801b90046001600160801b031643101592915050565b5f6003826001600160401b03168154811061088c5761088c61329c565b5f91825260209091206006600890920201015492915050565b5f6003826001600160401b0316815481106108c2576108c261329c565b5f91825260209091206003600890920201015460ff1692915050565b5f805f805f805f805f805f805f60038e6001600160401b0316815481106109075761090761329c565b905f5260205f2090600802019050805f015f9054906101000a90046001600160801b0316815f0160109054906101000a90046001600160801b0316826001015f9054906101000a90046001600160801b03168360010160109054906101000a90046001600160801b0316846002015f9054906101000a90046001600160801b03168560020160109054906101000a90046001600160801b0316866003015f9054906101000a900460ff168760030160019054906101000a900460ff168860030160029054906101000a90046001600160a01b0316896004015f9054906101000a90046001600160a01b03168a60040160149054906101000a900460ff168b600501549c509c509c509c509c509c509c509c509c509c509c509c505091939597999b5091939597999b565b5f6003826001600160401b031681548110610a4e57610a4e61329c565b5f9182526020909120600260089092020101546001600160801b031692915050565b5f805f805f6003866001600160401b031681548110610a9157610a9161329c565b5f918252602090912060089091020160028101548154600390920154600160801b8083046001600160801b039081169b919094048416995061010090910460ff1697509116945092505050565b80610ae8816125c0565b81610af28161260d565b82610afc816126ec565b846003856001600160401b031681548110610b1957610b1961329c565b905f5260205f20906008020160050181905550836001600160401b0316857f2a49411bb9e08da201130052ded0f7927ed002b62362a66a39473b3e207758f960405160405180910390a35050505050565b5f610baa8585808060200260200160405190810160405280939291908181526020018383602002808284375f920191909152508792508691506127129050565b95945050505050565b5f6003826001600160401b031681548110610bd057610bd061329c565b5f9182526020909120600460089092020101546001600160a01b031692915050565b610bfa612727565b610c035f612754565b565b5f60605f610c116127a5565b85610c1b816127cd565b8633610c2782826128c2565b5f60038a6001600160401b031681548110610c4457610c4461329c565b905f5260205f20906008020190506003805490508a6001600160401b03161115610c9c57600354604051631448a94560e11b81526001600160401b038c16600482015260248101919091526044015b60405180910390fd5b80546001600160801b0316431115610cdb578054604051632af5f0ef60e01b81526001600160801b039091166004820152436024820152604401610c93565b6002810154600160801b90046001600160801b03163414610d2c57600281015460405163151f6fcd60e01b8152346004820152600160801b9091046001600160801b03166024820152604401610c93565b60038101545f90606490610d439060ff16346132c4565b610d4d91906132ef565b610d579034613302565b9050610d65338b838c612933565b6006830180546001810182555f918252602090912091985001610d8888826133a9565b50335f90815260078301602052604081206001600160801b0380841690915560028401805484939192610dbd91859116613464565b92506101000a8154816001600160801b0302191690836001600160801b031602179055505f8260040160149054906101000a900460ff1690505f81610e20576003840154606490610e119060ff16346132c4565b610e1b91906132ef565b610e4e565b6003840154606490610e379060029060ff16613484565b610e449060ff16346132c4565b610e4e91906132ef565b90505f8083610e5e575f83610e61565b82835b60018801805492945090925082915f90610e859084906001600160801b0316613464565b92506101000a8154816001600160801b0302191690836001600160801b031602179055508315610efa57818660010160108282829054906101000a90046001600160801b0316610ed59190613464565b92506101000a8154816001600160801b0302191690836001600160801b031602179055505b60068601546040516001600160801b039091169033907fe7d88a4386b44454cdf90fd66541beb4ecc5baa5806215b6e7adee89b7245a9d905f90a35050506006909201548b985095505050505050610f5160015f55565b93509350939050565b5f81610f6581612967565b82610f6f816125c0565b345f03610f8f5760405163105dbfa960e11b815260040160405180910390fd5b346003856001600160401b031681548110610fac57610fac61329c565b5f918252602082206002600890920201018054909190610fd69084906001600160801b0316613464565b92506101000a8154816001600160801b0302191690836001600160801b031602179055506003846001600160401b0316815481106110165761101661329c565b5f91825260208220600260089092020101546040516001600160801b0391821692349092169133917f42b764eb3f9f6c422e78106dc7074a8205a8f34267cd8b82670f6075b2e6bf3e9190a45060019392505050565b5f80826110788161260d565b83611082816129bc565b8461108c81612a1c565b6110946127a5565b5f6003876001600160401b0316815481106110b1576110b161329c565b5f918252602082206004600890920201908101546001820180546001600160801b038082169092556040519395506001600160a01b03909216803194600160801b90930490911692909183919081818185875af1925050503d805f8114611133576040519150601f19603f3d011682016040523d82523d5f602084013e611138565b606091505b5050809850508761115c576040516360a0d28f60e01b815260040160405180910390fd5b60048301546111769083906001600160a01b0316316134a5565b60048401546040519198506001600160801b038916916001600160a01b03909116906001600160401b038c16907f0f31ff3ddb436231c4fe2b96fcc97ba177addd639bab2968f8c365f58d5b9a3f905f90a45050506111d460015f55565b505050915091565b5f80866111e881612a1c565b6111f06127a5565b5f6003896001600160401b03168154811061120d5761120d61329c565b905f5260205f2090600802019050338660405160200161125892919060609290921b6bffffffffffffffffffffffff1916825260801b6001600160801b031916601482015260240190565b6040516020818303038152906040528051906020012085146112a557604051630c9beb5760e01b81523360048201526001600160801b038716602482015260448101869052606401610c93565b6112b58888836005015488610b6a565b6112d257604051631ac2386360e31b815260040160405180910390fd5b600381015460028201546064916112fe9160ff90911690600160801b90046001600160801b03166134b8565b61130891906134e3565b335f9081526007830160205260409020546001600160801b039190911611156113445760405163d1dafa8560e01b815260040160405180910390fd5b60028101546001600160801b038088169116116113875760405163c64e729d60e01b81526001600160801b03808816600483015247166024820152604401610c93565b335f818152600783016020526040808220829055516001600160801b0389169181818185875af1925050503d805f81146113dc576040519150601f19603f3d011682016040523d82523d5f602084013e6113e1565b606091505b5050809450508361140557604051633811692560e11b815260040160405180910390fd5b8592505061141260015f55565b509550959350505050565b60605f6003836001600160401b03168154811061143c5761143c61329c565b905f5260205f20906008020190505f81600601805490506001600160401b0381111561146a5761146a612f46565b6040519080825280602002602001820160405280156114ba57816020015b604080516080810182525f8082526020808301829052928201819052606082015282525f199092019101816114885790505b5090505f826006015f815481106114d3576114d361329c565b905f5260205f200180546114e690613329565b80601f016020809104026020016040519081016040528092919081815260200182805461151290613329565b801561155d5780601f106115345761010080835404028352916020019161155d565b820191905f5260205f20905b81548152906001019060200180831161154057829003601f168201915b505050505090505f5b60068401548110156116a4575f846006015f815481106115885761158861329c565b905f5260205f2001805461159b90613329565b80601f01602080910402602001604051908101604052809291908181526020018280546115c790613329565b80156116125780601f106115e957610100808354040283529160200191611612565b820191905f5260205f20905b8154815290600101906020018083116115f557829003601f168201915b50505050509050611642604080516080810182525f80825260208201819052918101829052606081019190915290565b61164b826116ae565b60608501526001600160801b0316835260208301526001600160a01b03166040820152845181908690859081106116845761168461329c565b60200260200101819052505050808061169c90613508565b915050611566565b5090949350505050565b5f805f80848060200190518101906116c69190613520565b92989197509550909350915050565b5f805f805f6116e360035490565b866001600160401b0316101561172757856116fd60035490565b604051631448a94560e11b81526001600160401b0390921660048301526024820152604401610c93565b5f6003876001600160401b0316815481106117445761174461329c565b5f9182526020909120600890910201600381015460068201546002830154925461010090920460ff169a9099506001600160801b0392831698508282169750600160801b909104909116945092505050565b5f806117a0612727565b6117a86127a5565b83515f036117c9576040516313e7646760e31b815260040160405180910390fd5b6001600160a01b038316611820576040516321c0e83160e01b815260206004820181905260248201527f4e6f207472616e736665727320746f20746865207a65726f20616464726573736044820152606401610c93565b5f805b85516001600160401b0316816001600160401b0316101561192857600386826001600160401b03168151811061185b5761185b61329c565b60200260200101516001600160401b03168154811061187c5761187c61329c565b5f9182526020909120600160089092020101546118a2906001600160801b031683613464565b91505f600387836001600160401b0316815181106118c2576118c261329c565b60200260200101516001600160401b0316815481106118e3576118e361329c565b905f5260205f2090600802016001015f6101000a8154816001600160801b0302191690836001600160801b03160217905550808061192090613566565b915050611823565b506040516001600160a01b0385168031916001600160801b038416905f81818185875af1925050503d805f811461197a576040519150601f19603f3d011682016040523d82523d5f602084013e61197f565b606091505b509094506119999050816001600160a01b03871631613302565b925060018415151480156119be5750816001600160801b0316836001600160801b0316145b6119f65760405163606e262360e01b815284151560048201526001600160801b03808516602483015283166044820152606401610c93565b5050611a0160015f55565b9250929050565b5f611adc6003846001600160401b031681548110611a2857611a2861329c565b905f5260205f2090600802016006018381548110611a4857611a4861329c565b905f5260205f20018054611a5b90613329565b80601f0160208091040260200160405190810160405280929190818152602001828054611a8790613329565b8015611ad25780601f10611aa957610100808354040283529160200191611ad2565b820191905f5260205f20905b815481529060010190602001808311611ab557829003601f168201915b50505050506116ae565b93505050505b92915050565b5f81611af38161260d565b6003546001600160401b0384161115611b3557600354604051631448a94560e11b81526001600160401b03851660048201526024810191909152604401610c93565b6003836001600160401b031681548110611b5157611b5161329c565b5f918252602090912060089091020154600160801b90046001600160801b0316431015611bd757436003846001600160401b031681548110611b9557611b9561329c565b5f91825260209091206008909102015460405163e746a4d360e01b81526004810192909252600160801b90046001600160801b03166024820152604401610c93565b6003836001600160401b031681548110611bf357611bf361329c565b5f918252602090912060089091020160030154610100900460ff16600103611c2e5760405163246450af60e21b815260040160405180910390fd5b5f6003846001600160401b031681548110611c4b57611c4b61329c565b5f9182526020909120600360089092020101805461ff00191661010017905550600191505b50919050565b5f6003826001600160401b031681548110611c9357611c9361329c565b5f918252602090912060089091020160020154600160801b90046001600160801b031692915050565b5f611cd0436001600160801b0389166134a5565b5f03611cef5760405163ec2caa0d60e01b815260040160405180910390fd5b62049d40611d06436001600160801b0389166134a5565b1115611d2557604051633dea3a3b60e11b815260040160405180910390fd5b60148360ff161115611d495760405162a4671960e71b815260040160405180910390fd5b6003805460019081018083555f92909252611d63916134a5565b9050866003826001600160401b031681548110611d8257611d8261329c565b905f5260205f2090600802015f015f6101000a8154816001600160801b0302191690836001600160801b03160217905550856003826001600160401b031681548110611dd057611dd061329c565b905f5260205f2090600802015f0160106101000a8154816001600160801b0302191690836001600160801b03160217905550846003826001600160401b031681548110611e1f57611e1f61329c565b905f5260205f20906008020160020160106101000a8154816001600160801b0302191690836001600160801b03160217905550826003826001600160401b031681548110611e6f57611e6f61329c565b905f5260205f2090600802016003015f6101000a81548160ff021916908360ff160217905550836003826001600160401b031681548110611eb257611eb261329c565b5f918252602090912060036008909202010180546001600160a01b0392909216620100000262010000600160b01b0319909216919091179055323303611ef85733611efa565b325b6003826001600160401b031681548110611f1657611f1661329c565b905f5260205f2090600802016004015f6101000a8154816001600160a01b0302191690836001600160a01b03160217905550816003826001600160401b031681548110611f6557611f6561329c565b905f5260205f20906008020160040160146101000a81548160ff0219169083151502179055507f7d4a1d5e50effa83544857fe4eb3fb00e89a8d1c387dc786f7c6ede2fd8ef697816003836001600160401b031681548110611fc957611fc961329c565b905f5260205f2090600802016003015f9054906101000a900460ff166003846001600160401b0316815481106120015761200161329c565b905f5260205f20906008020160020160109054906101000a90046001600160801b0316436003866001600160401b0316815481106120415761204161329c565b5f918252602090912060089091020154600380546001600160801b03909216916001600160401b03891690811061207a5761207a61329c565b905f5260205f2090600802015f0160109054906101000a90046001600160801b03166003886001600160401b0316815481106120b8576120b861329c565b905f5260205f2090600802016004015f9054906101000a90046001600160a01b03166003896001600160401b0316815481106120f6576120f661329c565b5f9182526020918290206008919091020160030154604080516001600160401b039a909a168a5260ff98909816918901919091526001600160801b03958616888801526060880194909452918416608087015290921660a08501526001600160a01b0391821660c08501526201000090041660e083015251908190036101000190a19695505050505050565b61218a612727565b6001600160a01b0381166121b357604051631e4fbdf760e01b81525f6004820152602401610c93565b6121bc81612754565b50565b5f6003826001600160401b0316815481106121dc576121dc61329c565b5f918252602090912060089091020160030154610100900460ff1615612203576001611ae2565b5f92915050565b5f80612214612abf565b5f836001600160401b0381111561222d5761222d612f46565b604051908082528060200260200182016040528015612256578160200160208202803683370190505b5090505f5b6001600160401b0381168511156123e45761239f8686836001600160401b031681811061228a5761228a61329c565b6122a092602060c090920201908101915061358b565b8787846001600160401b03168181106122bb576122bb61329c565b905060c0020160200160208101906122d3919061358b565b8888856001600160401b03168181106122ee576122ee61329c565b905060c002016040016020810190612306919061358b565b8989866001600160401b03168181106123215761232161329c565b905060c00201606001602081019061233991906131de565b8a8a876001600160401b03168181106123545761235461329c565b905060c00201608001602081019061236c91906135a6565b8b8b886001600160401b03168181106123875761238761329c565b905060c0020160a001602081019061069491906135bf565b82826001600160401b0316815181106123ba576123ba61329c565b6001600160401b0390921660209283029190910190910152806123dc81613566565b91505061225b565b505160019590945092505050565b5f80836123fe81612a1c565b612406612727565b61240e6127a5565b6001600160a01b038416612465576040516321c0e83160e01b815260206004820181905260248201527f4e6f207472616e736665727320746f20746865207a65726f20616464726573736044820152606401610c93565b5f6003866001600160401b0316815481106124825761248261329c565b5f9182526020822060016008909202010154600380546001600160801b039092169350906001600160401b0389169081106124bf576124bf61329c565b5f918252602090912060089091020160010180546001600160801b0319166001600160801b03929092169190911790556040516001600160a01b03861680319183905f6040518083038185875af1925050503d805f811461253b576040519150601f19603f3d011682016040523d82523d5f602084013e612540565b606091505b5090955061255a9050816001600160a01b03881631613302565b93506001851515148015612576575081846001600160801b0316145b6125ad5760405163606e262360e01b815285151560048201526001600160801b038516602482015260448101839052606401610c93565b50506125b860015f55565b509250929050565b5f801b6003826001600160401b0316815481106125df576125df61329c565b905f5260205f20906008020160050154146121bc5760405163b208499960e01b815260040160405180910390fd5b336001600160a01b03166003826001600160401b0316815481106126335761263361329c565b5f9182526020909120600460089092020101546001600160a01b0316148015906126ce5750336001600160a01b0316306001600160a01b0316638da5cb5b6040518163ffffffff1660e01b8152600401602060405180830381865afa15801561269e573d5f803e3d5ffd5b505050506040513d601f19601f820116820180604052508101906126c291906135d8565b6001600160a01b031614155b156121bc576040516332db94d160e21b815260040160405180910390fd5b6126f5816121bf565b6121bc57604051638f86c6b360e01b815260040160405180910390fd5b5f8261271e8584612c46565b14949350505050565b6001546001600160a01b03163314610c035760405163118cdaa760e01b8152336004820152602401610c93565b600180546001600160a01b038381166001600160a01b0319831681179093556040519116919082907f8be0079c531659141344cd1fd0a4f28419497f9722a3daafe3b4186f6b6457e0905f90a35050565b60025f54036127c757604051633ee5aeb560e01b815260040160405180910390fd5b60025f55565b336001600160a01b03166003826001600160401b0316815481106127f3576127f361329c565b5f9182526020909120600460089092020101546001600160a01b0316148061285a5750326001600160a01b03166003826001600160401b03168154811061283c5761283c61329c565b5f9182526020909120600460089092020101546001600160a01b0316145b156121bc576003816001600160401b03168154811061287b5761287b61329c565b5f91825260209091206004600890920201810154604051632ac54bab60e11b81526001600160a01b0390911691810191909152336024820152326044820152606401610c93565b6003826001600160401b0316815481106128de576128de61329c565b5f91825260208083206001600160a01b0385168452600760089093020191909101905260409020541561292f5760405163322b76d360e21b81526001600160401b0383166004820152602401610c93565b5050565b60605f8585858560405160200161294d9493929190613018565b60408051808303601f190181529190529695505050505050565b6003816001600160401b0316815481106129835761298361329c565b5f9182526020909120600890910201546001600160801b03164311156121bc57604051633a5f7b5760e01b815260040160405180910390fd5b5f6001600160a01b03166003826001600160401b0316815481106129e2576129e261329c565b5f9182526020909120600460089092020101546001600160a01b0316036121bc576040516316a9bc5760e01b815260040160405180910390fd5b6003816001600160401b031681548110612a3857612a3861329c565b5f918252602090912060089091020154600160801b90046001600160801b03164310801590612a9e57506003816001600160401b031681548110612a7e57612a7e61329c565b5f91825260209091206003600890920201015460ff610100909104166001145b6121bc57436003826001600160401b031681548110611b9557611b9561329c565b306001600160a01b0316638da5cb5b6040518163ffffffff1660e01b8152600401602060405180830381865afa158015612afb573d5f803e3d5ffd5b505050506040513d601f19601f82011682018060405250810190612b1f91906135d8565b6001600160a01b0316326001600160a01b031614610c0357306001600160a01b0316638da5cb5b6040518163ffffffff1660e01b8152600401602060405180830381865afa158015612b73573d5f803e3d5ffd5b505050506040513d601f19601f82011682018060405250810190612b9791906135d8565b6001600160a01b0316336001600160a01b031614610c03573332306001600160a01b0316638da5cb5b6040518163ffffffff1660e01b8152600401602060405180830381865afa158015612bed573d5f803e3d5ffd5b505050506040513d601f19601f82011682018060405250810190612c1191906135d8565b60405163121aabd560e01b81526001600160a01b03938416600482015291831660248301529091166044820152606401610c93565b5f81815b8451811015612c8a57612c7682868381518110612c6957612c6961329c565b6020026020010151612c92565b915080612c8281613508565b915050612c4a565b509392505050565b5f818310612cac575f828152602084905260409020612cba565b5f8381526020839052604090205b9392505050565b5f60208284031215612cd1575f80fd5b5035919050565b80356001600160401b0381168114612cee575f80fd5b919050565b5f60208284031215612d03575f80fd5b612cba82612cd8565b5f8060408385031215612d1d575f80fd5b82359150612d2d60208401612cd8565b90509250929050565b5f8083601f840112612d46575f80fd5b5081356001600160401b03811115612d5c575f80fd5b6020830191508360208260051b8501011115611a01575f80fd5b5f805f8060608587031215612d89575f80fd5b84356001600160401b03811115612d9e575f80fd5b612daa87828801612d36565b90989097506020870135966040013595509350505050565b5f805f60608486031215612dd4575f80fd5b612ddd84612cd8565b95602085013595506040909401359392505050565b6001600160401b03841681525f602060608184015284518060608501525f5b81811015612e2d57868101830151858201608001528201612e11565b505f608082860101526080601f19601f83011685010192505050826040830152949350505050565b6001600160801b03811681146121bc575f80fd5b5f805f805f60808688031215612e7d575f80fd5b612e8686612cd8565b945060208601356001600160401b03811115612ea0575f80fd5b612eac88828901612d36565b9095509350506040860135612ec081612e55565b949793965091946060013592915050565b602080825282518282018190525f919060409081850190868401855b82811015612f3957815180516001600160801b031685528681015187860152858101516001600160a01b0316868601526060908101519085015260809093019290850190600101612eed565b5091979650505050505050565b634e487b7160e01b5f52604160045260245ffd5b604051601f8201601f191681016001600160401b0381118282101715612f8257612f82612f46565b604052919050565b5f6020808385031215612f9b575f80fd5b82356001600160401b0380821115612fb1575f80fd5b818501915085601f830112612fc4575f80fd5b813581811115612fd657612fd6612f46565b612fe8601f8201601f19168501612f5a565b91508082528684828501011115612ffd575f80fd5b80848401858401375f90820190930192909252509392505050565b6001600160a01b0394909416845260208401929092526001600160801b03166040830152606082015260800190565b6001600160a01b03811681146121bc575f80fd5b8035612cee81613047565b5f8060408385031215613077575f80fd5b82356001600160401b038082111561308d575f80fd5b818501915085601f8301126130a0575f80fd5b81356020828211156130b4576130b4612f46565b8160051b92506130c5818401612f5a565b82815292840181019281810190898511156130de575f80fd5b948201945b84861015613103576130f486612cd8565b825294820194908201906130e3565b9650613112905087820161305b565b9450505050509250929050565b5f8060408385031215613130575f80fd5b61313983612cd8565b946020939093013593505050565b803560ff81168114612cee575f80fd5b80358015158114612cee575f80fd5b5f805f805f8060c0878903121561317b575f80fd5b863561318681612e55565b9550602087013561319681612e55565b945060408701356131a681612e55565b935060608701356131b681613047565b92506131c460808801613147565b91506131d260a08801613157565b90509295509295509295565b5f602082840312156131ee575f80fd5b8135612cba81613047565b5f806020838503121561320a575f80fd5b82356001600160401b0380821115613220575f80fd5b818501915085601f830112613233575f80fd5b813581811115613241575f80fd5b86602060c083028501011115613255575f80fd5b60209290920196919550909350505050565b5f8060408385031215613278575f80fd5b61328183612cd8565b9150602083013561329181613047565b809150509250929050565b634e487b7160e01b5f52603260045260245ffd5b634e487b7160e01b5f52601160045260245ffd5b8082028115828204841417611ae257611ae26132b0565b634e487b7160e01b5f52601260045260245ffd5b5f826132fd576132fd6132db565b500490565b6001600160801b03828116828216039080821115613322576133226132b0565b5092915050565b600181811c9082168061333d57607f821691505b602082108103611c7057634e487b7160e01b5f52602260045260245ffd5b601f8211156133a4575f81815260208120601f850160051c810160208610156133815750805b601f850160051c820191505b818110156133a05782815560010161338d565b5050505b505050565b81516001600160401b038111156133c2576133c2612f46565b6133d6816133d08454613329565b8461335b565b602080601f831160018114613409575f84156133f25750858301515b5f19600386901b1c1916600185901b1785556133a0565b5f85815260208120601f198616915b8281101561343757888601518255948401946001909101908401613418565b508582101561345457878501515f19600388901b60f8161c191681555b5050505050600190811b01905550565b6001600160801b03818116838216019080821115613322576133226132b0565b5f60ff831680613496576134966132db565b8060ff84160491505092915050565b81810381811115611ae257611ae26132b0565b6001600160801b038181168382160280821691908281146134db576134db6132b0565b505092915050565b5f6001600160801b03808416806134fc576134fc6132db565b92169190910492915050565b5f60018201613519576135196132b0565b5060010190565b5f805f8060808587031215613533575f80fd5b845161353e81613047565b60208601516040870151919550935061355681612e55565b6060959095015193969295505050565b5f6001600160401b03808316818103613581576135816132b0565b6001019392505050565b5f6020828403121561359b575f80fd5b8135612cba81612e55565b5f602082840312156135b6575f80fd5b612cba82613147565b5f602082840312156135cf575f80fd5b612cba82613157565b5f602082840312156135e8575f80fd5b8151612cba8161304756fea26469706673582212208a42b48438db33c5de69934555a2b9228ee8a2e06e83f3784d6720159a88234764736f6c63430008150033",
			"opcodes": "PUSH1 0x80 PUSH1 0x40 MSTORE CALLVALUE DUP1 ISZERO PUSH3 0x10 JUMPI PUSH0 DUP1 REVERT JUMPDEST POP PUSH1 0x40 MLOAD PUSH3 0x3730 CODESIZE SUB DUP1 PUSH3 0x3730 DUP4 CODECOPY DUP2 ADD PUSH1 0x40 DUP2 SWAP1 MSTORE PUSH3 0x33 SWAP2 PUSH3 0xCA JUMP JUMPDEST PUSH1 0x1 PUSH0 SSTORE DUP1 PUSH1 0x1 PUSH1 0x1 PUSH1 0xA0 SHL SUB DUP2 AND PUSH3 0x66 JUMPI PUSH1 0x40 MLOAD PUSH4 0x1E4FBDF7 PUSH1 0xE0 SHL DUP2 MSTORE PUSH0 PUSH1 0x4 DUP3 ADD MSTORE PUSH1 0x24 ADD PUSH1 0x40 MLOAD DUP1 SWAP2 SUB SWAP1 REVERT JUMPDEST PUSH3 0x71 DUP2 PUSH3 0x79 JUMP JUMPDEST POP POP PUSH3 0xF9 JUMP JUMPDEST PUSH1 0x1 DUP1 SLOAD PUSH1 0x1 PUSH1 0x1 PUSH1 0xA0 SHL SUB DUP4 DUP2 AND PUSH1 0x1 PUSH1 0x1 PUSH1 0xA0 SHL SUB NOT DUP4 AND DUP2 OR SWAP1 SWAP4 SSTORE PUSH1 0x40 MLOAD SWAP2 AND SWAP2 SWAP1 DUP3 SWAP1 PUSH32 0x8BE0079C531659141344CD1FD0A4F28419497F9722A3DAAFE3B4186F6B6457E0 SWAP1 PUSH0 SWAP1 LOG3 POP POP JUMP JUMPDEST PUSH0 PUSH1 0x20 DUP3 DUP5 SUB SLT ISZERO PUSH3 0xDB JUMPI PUSH0 DUP1 REVERT JUMPDEST DUP2 MLOAD PUSH1 0x1 PUSH1 0x1 PUSH1 0xA0 SHL SUB DUP2 AND DUP2 EQ PUSH3 0xF2 JUMPI PUSH0 DUP1 REVERT JUMPDEST SWAP4 SWAP3 POP POP POP JUMP JUMPDEST PUSH2 0x3629 DUP1 PUSH3 0x107 PUSH0 CODECOPY PUSH0 RETURN INVALID PUSH1 0x80 PUSH1 0x40 MSTORE PUSH1 0x4 CALLDATASIZE LT PUSH2 0x1D0 JUMPI PUSH0 CALLDATALOAD PUSH1 0xE0 SHR DUP1 PUSH4 0x8DA5CB5B GT PUSH2 0xFD JUMPI DUP1 PUSH4 0xD03EFB19 GT PUSH2 0x92 JUMPI DUP1 PUSH4 0xF2FDE38B GT PUSH2 0x62 JUMPI DUP1 PUSH4 0xF2FDE38B EQ PUSH2 0x6B1 JUMPI DUP1 PUSH4 0xF5DE2A4F EQ PUSH2 0x6D0 JUMPI DUP1 PUSH4 0xFAE8A599 EQ PUSH2 0x6EF JUMPI DUP1 PUSH4 0xFDD658F9 EQ PUSH2 0x72D JUMPI PUSH0 DUP1 REVERT JUMPDEST DUP1 PUSH4 0xD03EFB19 EQ PUSH2 0x61D JUMPI DUP1 PUSH4 0xD462C2FB EQ PUSH2 0x63C JUMPI DUP1 PUSH4 0xDF9E608F EQ PUSH2 0x65B JUMPI DUP1 PUSH4 0xE7734D12 EQ PUSH2 0x67A JUMPI PUSH0 DUP1 REVERT JUMPDEST DUP1 PUSH4 0xAAC4FA1F GT PUSH2 0xCD JUMPI DUP1 PUSH4 0xAAC4FA1F EQ PUSH2 0x54B JUMPI DUP1 PUSH4 0xAAF7EC6F EQ PUSH2 0x57A JUMPI DUP1 PUSH4 0xB30906D4 EQ PUSH2 0x5D3 JUMPI DUP1 PUSH4 0xC88D2719 EQ PUSH2 0x5FE JUMPI PUSH0 DUP1 REVERT JUMPDEST DUP1 PUSH4 0x8DA5CB5B EQ PUSH2 0x4A5 JUMPI DUP1 PUSH4 0x92132484 EQ PUSH2 0x4C2 JUMPI DUP1 PUSH4 0x93CC6CFF EQ PUSH2 0x500 JUMPI DUP1 PUSH4 0xA320BD5D EQ PUSH2 0x51F JUMPI PUSH0 DUP1 REVERT JUMPDEST DUP1 PUSH4 0x49041903 GT PUSH2 0x173 JUMPI DUP1 PUSH4 0x654F1CCB GT PUSH2 0x143 JUMPI DUP1 PUSH4 0x654F1CCB EQ PUSH2 0x448 JUMPI DUP1 PUSH4 0x715018A6 EQ PUSH2 0x45C JUMPI DUP1 PUSH4 0x7B2E4A2B EQ PUSH2 0x470 JUMPI DUP1 PUSH4 0x8757C36C EQ PUSH2 0x492 JUMPI PUSH0 DUP1 REVERT JUMPDEST DUP1 PUSH4 0x49041903 EQ PUSH2 0x37C JUMPI DUP1 PUSH4 0x4B3700A5 EQ PUSH2 0x3D1 JUMPI DUP1 PUSH4 0x4BC935D7 EQ PUSH2 0x3F2 JUMPI DUP1 PUSH4 0x5DD31C3D EQ PUSH2 0x411 JUMPI PUSH0 DUP1 REVERT JUMPDEST DUP1 PUSH4 0x3207B9B8 GT PUSH2 0x1AE JUMPI DUP1 PUSH4 0x3207B9B8 EQ PUSH2 0x2D6 JUMPI DUP1 PUSH4 0x332775B5 EQ PUSH2 0x2F5 JUMPI DUP1 PUSH4 0x46D0BF87 EQ PUSH2 0x326 JUMPI DUP1 PUSH4 0x481116B9 EQ PUSH2 0x345 JUMPI PUSH0 DUP1 REVERT JUMPDEST DUP1 PUSH4 0x117A5B90 EQ PUSH2 0x1D4 JUMPI DUP1 PUSH4 0x16001523 EQ PUSH2 0x27A JUMPI DUP1 PUSH4 0x2D82F702 EQ PUSH2 0x2A7 JUMPI JUMPDEST PUSH0 DUP1 REVERT JUMPDEST CALLVALUE DUP1 ISZERO PUSH2 0x1DF JUMPI PUSH0 DUP1 REVERT JUMPDEST POP PUSH2 0x1F3 PUSH2 0x1EE CALLDATASIZE PUSH1 0x4 PUSH2 0x2CC1 JUMP JUMPDEST PUSH2 0x74C JUMP JUMPDEST PUSH1 0x40 DUP1 MLOAD PUSH1 0x1 PUSH1 0x1 PUSH1 0x80 SHL SUB SWAP14 DUP15 AND DUP2 MSTORE SWAP12 DUP14 AND PUSH1 0x20 DUP14 ADD MSTORE SWAP10 DUP13 AND SWAP10 DUP12 ADD SWAP10 SWAP1 SWAP10 MSTORE SWAP7 DUP11 AND PUSH1 0x60 DUP11 ADD MSTORE SWAP5 DUP10 AND PUSH1 0x80 DUP10 ADD MSTORE SWAP8 SWAP1 SWAP3 AND PUSH1 0xA0 DUP8 ADD MSTORE PUSH1 0xFF SWAP1 DUP2 AND PUSH1 0xC0 DUP8 ADD MSTORE AND PUSH1 0xE0 DUP6 ADD MSTORE PUSH1 0x1 PUSH1 0x1 PUSH1 0xA0 SHL SUB SWAP5 DUP6 AND PUSH2 0x100 DUP6 ADD MSTORE SWAP4 SWAP1 SWAP4 AND PUSH2 0x120 DUP4 ADD MSTORE SWAP2 ISZERO ISZERO PUSH2 0x140 DUP3 ADD MSTORE PUSH2 0x160 DUP2 ADD SWAP2 SWAP1 SWAP2 MSTORE PUSH2 0x180 ADD JUMPDEST PUSH1 0x40 MLOAD DUP1 SWAP2 SUB SWAP1 RETURN JUMPDEST CALLVALUE DUP1 ISZERO PUSH2 0x285 JUMPI PUSH0 DUP1 REVERT JUMPDEST POP PUSH2 0x299 PUSH2 0x294 CALLDATASIZE PUSH1 0x4 PUSH2 0x2CF3 JUMP JUMPDEST PUSH2 0x7E3 JUMP JUMPDEST PUSH1 0x40 MLOAD SWAP1 DUP2 MSTORE PUSH1 0x20 ADD PUSH2 0x271 JUMP JUMPDEST CALLVALUE DUP1 ISZERO PUSH2 0x2B2 JUMPI PUSH0 DUP1 REVERT JUMPDEST POP PUSH2 0x2C6 PUSH2 0x2C1 CALLDATASIZE PUSH1 0x4 PUSH2 0x2CF3 JUMP JUMPDEST PUSH2 0x829 JUMP JUMPDEST PUSH1 0x40 MLOAD SWAP1 ISZERO ISZERO DUP2 MSTORE PUSH1 0x20 ADD PUSH2 0x271 JUMP JUMPDEST CALLVALUE DUP1 ISZERO PUSH2 0x2E1 JUMPI PUSH0 DUP1 REVERT JUMPDEST POP PUSH2 0x299 PUSH2 0x2F0 CALLDATASIZE PUSH1 0x4 PUSH2 0x2CF3 JUMP JUMPDEST PUSH2 0x86F JUMP JUMPDEST CALLVALUE DUP1 ISZERO PUSH2 0x300 JUMPI PUSH0 DUP1 REVERT JUMPDEST POP PUSH2 0x314 PUSH2 0x30F CALLDATASIZE PUSH1 0x4 PUSH2 0x2CF3 JUMP JUMPDEST PUSH2 0x8A5 JUMP JUMPDEST PUSH1 0x40 MLOAD PUSH1 0xFF SWAP1 SWAP2 AND DUP2 MSTORE PUSH1 0x20 ADD PUSH2 0x271 JUMP JUMPDEST CALLVALUE DUP1 ISZERO PUSH2 0x331 JUMPI PUSH0 DUP1 REVERT JUMPDEST POP PUSH2 0x1F3 PUSH2 0x340 CALLDATASIZE PUSH1 0x4 PUSH2 0x2CF3 JUMP JUMPDEST PUSH2 0x8DE JUMP JUMPDEST CALLVALUE DUP1 ISZERO PUSH2 0x350 JUMPI PUSH0 DUP1 REVERT JUMPDEST POP PUSH2 0x364 PUSH2 0x35F CALLDATASIZE PUSH1 0x4 PUSH2 0x2CF3 JUMP JUMPDEST PUSH2 0xA31 JUMP JUMPDEST PUSH1 0x40 MLOAD PUSH1 0x1 PUSH1 0x1 PUSH1 0x80 SHL SUB SWAP1 SWAP2 AND DUP2 MSTORE PUSH1 0x20 ADD PUSH2 0x271 JUMP JUMPDEST CALLVALUE DUP1 ISZERO PUSH2 0x387 JUMPI PUSH0 DUP1 REVERT JUMPDEST POP PUSH2 0x39B PUSH2 0x396 CALLDATASIZE PUSH1 0x4 PUSH2 0x2CF3 JUMP JUMPDEST PUSH2 0xA70 JUMP JUMPDEST PUSH1 0x40 DUP1 MLOAD PUSH1 0x1 PUSH1 0x1 PUSH1 0x80 SHL SUB SWAP6 DUP7 AND DUP2 MSTORE PUSH1 0x20 DUP2 ADD SWAP5 SWAP1 SWAP5 MSTORE PUSH1 0xFF SWAP1 SWAP3 AND SWAP2 DUP4 ADD SWAP2 SWAP1 SWAP2 MSTORE SWAP2 SWAP1 SWAP2 AND PUSH1 0x60 DUP3 ADD MSTORE PUSH1 0x80 ADD PUSH2 0x271 JUMP JUMPDEST CALLVALUE DUP1 ISZERO PUSH2 0x3DC JUMPI PUSH0 DUP1 REVERT JUMPDEST POP PUSH2 0x3F0 PUSH2 0x3EB CALLDATASIZE PUSH1 0x4 PUSH2 0x2D0C JUMP JUMPDEST PUSH2 0xADE JUMP JUMPDEST STOP JUMPDEST CALLVALUE DUP1 ISZERO PUSH2 0x3FD JUMPI PUSH0 DUP1 REVERT JUMPDEST POP PUSH2 0x2C6 PUSH2 0x40C CALLDATASIZE PUSH1 0x4 PUSH2 0x2D76 JUMP JUMPDEST PUSH2 0xB6A JUMP JUMPDEST CALLVALUE DUP1 ISZERO PUSH2 0x41C JUMPI PUSH0 DUP1 REVERT JUMPDEST POP PUSH2 0x430 PUSH2 0x42B CALLDATASIZE PUSH1 0x4 PUSH2 0x2CF3 JUMP JUMPDEST PUSH2 0xBB3 JUMP JUMPDEST PUSH1 0x40 MLOAD PUSH1 0x1 PUSH1 0x1 PUSH1 0xA0 SHL SUB SWAP1 SWAP2 AND DUP2 MSTORE PUSH1 0x20 ADD PUSH2 0x271 JUMP JUMPDEST CALLVALUE DUP1 ISZERO PUSH2 0x453 JUMPI PUSH0 DUP1 REVERT JUMPDEST POP PUSH1 0x3 SLOAD PUSH2 0x299 JUMP JUMPDEST CALLVALUE DUP1 ISZERO PUSH2 0x467 JUMPI PUSH0 DUP1 REVERT JUMPDEST POP PUSH2 0x3F0 PUSH2 0xBF2 JUMP JUMPDEST PUSH2 0x483 PUSH2 0x47E CALLDATASIZE PUSH1 0x4 PUSH2 0x2DC2 JUMP JUMPDEST PUSH2 0xC05 JUMP JUMPDEST PUSH1 0x40 MLOAD PUSH2 0x271 SWAP4 SWAP3 SWAP2 SWAP1 PUSH2 0x2DF2 JUMP JUMPDEST PUSH2 0x2C6 PUSH2 0x4A0 CALLDATASIZE PUSH1 0x4 PUSH2 0x2CF3 JUMP JUMPDEST PUSH2 0xF5A JUMP JUMPDEST CALLVALUE DUP1 ISZERO PUSH2 0x4B0 JUMPI PUSH0 DUP1 REVERT JUMPDEST POP PUSH1 0x1 SLOAD PUSH1 0x1 PUSH1 0x1 PUSH1 0xA0 SHL SUB AND PUSH2 0x430 JUMP JUMPDEST CALLVALUE DUP1 ISZERO PUSH2 0x4CD JUMPI PUSH0 DUP1 REVERT JUMPDEST POP PUSH2 0x4E1 PUSH2 0x4DC CALLDATASIZE PUSH1 0x4 PUSH2 0x2CF3 JUMP JUMPDEST PUSH2 0x106C JUMP JUMPDEST PUSH1 0x40 DUP1 MLOAD SWAP3 ISZERO ISZERO DUP4 MSTORE PUSH1 0x1 PUSH1 0x1 PUSH1 0x80 SHL SUB SWAP1 SWAP2 AND PUSH1 0x20 DUP4 ADD MSTORE ADD PUSH2 0x271 JUMP JUMPDEST CALLVALUE DUP1 ISZERO PUSH2 0x50B JUMPI PUSH0 DUP1 REVERT JUMPDEST POP PUSH2 0x4E1 PUSH2 0x51A CALLDATASIZE PUSH1 0x4 PUSH2 0x2E69 JUMP JUMPDEST PUSH2 0x11DC JUMP JUMPDEST CALLVALUE DUP1 ISZERO PUSH2 0x52A JUMPI PUSH0 DUP1 REVERT JUMPDEST POP PUSH2 0x53E PUSH2 0x539 CALLDATASIZE PUSH1 0x4 PUSH2 0x2CF3 JUMP JUMPDEST PUSH2 0x141D JUMP JUMPDEST PUSH1 0x40 MLOAD PUSH2 0x271 SWAP2 SWAP1 PUSH2 0x2ED1 JUMP JUMPDEST CALLVALUE DUP1 ISZERO PUSH2 0x556 JUMPI PUSH0 DUP1 REVERT JUMPDEST POP PUSH2 0x56A PUSH2 0x565 CALLDATASIZE PUSH1 0x4 PUSH2 0x2F8A JUMP JUMPDEST PUSH2 0x16AE JUMP JUMPDEST PUSH1 0x40 MLOAD PUSH2 0x271 SWAP5 SWAP4 SWAP3 SWAP2 SWAP1 PUSH2 0x3018 JUMP JUMPDEST CALLVALUE DUP1 ISZERO PUSH2 0x585 JUMPI PUSH0 DUP1 REVERT JUMPDEST POP PUSH2 0x599 PUSH2 0x594 CALLDATASIZE PUSH1 0x4 PUSH2 0x2CF3 JUMP JUMPDEST PUSH2 0x16D5 JUMP JUMPDEST PUSH1 0x40 DUP1 MLOAD PUSH1 0xFF SWAP1 SWAP7 AND DUP7 MSTORE PUSH1 0x20 DUP7 ADD SWAP5 SWAP1 SWAP5 MSTORE PUSH1 0x1 PUSH1 0x1 PUSH1 0x80 SHL SUB SWAP1 SWAP3 AND SWAP3 DUP5 ADD SWAP3 SWAP1 SWAP3 MSTORE PUSH1 0x60 DUP4 ADD SWAP2 SWAP1 SWAP2 MSTORE PUSH1 0x80 DUP3 ADD MSTORE PUSH1 0xA0 ADD PUSH2 0x271 JUMP JUMPDEST CALLVALUE DUP1 ISZERO PUSH2 0x5DE JUMPI PUSH0 DUP1 REVERT JUMPDEST POP PUSH2 0x299 PUSH2 0x5ED CALLDATASIZE PUSH1 0x4 PUSH2 0x2CC1 JUMP JUMPDEST PUSH1 0x2 PUSH1 0x20 MSTORE PUSH0 SWAP1 DUP2 MSTORE PUSH1 0x40 SWAP1 KECCAK256 SLOAD DUP2 JUMP JUMPDEST CALLVALUE DUP1 ISZERO PUSH2 0x609 JUMPI PUSH0 DUP1 REVERT JUMPDEST POP PUSH2 0x4E1 PUSH2 0x618 CALLDATASIZE PUSH1 0x4 PUSH2 0x3066 JUMP JUMPDEST PUSH2 0x1796 JUMP JUMPDEST CALLVALUE DUP1 ISZERO PUSH2 0x628 JUMPI PUSH0 DUP1 REVERT JUMPDEST POP PUSH2 0x299 PUSH2 0x637 CALLDATASIZE PUSH1 0x4 PUSH2 0x311F JUMP JUMPDEST PUSH2 0x1A08 JUMP JUMPDEST CALLVALUE DUP1 ISZERO PUSH2 0x647 JUMPI PUSH0 DUP1 REVERT JUMPDEST POP PUSH2 0x2C6 PUSH2 0x656 CALLDATASIZE PUSH1 0x4 PUSH2 0x2CF3 JUMP JUMPDEST PUSH2 0x1AE8 JUMP JUMPDEST CALLVALUE DUP1 ISZERO PUSH2 0x666 JUMPI PUSH0 DUP1 REVERT JUMPDEST POP PUSH2 0x364 PUSH2 0x675 CALLDATASIZE PUSH1 0x4 PUSH2 0x2CF3 JUMP JUMPDEST PUSH2 0x1C76 JUMP JUMPDEST CALLVALUE DUP1 ISZERO PUSH2 0x685 JUMPI PUSH0 DUP1 REVERT JUMPDEST POP PUSH2 0x699 PUSH2 0x694 CALLDATASIZE PUSH1 0x4 PUSH2 0x3166 JUMP JUMPDEST PUSH2 0x1CBC JUMP JUMPDEST PUSH1 0x40 MLOAD PUSH1 0x1 PUSH1 0x1 PUSH1 0x40 SHL SUB SWAP1 SWAP2 AND DUP2 MSTORE PUSH1 0x20 ADD PUSH2 0x271 JUMP JUMPDEST CALLVALUE DUP1 ISZERO PUSH2 0x6BC JUMPI PUSH0 DUP1 REVERT JUMPDEST POP PUSH2 0x3F0 PUSH2 0x6CB CALLDATASIZE PUSH1 0x4 PUSH2 0x31DE JUMP JUMPDEST PUSH2 0x2182 JUMP JUMPDEST CALLVALUE DUP1 ISZERO PUSH2 0x6DB JUMPI PUSH0 DUP1 REVERT JUMPDEST POP PUSH2 0x2C6 PUSH2 0x6EA CALLDATASIZE PUSH1 0x4 PUSH2 0x2CF3 JUMP JUMPDEST PUSH2 0x21BF JUMP JUMPDEST CALLVALUE DUP1 ISZERO PUSH2 0x6FA JUMPI PUSH0 DUP1 REVERT JUMPDEST POP PUSH2 0x70E PUSH2 0x709 CALLDATASIZE PUSH1 0x4 PUSH2 0x31F9 JUMP JUMPDEST PUSH2 0x220A JUMP JUMPDEST PUSH1 0x40 DUP1 MLOAD SWAP3 ISZERO ISZERO DUP4 MSTORE PUSH1 0x1 PUSH1 0x1 PUSH1 0x40 SHL SUB SWAP1 SWAP2 AND PUSH1 0x20 DUP4 ADD MSTORE ADD PUSH2 0x271 JUMP JUMPDEST CALLVALUE DUP1 ISZERO PUSH2 0x738 JUMPI PUSH0 DUP1 REVERT JUMPDEST POP PUSH2 0x4E1 PUSH2 0x747 CALLDATASIZE PUSH1 0x4 PUSH2 0x3267 JUMP JUMPDEST PUSH2 0x23F2 JUMP JUMPDEST PUSH1 0x3 DUP2 DUP2 SLOAD DUP2 LT PUSH2 0x75B JUMPI PUSH0 DUP1 REVERT JUMPDEST PUSH0 SWAP2 DUP3 MSTORE PUSH1 0x20 SWAP1 SWAP2 KECCAK256 PUSH1 0x8 SWAP1 SWAP2 MUL ADD DUP1 SLOAD PUSH1 0x1 DUP3 ADD SLOAD PUSH1 0x2 DUP4 ADD SLOAD PUSH1 0x3 DUP5 ADD SLOAD PUSH1 0x4 DUP6 ADD SLOAD PUSH1 0x5 SWAP1 SWAP6 ADD SLOAD PUSH1 0x1 PUSH1 0x1 PUSH1 0x80 SHL SUB DUP1 DUP7 AND SWAP8 POP PUSH1 0x1 PUSH1 0x80 SHL SWAP6 DUP7 SWAP1 DIV DUP2 AND SWAP7 DUP6 DUP3 AND SWAP7 SWAP6 DUP7 SWAP1 DIV DUP3 AND SWAP6 DUP6 DUP4 AND SWAP6 DIV SWAP1 SWAP2 AND SWAP3 PUSH1 0xFF DUP1 DUP3 AND SWAP4 PUSH2 0x100 DUP4 DIV DUP3 AND SWAP4 PUSH1 0x1 PUSH1 0x1 PUSH1 0xA0 SHL SUB PUSH3 0x10000 SWAP1 SWAP5 DIV DUP5 AND SWAP4 DUP2 AND SWAP3 PUSH1 0x1 PUSH1 0xA0 SHL SWAP1 SWAP2 DIV AND SWAP1 DUP13 JUMP JUMPDEST PUSH0 PUSH1 0x3 DUP3 PUSH1 0x1 PUSH1 0x1 PUSH1 0x40 SHL SUB AND DUP2 SLOAD DUP2 LT PUSH2 0x800 JUMPI PUSH2 0x800 PUSH2 0x329C JUMP JUMPDEST PUSH0 SWAP2 DUP3 MSTORE PUSH1 0x20 SWAP1 SWAP2 KECCAK256 PUSH1 0x8 SWAP1 SWAP2 MUL ADD PUSH1 0x1 ADD SLOAD PUSH1 0x1 PUSH1 0x80 SHL SWAP1 DIV PUSH1 0x1 PUSH1 0x1 PUSH1 0x80 SHL SUB AND SWAP3 SWAP2 POP POP JUMP JUMPDEST PUSH0 PUSH1 0x3 DUP3 PUSH1 0x1 PUSH1 0x1 PUSH1 0x40 SHL SUB AND DUP2 SLOAD DUP2 LT PUSH2 0x846 JUMPI PUSH2 0x846 PUSH2 0x329C JUMP JUMPDEST PUSH0 SWAP2 DUP3 MSTORE PUSH1 0x20 SWAP1 SWAP2 KECCAK256 PUSH1 0x8 SWAP1 SWAP2 MUL ADD SLOAD PUSH1 0x1 PUSH1 0x80 SHL SWAP1 DIV PUSH1 0x1 PUSH1 0x1 PUSH1 0x80 SHL SUB AND NUMBER LT ISZERO SWAP3 SWAP2 POP POP JUMP JUMPDEST PUSH0 PUSH1 0x3 DUP3 PUSH1 0x1 PUSH1 0x1 PUSH1 0x40 SHL SUB AND DUP2 SLOAD DUP2 LT PUSH2 0x88C JUMPI PUSH2 0x88C PUSH2 0x329C JUMP JUMPDEST PUSH0 SWAP2 DUP3 MSTORE PUSH1 0x20 SWAP1 SWAP2 KECCAK256 PUSH1 0x6 PUSH1 0x8 SWAP1 SWAP3 MUL ADD ADD SLOAD SWAP3 SWAP2 POP POP JUMP JUMPDEST PUSH0 PUSH1 0x3 DUP3 PUSH1 0x1 PUSH1 0x1 PUSH1 0x40 SHL SUB AND DUP2 SLOAD DUP2 LT PUSH2 0x8C2 JUMPI PUSH2 0x8C2 PUSH2 0x329C JUMP JUMPDEST PUSH0 SWAP2 DUP3 MSTORE PUSH1 0x20 SWAP1 SWAP2 KECCAK256 PUSH1 0x3 PUSH1 0x8 SWAP1 SWAP3 MUL ADD ADD SLOAD PUSH1 0xFF AND SWAP3 SWAP2 POP POP JUMP JUMPDEST PUSH0 DUP1 PUSH0 DUP1 PUSH0 DUP1 PUSH0 DUP1 PUSH0 DUP1 PUSH0 DUP1 PUSH0 PUSH1 0x3 DUP15 PUSH1 0x1 PUSH1 0x1 PUSH1 0x40 SHL SUB AND DUP2 SLOAD DUP2 LT PUSH2 0x907 JUMPI PUSH2 0x907 PUSH2 0x329C JUMP JUMPDEST SWAP1 PUSH0 MSTORE PUSH1 0x20 PUSH0 KECCAK256 SWAP1 PUSH1 0x8 MUL ADD SWAP1 POP DUP1 PUSH0 ADD PUSH0 SWAP1 SLOAD SWAP1 PUSH2 0x100 EXP SWAP1 DIV PUSH1 0x1 PUSH1 0x1 PUSH1 0x80 SHL SUB AND DUP2 PUSH0 ADD PUSH1 0x10 SWAP1 SLOAD SWAP1 PUSH2 0x100 EXP SWAP1 DIV PUSH1 0x1 PUSH1 0x1 PUSH1 0x80 SHL SUB AND DUP3 PUSH1 0x1 ADD PUSH0 SWAP1 SLOAD SWAP1 PUSH2 0x100 EXP SWAP1 DIV PUSH1 0x1 PUSH1 0x1 PUSH1 0x80 SHL SUB AND DUP4 PUSH1 0x1 ADD PUSH1 0x10 SWAP1 SLOAD SWAP1 PUSH2 0x100 EXP SWAP1 DIV PUSH1 0x1 PUSH1 0x1 PUSH1 0x80 SHL SUB AND DUP5 PUSH1 0x2 ADD PUSH0 SWAP1 SLOAD SWAP1 PUSH2 0x100 EXP SWAP1 DIV PUSH1 0x1 PUSH1 0x1 PUSH1 0x80 SHL SUB AND DUP6 PUSH1 0x2 ADD PUSH1 0x10 SWAP1 SLOAD SWAP1 PUSH2 0x100 EXP SWAP1 DIV PUSH1 0x1 PUSH1 0x1 PUSH1 0x80 SHL SUB AND DUP7 PUSH1 0x3 ADD PUSH0 SWAP1 SLOAD SWAP1 PUSH2 0x100 EXP SWAP1 DIV PUSH1 0xFF AND DUP8 PUSH1 0x3 ADD PUSH1 0x1 SWAP1 SLOAD SWAP1 PUSH2 0x100 EXP SWAP1 DIV PUSH1 0xFF AND DUP9 PUSH1 0x3 ADD PUSH1 0x2 SWAP1 SLOAD SWAP1 PUSH2 0x100 EXP SWAP1 DIV PUSH1 0x1 PUSH1 0x1 PUSH1 0xA0 SHL SUB AND DUP10 PUSH1 0x4 ADD PUSH0 SWAP1 SLOAD SWAP1 PUSH2 0x100 EXP SWAP1 DIV PUSH1 0x1 PUSH1 0x1 PUSH1 0xA0 SHL SUB AND DUP11 PUSH1 0x4 ADD PUSH1 0x14 SWAP1 SLOAD SWAP1 PUSH2 0x100 EXP SWAP1 DIV PUSH1 0xFF AND DUP12 PUSH1 0x5 ADD SLOAD SWAP13 POP SWAP13 POP SWAP13 POP SWAP13 POP SWAP13 POP SWAP13 POP SWAP13 POP SWAP13 POP SWAP13 POP SWAP13 POP SWAP13 POP SWAP13 POP POP SWAP2 SWAP4 SWAP6 SWAP8 SWAP10 SWAP12 POP SWAP2 SWAP4 SWAP6 SWAP8 SWAP10 SWAP12 JUMP JUMPDEST PUSH0 PUSH1 0x3 DUP3 PUSH1 0x1 PUSH1 0x1 PUSH1 0x40 SHL SUB AND DUP2 SLOAD DUP2 LT PUSH2 0xA4E JUMPI PUSH2 0xA4E PUSH2 0x329C JUMP JUMPDEST PUSH0 SWAP2 DUP3 MSTORE PUSH1 0x20 SWAP1 SWAP2 KECCAK256 PUSH1 0x2 PUSH1 0x8 SWAP1 SWAP3 MUL ADD ADD SLOAD PUSH1 0x1 PUSH1 0x1 PUSH1 0x80 SHL SUB AND SWAP3 SWAP2 POP POP JUMP JUMPDEST PUSH0 DUP1 PUSH0 DUP1 PUSH0 PUSH1 0x3 DUP7 PUSH1 0x1 PUSH1 0x1 PUSH1 0x40 SHL SUB AND DUP2 SLOAD DUP2 LT PUSH2 0xA91 JUMPI PUSH2 0xA91 PUSH2 0x329C JUMP JUMPDEST PUSH0 SWAP2 DUP3 MSTORE PUSH1 0x20 SWAP1 SWAP2 KECCAK256 PUSH1 0x8 SWAP1 SWAP2 MUL ADD PUSH1 0x2 DUP2 ADD SLOAD DUP2 SLOAD PUSH1 0x3 SWAP1 SWAP3 ADD SLOAD PUSH1 0x1 PUSH1 0x80 SHL DUP1 DUP4 DIV PUSH1 0x1 PUSH1 0x1 PUSH1 0x80 SHL SUB SWAP1 DUP2 AND SWAP12 SWAP2 SWAP1 SWAP5 DIV DUP5 AND SWAP10 POP PUSH2 0x100 SWAP1 SWAP2 DIV PUSH1 0xFF AND SWAP8 POP SWAP2 AND SWAP5 POP SWAP3 POP POP POP JUMP JUMPDEST DUP1 PUSH2 0xAE8 DUP2 PUSH2 0x25C0 JUMP JUMPDEST DUP2 PUSH2 0xAF2 DUP2 PUSH2 0x260D JUMP JUMPDEST DUP3 PUSH2 0xAFC DUP2 PUSH2 0x26EC JUMP JUMPDEST DUP5 PUSH1 0x3 DUP6 PUSH1 0x1 PUSH1 0x1 PUSH1 0x40 SHL SUB AND DUP2 SLOAD DUP2 LT PUSH2 0xB19 JUMPI PUSH2 0xB19 PUSH2 0x329C JUMP JUMPDEST SWAP1 PUSH0 MSTORE PUSH1 0x20 PUSH0 KECCAK256 SWAP1 PUSH1 0x8 MUL ADD PUSH1 0x5 ADD DUP2 SWAP1 SSTORE POP DUP4 PUSH1 0x1 PUSH1 0x1 PUSH1 0x40 SHL SUB AND DUP6 PUSH32 0x2A49411BB9E08DA201130052DED0F7927ED002B62362A66A39473B3E207758F9 PUSH1 0x40 MLOAD PUSH1 0x40 MLOAD DUP1 SWAP2 SUB SWAP1 LOG3 POP POP POP POP POP JUMP JUMPDEST PUSH0 PUSH2 0xBAA DUP6 DUP6 DUP1 DUP1 PUSH1 0x20 MUL PUSH1 0x20 ADD PUSH1 0x40 MLOAD SWAP1 DUP2 ADD PUSH1 0x40 MSTORE DUP1 SWAP4 SWAP3 SWAP2 SWAP1 DUP2 DUP2 MSTORE PUSH1 0x20 ADD DUP4 DUP4 PUSH1 0x20 MUL DUP1 DUP3 DUP5 CALLDATACOPY PUSH0 SWAP3 ADD SWAP2 SWAP1 SWAP2 MSTORE POP DUP8 SWAP3 POP DUP7 SWAP2 POP PUSH2 0x2712 SWAP1 POP JUMP JUMPDEST SWAP6 SWAP5 POP POP POP POP POP JUMP JUMPDEST PUSH0 PUSH1 0x3 DUP3 PUSH1 0x1 PUSH1 0x1 PUSH1 0x40 SHL SUB AND DUP2 SLOAD DUP2 LT PUSH2 0xBD0 JUMPI PUSH2 0xBD0 PUSH2 0x329C JUMP JUMPDEST PUSH0 SWAP2 DUP3 MSTORE PUSH1 0x20 SWAP1 SWAP2 KECCAK256 PUSH1 0x4 PUSH1 0x8 SWAP1 SWAP3 MUL ADD ADD SLOAD PUSH1 0x1 PUSH1 0x1 PUSH1 0xA0 SHL SUB AND SWAP3 SWAP2 POP POP JUMP JUMPDEST PUSH2 0xBFA PUSH2 0x2727 JUMP JUMPDEST PUSH2 0xC03 PUSH0 PUSH2 0x2754 JUMP JUMPDEST JUMP JUMPDEST PUSH0 PUSH1 0x60 PUSH0 PUSH2 0xC11 PUSH2 0x27A5 JUMP JUMPDEST DUP6 PUSH2 0xC1B DUP2 PUSH2 0x27CD JUMP JUMPDEST DUP7 CALLER PUSH2 0xC27 DUP3 DUP3 PUSH2 0x28C2 JUMP JUMPDEST PUSH0 PUSH1 0x3 DUP11 PUSH1 0x1 PUSH1 0x1 PUSH1 0x40 SHL SUB AND DUP2 SLOAD DUP2 LT PUSH2 0xC44 JUMPI PUSH2 0xC44 PUSH2 0x329C JUMP JUMPDEST SWAP1 PUSH0 MSTORE PUSH1 0x20 PUSH0 KECCAK256 SWAP1 PUSH1 0x8 MUL ADD SWAP1 POP PUSH1 0x3 DUP1 SLOAD SWAP1 POP DUP11 PUSH1 0x1 PUSH1 0x1 PUSH1 0x40 SHL SUB AND GT ISZERO PUSH2 0xC9C JUMPI PUSH1 0x3 SLOAD PUSH1 0x40 MLOAD PUSH4 0x1448A945 PUSH1 0xE1 SHL DUP2 MSTORE PUSH1 0x1 PUSH1 0x1 PUSH1 0x40 SHL SUB DUP13 AND PUSH1 0x4 DUP3 ADD MSTORE PUSH1 0x24 DUP2 ADD SWAP2 SWAP1 SWAP2 MSTORE PUSH1 0x44 ADD JUMPDEST PUSH1 0x40 MLOAD DUP1 SWAP2 SUB SWAP1 REVERT JUMPDEST DUP1 SLOAD PUSH1 0x1 PUSH1 0x1 PUSH1 0x80 SHL SUB AND NUMBER GT ISZERO PUSH2 0xCDB JUMPI DUP1 SLOAD PUSH1 0x40 MLOAD PUSH4 0x2AF5F0EF PUSH1 0xE0 SHL DUP2 MSTORE PUSH1 0x1 PUSH1 0x1 PUSH1 0x80 SHL SUB SWAP1 SWAP2 AND PUSH1 0x4 DUP3 ADD MSTORE NUMBER PUSH1 0x24 DUP3 ADD MSTORE PUSH1 0x44 ADD PUSH2 0xC93 JUMP JUMPDEST PUSH1 0x2 DUP2 ADD SLOAD PUSH1 0x1 PUSH1 0x80 SHL SWAP1 DIV PUSH1 0x1 PUSH1 0x1 PUSH1 0x80 SHL SUB AND CALLVALUE EQ PUSH2 0xD2C JUMPI PUSH1 0x2 DUP2 ADD SLOAD PUSH1 0x40 MLOAD PUSH4 0x151F6FCD PUSH1 0xE0 SHL DUP2 MSTORE CALLVALUE PUSH1 0x4 DUP3 ADD MSTORE PUSH1 0x1 PUSH1 0x80 SHL SWAP1 SWAP2 DIV PUSH1 0x1 PUSH1 0x1 PUSH1 0x80 SHL SUB AND PUSH1 0x24 DUP3 ADD MSTORE PUSH1 0x44 ADD PUSH2 0xC93 JUMP JUMPDEST PUSH1 0x3 DUP2 ADD SLOAD PUSH0 SWAP1 PUSH1 0x64 SWAP1 PUSH2 0xD43 SWAP1 PUSH1 0xFF AND CALLVALUE PUSH2 0x32C4 JUMP JUMPDEST PUSH2 0xD4D SWAP2 SWAP1 PUSH2 0x32EF JUMP JUMPDEST PUSH2 0xD57 SWAP1 CALLVALUE PUSH2 0x3302 JUMP JUMPDEST SWAP1 POP PUSH2 0xD65 CALLER DUP12 DUP4 DUP13 PUSH2 0x2933 JUMP JUMPDEST PUSH1 0x6 DUP4 ADD DUP1 SLOAD PUSH1 0x1 DUP2 ADD DUP3 SSTORE PUSH0 SWAP2 DUP3 MSTORE PUSH1 0x20 SWAP1 SWAP2 KECCAK256 SWAP2 SWAP9 POP ADD PUSH2 0xD88 DUP9 DUP3 PUSH2 0x33A9 JUMP JUMPDEST POP CALLER PUSH0 SWAP1 DUP2 MSTORE PUSH1 0x7 DUP4 ADD PUSH1 0x20 MSTORE PUSH1 0x40 DUP2 KECCAK256 PUSH1 0x1 PUSH1 0x1 PUSH1 0x80 SHL SUB DUP1 DUP5 AND SWAP1 SWAP2 SSTORE PUSH1 0x2 DUP5 ADD DUP1 SLOAD DUP5 SWAP4 SWAP2 SWAP3 PUSH2 0xDBD SWAP2 DUP6 SWAP2 AND PUSH2 0x3464 JUMP JUMPDEST SWAP3 POP PUSH2 0x100 EXP DUP2 SLOAD DUP2 PUSH1 0x1 PUSH1 0x1 PUSH1 0x80 SHL SUB MUL NOT AND SWAP1 DUP4 PUSH1 0x1 PUSH1 0x1 PUSH1 0x80 SHL SUB AND MUL OR SWAP1 SSTORE POP PUSH0 DUP3 PUSH1 0x4 ADD PUSH1 0x14 SWAP1 SLOAD SWAP1 PUSH2 0x100 EXP SWAP1 DIV PUSH1 0xFF AND SWAP1 POP PUSH0 DUP2 PUSH2 0xE20 JUMPI PUSH1 0x3 DUP5 ADD SLOAD PUSH1 0x64 SWAP1 PUSH2 0xE11 SWAP1 PUSH1 0xFF AND CALLVALUE PUSH2 0x32C4 JUMP JUMPDEST PUSH2 0xE1B SWAP2 SWAP1 PUSH2 0x32EF JUMP JUMPDEST PUSH2 0xE4E JUMP JUMPDEST PUSH1 0x3 DUP5 ADD SLOAD PUSH1 0x64 SWAP1 PUSH2 0xE37 SWAP1 PUSH1 0x2 SWAP1 PUSH1 0xFF AND PUSH2 0x3484 JUMP JUMPDEST PUSH2 0xE44 SWAP1 PUSH1 0xFF AND CALLVALUE PUSH2 0x32C4 JUMP JUMPDEST PUSH2 0xE4E SWAP2 SWAP1 PUSH2 0x32EF JUMP JUMPDEST SWAP1 POP PUSH0 DUP1 DUP4 PUSH2 0xE5E JUMPI PUSH0 DUP4 PUSH2 0xE61 JUMP JUMPDEST DUP3 DUP4 JUMPDEST PUSH1 0x1 DUP9 ADD DUP1 SLOAD SWAP3 SWAP5 POP SWAP1 SWAP3 POP DUP3 SWAP2 PUSH0 SWAP1 PUSH2 0xE85 SWAP1 DUP5 SWAP1 PUSH1 0x1 PUSH1 0x1 PUSH1 0x80 SHL SUB AND PUSH2 0x3464 JUMP JUMPDEST SWAP3 POP PUSH2 0x100 EXP DUP2 SLOAD DUP2 PUSH1 0x1 PUSH1 0x1 PUSH1 0x80 SHL SUB MUL NOT AND SWAP1 DUP4 PUSH1 0x1 PUSH1 0x1 PUSH1 0x80 SHL SUB AND MUL OR SWAP1 SSTORE POP DUP4 ISZERO PUSH2 0xEFA JUMPI DUP2 DUP7 PUSH1 0x1 ADD PUSH1 0x10 DUP3 DUP3 DUP3 SWAP1 SLOAD SWAP1 PUSH2 0x100 EXP SWAP1 DIV PUSH1 0x1 PUSH1 0x1 PUSH1 0x80 SHL SUB AND PUSH2 0xED5 SWAP2 SWAP1 PUSH2 0x3464 JUMP JUMPDEST SWAP3 POP PUSH2 0x100 EXP DUP2 SLOAD DUP2 PUSH1 0x1 PUSH1 0x1 PUSH1 0x80 SHL SUB MUL NOT AND SWAP1 DUP4 PUSH1 0x1 PUSH1 0x1 PUSH1 0x80 SHL SUB AND MUL OR SWAP1 SSTORE POP JUMPDEST PUSH1 0x6 DUP7 ADD SLOAD PUSH1 0x40 MLOAD PUSH1 0x1 PUSH1 0x1 PUSH1 0x80 SHL SUB SWAP1 SWAP2 AND SWAP1 CALLER SWAP1 PUSH32 0xE7D88A4386B44454CDF90FD66541BEB4ECC5BAA5806215B6E7ADEE89B7245A9D SWAP1 PUSH0 SWAP1 LOG3 POP POP POP PUSH1 0x6 SWAP1 SWAP3 ADD SLOAD DUP12 SWAP9 POP SWAP6 POP POP POP POP POP POP PUSH2 0xF51 PUSH1 0x1 PUSH0 SSTORE JUMP JUMPDEST SWAP4 POP SWAP4 POP SWAP4 SWAP1 POP JUMP JUMPDEST PUSH0 DUP2 PUSH2 0xF65 DUP2 PUSH2 0x2967 JUMP JUMPDEST DUP3 PUSH2 0xF6F DUP2 PUSH2 0x25C0 JUMP JUMPDEST CALLVALUE PUSH0 SUB PUSH2 0xF8F JUMPI PUSH1 0x40 MLOAD PUSH4 0x105DBFA9 PUSH1 0xE1 SHL DUP2 MSTORE PUSH1 0x4 ADD PUSH1 0x40 MLOAD DUP1 SWAP2 SUB SWAP1 REVERT JUMPDEST CALLVALUE PUSH1 0x3 DUP6 PUSH1 0x1 PUSH1 0x1 PUSH1 0x40 SHL SUB AND DUP2 SLOAD DUP2 LT PUSH2 0xFAC JUMPI PUSH2 0xFAC PUSH2 0x329C JUMP JUMPDEST PUSH0 SWAP2 DUP3 MSTORE PUSH1 0x20 DUP3 KECCAK256 PUSH1 0x2 PUSH1 0x8 SWAP1 SWAP3 MUL ADD ADD DUP1 SLOAD SWAP1 SWAP2 SWAP1 PUSH2 0xFD6 SWAP1 DUP5 SWAP1 PUSH1 0x1 PUSH1 0x1 PUSH1 0x80 SHL SUB AND PUSH2 0x3464 JUMP JUMPDEST SWAP3 POP PUSH2 0x100 EXP DUP2 SLOAD DUP2 PUSH1 0x1 PUSH1 0x1 PUSH1 0x80 SHL SUB MUL NOT AND SWAP1 DUP4 PUSH1 0x1 PUSH1 0x1 PUSH1 0x80 SHL SUB AND MUL OR SWAP1 SSTORE POP PUSH1 0x3 DUP5 PUSH1 0x1 PUSH1 0x1 PUSH1 0x40 SHL SUB AND DUP2 SLOAD DUP2 LT PUSH2 0x1016 JUMPI PUSH2 0x1016 PUSH2 0x329C JUMP JUMPDEST PUSH0 SWAP2 DUP3 MSTORE PUSH1 0x20 DUP3 KECCAK256 PUSH1 0x2 PUSH1 0x8 SWAP1 SWAP3 MUL ADD ADD SLOAD PUSH1 0x40 MLOAD PUSH1 0x1 PUSH1 0x1 PUSH1 0x80 SHL SUB SWAP2 DUP3 AND SWAP3 CALLVALUE SWAP1 SWAP3 AND SWAP2 CALLER SWAP2 PUSH32 0x42B764EB3F9F6C422E78106DC7074A8205A8F34267CD8B82670F6075B2E6BF3E SWAP2 SWAP1 LOG4 POP PUSH1 0x1 SWAP4 SWAP3 POP POP POP JUMP JUMPDEST PUSH0 DUP1 DUP3 PUSH2 0x1078 DUP2 PUSH2 0x260D JUMP JUMPDEST DUP4 PUSH2 0x1082 DUP2 PUSH2 0x29BC JUMP JUMPDEST DUP5 PUSH2 0x108C DUP2 PUSH2 0x2A1C JUMP JUMPDEST PUSH2 0x1094 PUSH2 0x27A5 JUMP JUMPDEST PUSH0 PUSH1 0x3 DUP8 PUSH1 0x1 PUSH1 0x1 PUSH1 0x40 SHL SUB AND DUP2 SLOAD DUP2 LT PUSH2 0x10B1 JUMPI PUSH2 0x10B1 PUSH2 0x329C JUMP JUMPDEST PUSH0 SWAP2 DUP3 MSTORE PUSH1 0x20 DUP3 KECCAK256 PUSH1 0x4 PUSH1 0x8 SWAP1 SWAP3 MUL ADD SWAP1 DUP2 ADD SLOAD PUSH1 0x1 DUP3 ADD DUP1 SLOAD PUSH1 0x1 PUSH1 0x1 PUSH1 0x80 SHL SUB DUP1 DUP3 AND SWAP1 SWAP3 SSTORE PUSH1 0x40 MLOAD SWAP4 SWAP6 POP PUSH1 0x1 PUSH1 0x1 PUSH1 0xA0 SHL SUB SWAP1 SWAP3 AND DUP1 BALANCE SWAP5 PUSH1 0x1 PUSH1 0x80 SHL SWAP1 SWAP4 DIV SWAP1 SWAP2 AND SWAP3 SWAP1 SWAP2 DUP4 SWAP2 SWAP1 DUP2 DUP2 DUP2 DUP6 DUP8 GAS CALL SWAP3 POP POP POP RETURNDATASIZE DUP1 PUSH0 DUP2 EQ PUSH2 0x1133 JUMPI PUSH1 0x40 MLOAD SWAP2 POP PUSH1 0x1F NOT PUSH1 0x3F RETURNDATASIZE ADD AND DUP3 ADD PUSH1 0x40 MSTORE RETURNDATASIZE DUP3 MSTORE RETURNDATASIZE PUSH0 PUSH1 0x20 DUP5 ADD RETURNDATACOPY PUSH2 0x1138 JUMP JUMPDEST PUSH1 0x60 SWAP2 POP JUMPDEST POP POP DUP1 SWAP9 POP POP DUP8 PUSH2 0x115C JUMPI PUSH1 0x40 MLOAD PUSH4 0x60A0D28F PUSH1 0xE0 SHL DUP2 MSTORE PUSH1 0x4 ADD PUSH1 0x40 MLOAD DUP1 SWAP2 SUB SWAP1 REVERT JUMPDEST PUSH1 0x4 DUP4 ADD SLOAD PUSH2 0x1176 SWAP1 DUP4 SWAP1 PUSH1 0x1 PUSH1 0x1 PUSH1 0xA0 SHL SUB AND BALANCE PUSH2 0x34A5 JUMP JUMPDEST PUSH1 0x4 DUP5 ADD SLOAD PUSH1 0x40 MLOAD SWAP2 SWAP9 POP PUSH1 0x1 PUSH1 0x1 PUSH1 0x80 SHL SUB DUP10 AND SWAP2 PUSH1 0x1 PUSH1 0x1 PUSH1 0xA0 SHL SUB SWAP1 SWAP2 AND SWAP1 PUSH1 0x1 PUSH1 0x1 PUSH1 0x40 SHL SUB DUP13 AND SWAP1 PUSH32 0xF31FF3DDB436231C4FE2B96FCC97BA177ADDD639BAB2968F8C365F58D5B9A3F SWAP1 PUSH0 SWAP1 LOG4 POP POP POP PUSH2 0x11D4 PUSH1 0x1 PUSH0 SSTORE JUMP JUMPDEST POP POP POP SWAP2 POP SWAP2 JUMP JUMPDEST PUSH0 DUP1 DUP7 PUSH2 0x11E8 DUP2 PUSH2 0x2A1C JUMP JUMPDEST PUSH2 0x11F0 PUSH2 0x27A5 JUMP JUMPDEST PUSH0 PUSH1 0x3 DUP10 PUSH1 0x1 PUSH1 0x1 PUSH1 0x40 SHL SUB AND DUP2 SLOAD DUP2 LT PUSH2 0x120D JUMPI PUSH2 0x120D PUSH2 0x329C JUMP JUMPDEST SWAP1 PUSH0 MSTORE PUSH1 0x20 PUSH0 KECCAK256 SWAP1 PUSH1 0x8 MUL ADD SWAP1 POP CALLER DUP7 PUSH1 0x40 MLOAD PUSH1 0x20 ADD PUSH2 0x1258 SWAP3 SWAP2 SWAP1 PUSH1 0x60 SWAP3 SWAP1 SWAP3 SHL PUSH12 0xFFFFFFFFFFFFFFFFFFFFFFFF NOT AND DUP3 MSTORE PUSH1 0x80 SHL PUSH1 0x1 PUSH1 0x1 PUSH1 0x80 SHL SUB NOT AND PUSH1 0x14 DUP3 ADD MSTORE PUSH1 0x24 ADD SWAP1 JUMP JUMPDEST PUSH1 0x40 MLOAD PUSH1 0x20 DUP2 DUP4 SUB SUB DUP2 MSTORE SWAP1 PUSH1 0x40 MSTORE DUP1 MLOAD SWAP1 PUSH1 0x20 ADD KECCAK256 DUP6 EQ PUSH2 0x12A5 JUMPI PUSH1 0x40 MLOAD PUSH4 0xC9BEB57 PUSH1 0xE0 SHL DUP2 MSTORE CALLER PUSH1 0x4 DUP3 ADD MSTORE PUSH1 0x1 PUSH1 0x1 PUSH1 0x80 SHL SUB DUP8 AND PUSH1 0x24 DUP3 ADD MSTORE PUSH1 0x44 DUP2 ADD DUP7 SWAP1 MSTORE PUSH1 0x64 ADD PUSH2 0xC93 JUMP JUMPDEST PUSH2 0x12B5 DUP9 DUP9 DUP4 PUSH1 0x5 ADD SLOAD DUP9 PUSH2 0xB6A JUMP JUMPDEST PUSH2 0x12D2 JUMPI PUSH1 0x40 MLOAD PUSH4 0x1AC23863 PUSH1 0xE3 SHL DUP2 MSTORE PUSH1 0x4 ADD PUSH1 0x40 MLOAD DUP1 SWAP2 SUB SWAP1 REVERT JUMPDEST PUSH1 0x3 DUP2 ADD SLOAD PUSH1 0x2 DUP3 ADD SLOAD PUSH1 0x64 SWAP2 PUSH2 0x12FE SWAP2 PUSH1 0xFF SWAP1 SWAP2 AND SWAP1 PUSH1 0x1 PUSH1 0x80 SHL SWAP1 DIV PUSH1 0x1 PUSH1 0x1 PUSH1 0x80 SHL SUB AND PUSH2 0x34B8 JUMP JUMPDEST PUSH2 0x1308 SWAP2 SWAP1 PUSH2 0x34E3 JUMP JUMPDEST CALLER PUSH0 SWAP1 DUP2 MSTORE PUSH1 0x7 DUP4 ADD PUSH1 0x20 MSTORE PUSH1 0x40 SWAP1 KECCAK256 SLOAD PUSH1 0x1 PUSH1 0x1 PUSH1 0x80 SHL SUB SWAP2 SWAP1 SWAP2 AND GT ISZERO PUSH2 0x1344 JUMPI PUSH1 0x40 MLOAD PUSH4 0xD1DAFA85 PUSH1 0xE0 SHL DUP2 MSTORE PUSH1 0x4 ADD PUSH1 0x40 MLOAD DUP1 SWAP2 SUB SWAP1 REVERT JUMPDEST PUSH1 0x2 DUP2 ADD SLOAD PUSH1 0x1 PUSH1 0x1 PUSH1 0x80 SHL SUB DUP1 DUP9 AND SWAP2 AND GT PUSH2 0x1387 JUMPI PUSH1 0x40 MLOAD PUSH4 0xC64E729D PUSH1 0xE0 SHL DUP2 MSTORE PUSH1 0x1 PUSH1 0x1 PUSH1 0x80 SHL SUB DUP1 DUP9 AND PUSH1 0x4 DUP4 ADD MSTORE SELFBALANCE AND PUSH1 0x24 DUP3 ADD MSTORE PUSH1 0x44 ADD PUSH2 0xC93 JUMP JUMPDEST CALLER PUSH0 DUP2 DUP2 MSTORE PUSH1 0x7 DUP4 ADD PUSH1 0x20 MSTORE PUSH1 0x40 DUP1 DUP3 KECCAK256 DUP3 SWAP1 SSTORE MLOAD PUSH1 0x1 PUSH1 0x1 PUSH1 0x80 SHL SUB DUP10 AND SWAP2 DUP2 DUP2 DUP2 DUP6 DUP8 GAS CALL SWAP3 POP POP POP RETURNDATASIZE DUP1 PUSH0 DUP2 EQ PUSH2 0x13DC JUMPI PUSH1 0x40 MLOAD SWAP2 POP PUSH1 0x1F NOT PUSH1 0x3F RETURNDATASIZE ADD AND DUP3 ADD PUSH1 0x40 MSTORE RETURNDATASIZE DUP3 MSTORE RETURNDATASIZE PUSH0 PUSH1 0x20 DUP5 ADD RETURNDATACOPY PUSH2 0x13E1 JUMP JUMPDEST PUSH1 0x60 SWAP2 POP JUMPDEST POP POP DUP1 SWAP5 POP POP DUP4 PUSH2 0x1405 JUMPI PUSH1 0x40 MLOAD PUSH4 0x38116925 PUSH1 0xE1 SHL DUP2 MSTORE PUSH1 0x4 ADD PUSH1 0x40 MLOAD DUP1 SWAP2 SUB SWAP1 REVERT JUMPDEST DUP6 SWAP3 POP POP PUSH2 0x1412 PUSH1 0x1 PUSH0 SSTORE JUMP JUMPDEST POP SWAP6 POP SWAP6 SWAP4 POP POP POP POP JUMP JUMPDEST PUSH1 0x60 PUSH0 PUSH1 0x3 DUP4 PUSH1 0x1 PUSH1 0x1 PUSH1 0x40 SHL SUB AND DUP2 SLOAD DUP2 LT PUSH2 0x143C JUMPI PUSH2 0x143C PUSH2 0x329C JUMP JUMPDEST SWAP1 PUSH0 MSTORE PUSH1 0x20 PUSH0 KECCAK256 SWAP1 PUSH1 0x8 MUL ADD SWAP1 POP PUSH0 DUP2 PUSH1 0x6 ADD DUP1 SLOAD SWAP1 POP PUSH1 0x1 PUSH1 0x1 PUSH1 0x40 SHL SUB DUP2 GT ISZERO PUSH2 0x146A JUMPI PUSH2 0x146A PUSH2 0x2F46 JUMP JUMPDEST PUSH1 0x40 MLOAD SWAP1 DUP1 DUP3 MSTORE DUP1 PUSH1 0x20 MUL PUSH1 0x20 ADD DUP3 ADD PUSH1 0x40 MSTORE DUP1 ISZERO PUSH2 0x14BA JUMPI DUP2 PUSH1 0x20 ADD JUMPDEST PUSH1 0x40 DUP1 MLOAD PUSH1 0x80 DUP2 ADD DUP3 MSTORE PUSH0 DUP1 DUP3 MSTORE PUSH1 0x20 DUP1 DUP4 ADD DUP3 SWAP1 MSTORE SWAP3 DUP3 ADD DUP2 SWAP1 MSTORE PUSH1 0x60 DUP3 ADD MSTORE DUP3 MSTORE PUSH0 NOT SWAP1 SWAP3 ADD SWAP2 ADD DUP2 PUSH2 0x1488 JUMPI SWAP1 POP JUMPDEST POP SWAP1 POP PUSH0 DUP3 PUSH1 0x6 ADD PUSH0 DUP2 SLOAD DUP2 LT PUSH2 0x14D3 JUMPI PUSH2 0x14D3 PUSH2 0x329C JUMP JUMPDEST SWAP1 PUSH0 MSTORE PUSH1 0x20 PUSH0 KECCAK256 ADD DUP1 SLOAD PUSH2 0x14E6 SWAP1 PUSH2 0x3329 JUMP JUMPDEST DUP1 PUSH1 0x1F ADD PUSH1 0x20 DUP1 SWAP2 DIV MUL PUSH1 0x20 ADD PUSH1 0x40 MLOAD SWAP1 DUP2 ADD PUSH1 0x40 MSTORE DUP1 SWAP3 SWAP2 SWAP1 DUP2 DUP2 MSTORE PUSH1 0x20 ADD DUP3 DUP1 SLOAD PUSH2 0x1512 SWAP1 PUSH2 0x3329 JUMP JUMPDEST DUP1 ISZERO PUSH2 0x155D JUMPI DUP1 PUSH1 0x1F LT PUSH2 0x1534 JUMPI PUSH2 0x100 DUP1 DUP4 SLOAD DIV MUL DUP4 MSTORE SWAP2 PUSH1 0x20 ADD SWAP2 PUSH2 0x155D JUMP JUMPDEST DUP3 ADD SWAP2 SWAP1 PUSH0 MSTORE PUSH1 0x20 PUSH0 KECCAK256 SWAP1 JUMPDEST DUP2 SLOAD DUP2 MSTORE SWAP1 PUSH1 0x1 ADD SWAP1 PUSH1 0x20 ADD DUP1 DUP4 GT PUSH2 0x1540 JUMPI DUP3 SWAP1 SUB PUSH1 0x1F AND DUP3 ADD SWAP2 JUMPDEST POP POP POP POP POP SWAP1 POP PUSH0 JUMPDEST PUSH1 0x6 DUP5 ADD SLOAD DUP2 LT ISZERO PUSH2 0x16A4 JUMPI PUSH0 DUP5 PUSH1 0x6 ADD PUSH0 DUP2 SLOAD DUP2 LT PUSH2 0x1588 JUMPI PUSH2 0x1588 PUSH2 0x329C JUMP JUMPDEST SWAP1 PUSH0 MSTORE PUSH1 0x20 PUSH0 KECCAK256 ADD DUP1 SLOAD PUSH2 0x159B SWAP1 PUSH2 0x3329 JUMP JUMPDEST DUP1 PUSH1 0x1F ADD PUSH1 0x20 DUP1 SWAP2 DIV MUL PUSH1 0x20 ADD PUSH1 0x40 MLOAD SWAP1 DUP2 ADD PUSH1 0x40 MSTORE DUP1 SWAP3 SWAP2 SWAP1 DUP2 DUP2 MSTORE PUSH1 0x20 ADD DUP3 DUP1 SLOAD PUSH2 0x15C7 SWAP1 PUSH2 0x3329 JUMP JUMPDEST DUP1 ISZERO PUSH2 0x1612 JUMPI DUP1 PUSH1 0x1F LT PUSH2 0x15E9 JUMPI PUSH2 0x100 DUP1 DUP4 SLOAD DIV MUL DUP4 MSTORE SWAP2 PUSH1 0x20 ADD SWAP2 PUSH2 0x1612 JUMP JUMPDEST DUP3 ADD SWAP2 SWAP1 PUSH0 MSTORE PUSH1 0x20 PUSH0 KECCAK256 SWAP1 JUMPDEST DUP2 SLOAD DUP2 MSTORE SWAP1 PUSH1 0x1 ADD SWAP1 PUSH1 0x20 ADD DUP1 DUP4 GT PUSH2 0x15F5 JUMPI DUP3 SWAP1 SUB PUSH1 0x1F AND DUP3 ADD SWAP2 JUMPDEST POP POP POP POP POP SWAP1 POP PUSH2 0x1642 PUSH1 0x40 DUP1 MLOAD PUSH1 0x80 DUP2 ADD DUP3 MSTORE PUSH0 DUP1 DUP3 MSTORE PUSH1 0x20 DUP3 ADD DUP2 SWAP1 MSTORE SWAP2 DUP2 ADD DUP3 SWAP1 MSTORE PUSH1 0x60 DUP2 ADD SWAP2 SWAP1 SWAP2 MSTORE SWAP1 JUMP JUMPDEST PUSH2 0x164B DUP3 PUSH2 0x16AE JUMP JUMPDEST PUSH1 0x60 DUP6 ADD MSTORE PUSH1 0x1 PUSH1 0x1 PUSH1 0x80 SHL SUB AND DUP4 MSTORE PUSH1 0x20 DUP4 ADD MSTORE PUSH1 0x1 PUSH1 0x1 PUSH1 0xA0 SHL SUB AND PUSH1 0x40 DUP3 ADD MSTORE DUP5 MLOAD DUP2 SWAP1 DUP7 SWAP1 DUP6 SWAP1 DUP2 LT PUSH2 0x1684 JUMPI PUSH2 0x1684 PUSH2 0x329C JUMP JUMPDEST PUSH1 0x20 MUL PUSH1 0x20 ADD ADD DUP2 SWAP1 MSTORE POP POP POP DUP1 DUP1 PUSH2 0x169C SWAP1 PUSH2 0x3508 JUMP JUMPDEST SWAP2 POP POP PUSH2 0x1566 JUMP JUMPDEST POP SWAP1 SWAP5 SWAP4 POP POP POP POP JUMP JUMPDEST PUSH0 DUP1 PUSH0 DUP1 DUP5 DUP1 PUSH1 0x20 ADD SWAP1 MLOAD DUP2 ADD SWAP1 PUSH2 0x16C6 SWAP2 SWAP1 PUSH2 0x3520 JUMP JUMPDEST SWAP3 SWAP9 SWAP2 SWAP8 POP SWAP6 POP SWAP1 SWAP4 POP SWAP2 POP POP JUMP JUMPDEST PUSH0 DUP1 PUSH0 DUP1 PUSH0 PUSH2 0x16E3 PUSH1 0x3 SLOAD SWAP1 JUMP JUMPDEST DUP7 PUSH1 0x1 PUSH1 0x1 PUSH1 0x40 SHL SUB AND LT ISZERO PUSH2 0x1727 JUMPI DUP6 PUSH2 0x16FD PUSH1 0x3 SLOAD SWAP1 JUMP JUMPDEST PUSH1 0x40 MLOAD PUSH4 0x1448A945 PUSH1 0xE1 SHL DUP2 MSTORE PUSH1 0x1 PUSH1 0x1 PUSH1 0x40 SHL SUB SWAP1 SWAP3 AND PUSH1 0x4 DUP4 ADD MSTORE PUSH1 0x24 DUP3 ADD MSTORE PUSH1 0x44 ADD PUSH2 0xC93 JUMP JUMPDEST PUSH0 PUSH1 0x3 DUP8 PUSH1 0x1 PUSH1 0x1 PUSH1 0x40 SHL SUB AND DUP2 SLOAD DUP2 LT PUSH2 0x1744 JUMPI PUSH2 0x1744 PUSH2 0x329C JUMP JUMPDEST PUSH0 SWAP2 DUP3 MSTORE PUSH1 0x20 SWAP1 SWAP2 KECCAK256 PUSH1 0x8 SWAP1 SWAP2 MUL ADD PUSH1 0x3 DUP2 ADD SLOAD PUSH1 0x6 DUP3 ADD SLOAD PUSH1 0x2 DUP4 ADD SLOAD SWAP3 SLOAD PUSH2 0x100 SWAP1 SWAP3 DIV PUSH1 0xFF AND SWAP11 SWAP1 SWAP10 POP PUSH1 0x1 PUSH1 0x1 PUSH1 0x80 SHL SUB SWAP3 DUP4 AND SWAP9 POP DUP3 DUP3 AND SWAP8 POP PUSH1 0x1 PUSH1 0x80 SHL SWAP1 SWAP2 DIV SWAP1 SWAP2 AND SWAP5 POP SWAP3 POP POP POP JUMP JUMPDEST PUSH0 DUP1 PUSH2 0x17A0 PUSH2 0x2727 JUMP JUMPDEST PUSH2 0x17A8 PUSH2 0x27A5 JUMP JUMPDEST DUP4 MLOAD PUSH0 SUB PUSH2 0x17C9 JUMPI PUSH1 0x40 MLOAD PUSH4 0x13E76467 PUSH1 0xE3 SHL DUP2 MSTORE PUSH1 0x4 ADD PUSH1 0x40 MLOAD DUP1 SWAP2 SUB SWAP1 REVERT JUMPDEST PUSH1 0x1 PUSH1 0x1 PUSH1 0xA0 SHL SUB DUP4 AND PUSH2 0x1820 JUMPI PUSH1 0x40 MLOAD PUSH4 0x21C0E831 PUSH1 0xE0 SHL DUP2 MSTORE PUSH1 0x20 PUSH1 0x4 DUP3 ADD DUP2 SWAP1 MSTORE PUSH1 0x24 DUP3 ADD MSTORE PUSH32 0x4E6F207472616E736665727320746F20746865207A65726F2061646472657373 PUSH1 0x44 DUP3 ADD MSTORE PUSH1 0x64 ADD PUSH2 0xC93 JUMP JUMPDEST PUSH0 DUP1 JUMPDEST DUP6 MLOAD PUSH1 0x1 PUSH1 0x1 PUSH1 0x40 SHL SUB AND DUP2 PUSH1 0x1 PUSH1 0x1 PUSH1 0x40 SHL SUB AND LT ISZERO PUSH2 0x1928 JUMPI PUSH1 0x3 DUP7 DUP3 PUSH1 0x1 PUSH1 0x1 PUSH1 0x40 SHL SUB AND DUP2 MLOAD DUP2 LT PUSH2 0x185B JUMPI PUSH2 0x185B PUSH2 0x329C JUMP JUMPDEST PUSH1 0x20 MUL PUSH1 0x20 ADD ADD MLOAD PUSH1 0x1 PUSH1 0x1 PUSH1 0x40 SHL SUB AND DUP2 SLOAD DUP2 LT PUSH2 0x187C JUMPI PUSH2 0x187C PUSH2 0x329C JUMP JUMPDEST PUSH0 SWAP2 DUP3 MSTORE PUSH1 0x20 SWAP1 SWAP2 KECCAK256 PUSH1 0x1 PUSH1 0x8 SWAP1 SWAP3 MUL ADD ADD SLOAD PUSH2 0x18A2 SWAP1 PUSH1 0x1 PUSH1 0x1 PUSH1 0x80 SHL SUB AND DUP4 PUSH2 0x3464 JUMP JUMPDEST SWAP2 POP PUSH0 PUSH1 0x3 DUP8 DUP4 PUSH1 0x1 PUSH1 0x1 PUSH1 0x40 SHL SUB AND DUP2 MLOAD DUP2 LT PUSH2 0x18C2 JUMPI PUSH2 0x18C2 PUSH2 0x329C JUMP JUMPDEST PUSH1 0x20 MUL PUSH1 0x20 ADD ADD MLOAD PUSH1 0x1 PUSH1 0x1 PUSH1 0x40 SHL SUB AND DUP2 SLOAD DUP2 LT PUSH2 0x18E3 JUMPI PUSH2 0x18E3 PUSH2 0x329C JUMP JUMPDEST SWAP1 PUSH0 MSTORE PUSH1 0x20 PUSH0 KECCAK256 SWAP1 PUSH1 0x8 MUL ADD PUSH1 0x1 ADD PUSH0 PUSH2 0x100 EXP DUP2 SLOAD DUP2 PUSH1 0x1 PUSH1 0x1 PUSH1 0x80 SHL SUB MUL NOT AND SWAP1 DUP4 PUSH1 0x1 PUSH1 0x1 PUSH1 0x80 SHL SUB AND MUL OR SWAP1 SSTORE POP DUP1 DUP1 PUSH2 0x1920 SWAP1 PUSH2 0x3566 JUMP JUMPDEST SWAP2 POP POP PUSH2 0x1823 JUMP JUMPDEST POP PUSH1 0x40 MLOAD PUSH1 0x1 PUSH1 0x1 PUSH1 0xA0 SHL SUB DUP6 AND DUP1 BALANCE SWAP2 PUSH1 0x1 PUSH1 0x1 PUSH1 0x80 SHL SUB DUP5 AND SWAP1 PUSH0 DUP2 DUP2 DUP2 DUP6 DUP8 GAS CALL SWAP3 POP POP POP RETURNDATASIZE DUP1 PUSH0 DUP2 EQ PUSH2 0x197A JUMPI PUSH1 0x40 MLOAD SWAP2 POP PUSH1 0x1F NOT PUSH1 0x3F RETURNDATASIZE ADD AND DUP3 ADD PUSH1 0x40 MSTORE RETURNDATASIZE DUP3 MSTORE RETURNDATASIZE PUSH0 PUSH1 0x20 DUP5 ADD RETURNDATACOPY PUSH2 0x197F JUMP JUMPDEST PUSH1 0x60 SWAP2 POP JUMPDEST POP SWAP1 SWAP5 POP PUSH2 0x1999 SWAP1 POP DUP2 PUSH1 0x1 PUSH1 0x1 PUSH1 0xA0 SHL SUB DUP8 AND BALANCE PUSH2 0x3302 JUMP JUMPDEST SWAP3 POP PUSH1 0x1 DUP5 ISZERO ISZERO EQ DUP1 ISZERO PUSH2 0x19BE JUMPI POP DUP2 PUSH1 0x1 PUSH1 0x1 PUSH1 0x80 SHL SUB AND DUP4 PUSH1 0x1 PUSH1 0x1 PUSH1 0x80 SHL SUB AND EQ JUMPDEST PUSH2 0x19F6 JUMPI PUSH1 0x40 MLOAD PUSH4 0x606E2623 PUSH1 0xE0 SHL DUP2 MSTORE DUP5 ISZERO ISZERO PUSH1 0x4 DUP3 ADD MSTORE PUSH1 0x1 PUSH1 0x1 PUSH1 0x80 SHL SUB DUP1 DUP6 AND PUSH1 0x24 DUP4 ADD MSTORE DUP4 AND PUSH1 0x44 DUP3 ADD MSTORE PUSH1 0x64 ADD PUSH2 0xC93 JUMP JUMPDEST POP POP PUSH2 0x1A01 PUSH1 0x1 PUSH0 SSTORE JUMP JUMPDEST SWAP3 POP SWAP3 SWAP1 POP JUMP JUMPDEST PUSH0 PUSH2 0x1ADC PUSH1 0x3 DUP5 PUSH1 0x1 PUSH1 0x1 PUSH1 0x40 SHL SUB AND DUP2 SLOAD DUP2 LT PUSH2 0x1A28 JUMPI PUSH2 0x1A28 PUSH2 0x329C JUMP JUMPDEST SWAP1 PUSH0 MSTORE PUSH1 0x20 PUSH0 KECCAK256 SWAP1 PUSH1 0x8 MUL ADD PUSH1 0x6 ADD DUP4 DUP2 SLOAD DUP2 LT PUSH2 0x1A48 JUMPI PUSH2 0x1A48 PUSH2 0x329C JUMP JUMPDEST SWAP1 PUSH0 MSTORE PUSH1 0x20 PUSH0 KECCAK256 ADD DUP1 SLOAD PUSH2 0x1A5B SWAP1 PUSH2 0x3329 JUMP JUMPDEST DUP1 PUSH1 0x1F ADD PUSH1 0x20 DUP1 SWAP2 DIV MUL PUSH1 0x20 ADD PUSH1 0x40 MLOAD SWAP1 DUP2 ADD PUSH1 0x40 MSTORE DUP1 SWAP3 SWAP2 SWAP1 DUP2 DUP2 MSTORE PUSH1 0x20 ADD DUP3 DUP1 SLOAD PUSH2 0x1A87 SWAP1 PUSH2 0x3329 JUMP JUMPDEST DUP1 ISZERO PUSH2 0x1AD2 JUMPI DUP1 PUSH1 0x1F LT PUSH2 0x1AA9 JUMPI PUSH2 0x100 DUP1 DUP4 SLOAD DIV MUL DUP4 MSTORE SWAP2 PUSH1 0x20 ADD SWAP2 PUSH2 0x1AD2 JUMP JUMPDEST DUP3 ADD SWAP2 SWAP1 PUSH0 MSTORE PUSH1 0x20 PUSH0 KECCAK256 SWAP1 JUMPDEST DUP2 SLOAD DUP2 MSTORE SWAP1 PUSH1 0x1 ADD SWAP1 PUSH1 0x20 ADD DUP1 DUP4 GT PUSH2 0x1AB5 JUMPI DUP3 SWAP1 SUB PUSH1 0x1F AND DUP3 ADD SWAP2 JUMPDEST POP POP POP POP POP PUSH2 0x16AE JUMP JUMPDEST SWAP4 POP POP POP POP JUMPDEST SWAP3 SWAP2 POP POP JUMP JUMPDEST PUSH0 DUP2 PUSH2 0x1AF3 DUP2 PUSH2 0x260D JUMP JUMPDEST PUSH1 0x3 SLOAD PUSH1 0x1 PUSH1 0x1 PUSH1 0x40 SHL SUB DUP5 AND GT ISZERO PUSH2 0x1B35 JUMPI PUSH1 0x3 SLOAD PUSH1 0x40 MLOAD PUSH4 0x1448A945 PUSH1 0xE1 SHL DUP2 MSTORE PUSH1 0x1 PUSH1 0x1 PUSH1 0x40 SHL SUB DUP6 AND PUSH1 0x4 DUP3 ADD MSTORE PUSH1 0x24 DUP2 ADD SWAP2 SWAP1 SWAP2 MSTORE PUSH1 0x44 ADD PUSH2 0xC93 JUMP JUMPDEST PUSH1 0x3 DUP4 PUSH1 0x1 PUSH1 0x1 PUSH1 0x40 SHL SUB AND DUP2 SLOAD DUP2 LT PUSH2 0x1B51 JUMPI PUSH2 0x1B51 PUSH2 0x329C JUMP JUMPDEST PUSH0 SWAP2 DUP3 MSTORE PUSH1 0x20 SWAP1 SWAP2 KECCAK256 PUSH1 0x8 SWAP1 SWAP2 MUL ADD SLOAD PUSH1 0x1 PUSH1 0x80 SHL SWAP1 DIV PUSH1 0x1 PUSH1 0x1 PUSH1 0x80 SHL SUB AND NUMBER LT ISZERO PUSH2 0x1BD7 JUMPI NUMBER PUSH1 0x3 DUP5 PUSH1 0x1 PUSH1 0x1 PUSH1 0x40 SHL SUB AND DUP2 SLOAD DUP2 LT PUSH2 0x1B95 JUMPI PUSH2 0x1B95 PUSH2 0x329C JUMP JUMPDEST PUSH0 SWAP2 DUP3 MSTORE PUSH1 0x20 SWAP1 SWAP2 KECCAK256 PUSH1 0x8 SWAP1 SWAP2 MUL ADD SLOAD PUSH1 0x40 MLOAD PUSH4 0xE746A4D3 PUSH1 0xE0 SHL DUP2 MSTORE PUSH1 0x4 DUP2 ADD SWAP3 SWAP1 SWAP3 MSTORE PUSH1 0x1 PUSH1 0x80 SHL SWAP1 DIV PUSH1 0x1 PUSH1 0x1 PUSH1 0x80 SHL SUB AND PUSH1 0x24 DUP3 ADD MSTORE PUSH1 0x44 ADD PUSH2 0xC93 JUMP JUMPDEST PUSH1 0x3 DUP4 PUSH1 0x1 PUSH1 0x1 PUSH1 0x40 SHL SUB AND DUP2 SLOAD DUP2 LT PUSH2 0x1BF3 JUMPI PUSH2 0x1BF3 PUSH2 0x329C JUMP JUMPDEST PUSH0 SWAP2 DUP3 MSTORE PUSH1 0x20 SWAP1 SWAP2 KECCAK256 PUSH1 0x8 SWAP1 SWAP2 MUL ADD PUSH1 0x3 ADD SLOAD PUSH2 0x100 SWAP1 DIV PUSH1 0xFF AND PUSH1 0x1 SUB PUSH2 0x1C2E JUMPI PUSH1 0x40 MLOAD PUSH4 0x246450AF PUSH1 0xE2 SHL DUP2 MSTORE PUSH1 0x4 ADD PUSH1 0x40 MLOAD DUP1 SWAP2 SUB SWAP1 REVERT JUMPDEST PUSH0 PUSH1 0x3 DUP5 PUSH1 0x1 PUSH1 0x1 PUSH1 0x40 SHL SUB AND DUP2 SLOAD DUP2 LT PUSH2 0x1C4B JUMPI PUSH2 0x1C4B PUSH2 0x329C JUMP JUMPDEST PUSH0 SWAP2 DUP3 MSTORE PUSH1 0x20 SWAP1 SWAP2 KECCAK256 PUSH1 0x3 PUSH1 0x8 SWAP1 SWAP3 MUL ADD ADD DUP1 SLOAD PUSH2 0xFF00 NOT AND PUSH2 0x100 OR SWAP1 SSTORE POP PUSH1 0x1 SWAP2 POP JUMPDEST POP SWAP2 SWAP1 POP JUMP JUMPDEST PUSH0 PUSH1 0x3 DUP3 PUSH1 0x1 PUSH1 0x1 PUSH1 0x40 SHL SUB AND DUP2 SLOAD DUP2 LT PUSH2 0x1C93 JUMPI PUSH2 0x1C93 PUSH2 0x329C JUMP JUMPDEST PUSH0 SWAP2 DUP3 MSTORE PUSH1 0x20 SWAP1 SWAP2 KECCAK256 PUSH1 0x8 SWAP1 SWAP2 MUL ADD PUSH1 0x2 ADD SLOAD PUSH1 0x1 PUSH1 0x80 SHL SWAP1 DIV PUSH1 0x1 PUSH1 0x1 PUSH1 0x80 SHL SUB AND SWAP3 SWAP2 POP POP JUMP JUMPDEST PUSH0 PUSH2 0x1CD0 NUMBER PUSH1 0x1 PUSH1 0x1 PUSH1 0x80 SHL SUB DUP10 AND PUSH2 0x34A5 JUMP JUMPDEST PUSH0 SUB PUSH2 0x1CEF JUMPI PUSH1 0x40 MLOAD PUSH4 0xEC2CAA0D PUSH1 0xE0 SHL DUP2 MSTORE PUSH1 0x4 ADD PUSH1 0x40 MLOAD DUP1 SWAP2 SUB SWAP1 REVERT JUMPDEST PUSH3 0x49D40 PUSH2 0x1D06 NUMBER PUSH1 0x1 PUSH1 0x1 PUSH1 0x80 SHL SUB DUP10 AND PUSH2 0x34A5 JUMP JUMPDEST GT ISZERO PUSH2 0x1D25 JUMPI PUSH1 0x40 MLOAD PUSH4 0x3DEA3A3B PUSH1 0xE1 SHL DUP2 MSTORE PUSH1 0x4 ADD PUSH1 0x40 MLOAD DUP1 SWAP2 SUB SWAP1 REVERT JUMPDEST PUSH1 0x14 DUP4 PUSH1 0xFF AND GT ISZERO PUSH2 0x1D49 JUMPI PUSH1 0x40 MLOAD PUSH3 0xA46719 PUSH1 0xE7 SHL DUP2 MSTORE PUSH1 0x4 ADD PUSH1 0x40 MLOAD DUP1 SWAP2 SUB SWAP1 REVERT JUMPDEST PUSH1 0x3 DUP1 SLOAD PUSH1 0x1 SWAP1 DUP2 ADD DUP1 DUP4 SSTORE PUSH0 SWAP3 SWAP1 SWAP3 MSTORE PUSH2 0x1D63 SWAP2 PUSH2 0x34A5 JUMP JUMPDEST SWAP1 POP DUP7 PUSH1 0x3 DUP3 PUSH1 0x1 PUSH1 0x1 PUSH1 0x40 SHL SUB AND DUP2 SLOAD DUP2 LT PUSH2 0x1D82 JUMPI PUSH2 0x1D82 PUSH2 0x329C JUMP JUMPDEST SWAP1 PUSH0 MSTORE PUSH1 0x20 PUSH0 KECCAK256 SWAP1 PUSH1 0x8 MUL ADD PUSH0 ADD PUSH0 PUSH2 0x100 EXP DUP2 SLOAD DUP2 PUSH1 0x1 PUSH1 0x1 PUSH1 0x80 SHL SUB MUL NOT AND SWAP1 DUP4 PUSH1 0x1 PUSH1 0x1 PUSH1 0x80 SHL SUB AND MUL OR SWAP1 SSTORE POP DUP6 PUSH1 0x3 DUP3 PUSH1 0x1 PUSH1 0x1 PUSH1 0x40 SHL SUB AND DUP2 SLOAD DUP2 LT PUSH2 0x1DD0 JUMPI PUSH2 0x1DD0 PUSH2 0x329C JUMP JUMPDEST SWAP1 PUSH0 MSTORE PUSH1 0x20 PUSH0 KECCAK256 SWAP1 PUSH1 0x8 MUL ADD PUSH0 ADD PUSH1 0x10 PUSH2 0x100 EXP DUP2 SLOAD DUP2 PUSH1 0x1 PUSH1 0x1 PUSH1 0x80 SHL SUB MUL NOT AND SWAP1 DUP4 PUSH1 0x1 PUSH1 0x1 PUSH1 0x80 SHL SUB AND MUL OR SWAP1 SSTORE POP DUP5 PUSH1 0x3 DUP3 PUSH1 0x1 PUSH1 0x1 PUSH1 0x40 SHL SUB AND DUP2 SLOAD DUP2 LT PUSH2 0x1E1F JUMPI PUSH2 0x1E1F PUSH2 0x329C JUMP JUMPDEST SWAP1 PUSH0 MSTORE PUSH1 0x20 PUSH0 KECCAK256 SWAP1 PUSH1 0x8 MUL ADD PUSH1 0x2 ADD PUSH1 0x10 PUSH2 0x100 EXP DUP2 SLOAD DUP2 PUSH1 0x1 PUSH1 0x1 PUSH1 0x80 SHL SUB MUL NOT AND SWAP1 DUP4 PUSH1 0x1 PUSH1 0x1 PUSH1 0x80 SHL SUB AND MUL OR SWAP1 SSTORE POP DUP3 PUSH1 0x3 DUP3 PUSH1 0x1 PUSH1 0x1 PUSH1 0x40 SHL SUB AND DUP2 SLOAD DUP2 LT PUSH2 0x1E6F JUMPI PUSH2 0x1E6F PUSH2 0x329C JUMP JUMPDEST SWAP1 PUSH0 MSTORE PUSH1 0x20 PUSH0 KECCAK256 SWAP1 PUSH1 0x8 MUL ADD PUSH1 0x3 ADD PUSH0 PUSH2 0x100 EXP DUP2 SLOAD DUP2 PUSH1 0xFF MUL NOT AND SWAP1 DUP4 PUSH1 0xFF AND MUL OR SWAP1 SSTORE POP DUP4 PUSH1 0x3 DUP3 PUSH1 0x1 PUSH1 0x1 PUSH1 0x40 SHL SUB AND DUP2 SLOAD DUP2 LT PUSH2 0x1EB2 JUMPI PUSH2 0x1EB2 PUSH2 0x329C JUMP JUMPDEST PUSH0 SWAP2 DUP3 MSTORE PUSH1 0x20 SWAP1 SWAP2 KECCAK256 PUSH1 0x3 PUSH1 0x8 SWAP1 SWAP3 MUL ADD ADD DUP1 SLOAD PUSH1 0x1 PUSH1 0x1 PUSH1 0xA0 SHL SUB SWAP3 SWAP1 SWAP3 AND PUSH3 0x10000 MUL PUSH3 0x10000 PUSH1 0x1 PUSH1 0xB0 SHL SUB NOT SWAP1 SWAP3 AND SWAP2 SWAP1 SWAP2 OR SWAP1 SSTORE ORIGIN CALLER SUB PUSH2 0x1EF8 JUMPI CALLER PUSH2 0x1EFA JUMP JUMPDEST ORIGIN JUMPDEST PUSH1 0x3 DUP3 PUSH1 0x1 PUSH1 0x1 PUSH1 0x40 SHL SUB AND DUP2 SLOAD DUP2 LT PUSH2 0x1F16 JUMPI PUSH2 0x1F16 PUSH2 0x329C JUMP JUMPDEST SWAP1 PUSH0 MSTORE PUSH1 0x20 PUSH0 KECCAK256 SWAP1 PUSH1 0x8 MUL ADD PUSH1 0x4 ADD PUSH0 PUSH2 0x100 EXP DUP2 SLOAD DUP2 PUSH1 0x1 PUSH1 0x1 PUSH1 0xA0 SHL SUB MUL NOT AND SWAP1 DUP4 PUSH1 0x1 PUSH1 0x1 PUSH1 0xA0 SHL SUB AND MUL OR SWAP1 SSTORE POP DUP2 PUSH1 0x3 DUP3 PUSH1 0x1 PUSH1 0x1 PUSH1 0x40 SHL SUB AND DUP2 SLOAD DUP2 LT PUSH2 0x1F65 JUMPI PUSH2 0x1F65 PUSH2 0x329C JUMP JUMPDEST SWAP1 PUSH0 MSTORE PUSH1 0x20 PUSH0 KECCAK256 SWAP1 PUSH1 0x8 MUL ADD PUSH1 0x4 ADD PUSH1 0x14 PUSH2 0x100 EXP DUP2 SLOAD DUP2 PUSH1 0xFF MUL NOT AND SWAP1 DUP4 ISZERO ISZERO MUL OR SWAP1 SSTORE POP PUSH32 0x7D4A1D5E50EFFA83544857FE4EB3FB00E89A8D1C387DC786F7C6EDE2FD8EF697 DUP2 PUSH1 0x3 DUP4 PUSH1 0x1 PUSH1 0x1 PUSH1 0x40 SHL SUB AND DUP2 SLOAD DUP2 LT PUSH2 0x1FC9 JUMPI PUSH2 0x1FC9 PUSH2 0x329C JUMP JUMPDEST SWAP1 PUSH0 MSTORE PUSH1 0x20 PUSH0 KECCAK256 SWAP1 PUSH1 0x8 MUL ADD PUSH1 0x3 ADD PUSH0 SWAP1 SLOAD SWAP1 PUSH2 0x100 EXP SWAP1 DIV PUSH1 0xFF AND PUSH1 0x3 DUP5 PUSH1 0x1 PUSH1 0x1 PUSH1 0x40 SHL SUB AND DUP2 SLOAD DUP2 LT PUSH2 0x2001 JUMPI PUSH2 0x2001 PUSH2 0x329C JUMP JUMPDEST SWAP1 PUSH0 MSTORE PUSH1 0x20 PUSH0 KECCAK256 SWAP1 PUSH1 0x8 MUL ADD PUSH1 0x2 ADD PUSH1 0x10 SWAP1 SLOAD SWAP1 PUSH2 0x100 EXP SWAP1 DIV PUSH1 0x1 PUSH1 0x1 PUSH1 0x80 SHL SUB AND NUMBER PUSH1 0x3 DUP7 PUSH1 0x1 PUSH1 0x1 PUSH1 0x40 SHL SUB AND DUP2 SLOAD DUP2 LT PUSH2 0x2041 JUMPI PUSH2 0x2041 PUSH2 0x329C JUMP JUMPDEST PUSH0 SWAP2 DUP3 MSTORE PUSH1 0x20 SWAP1 SWAP2 KECCAK256 PUSH1 0x8 SWAP1 SWAP2 MUL ADD SLOAD PUSH1 0x3 DUP1 SLOAD PUSH1 0x1 PUSH1 0x1 PUSH1 0x80 SHL SUB SWAP1 SWAP3 AND SWAP2 PUSH1 0x1 PUSH1 0x1 PUSH1 0x40 SHL SUB DUP10 AND SWAP1 DUP2 LT PUSH2 0x207A JUMPI PUSH2 0x207A PUSH2 0x329C JUMP JUMPDEST SWAP1 PUSH0 MSTORE PUSH1 0x20 PUSH0 KECCAK256 SWAP1 PUSH1 0x8 MUL ADD PUSH0 ADD PUSH1 0x10 SWAP1 SLOAD SWAP1 PUSH2 0x100 EXP SWAP1 DIV PUSH1 0x1 PUSH1 0x1 PUSH1 0x80 SHL SUB AND PUSH1 0x3 DUP9 PUSH1 0x1 PUSH1 0x1 PUSH1 0x40 SHL SUB AND DUP2 SLOAD DUP2 LT PUSH2 0x20B8 JUMPI PUSH2 0x20B8 PUSH2 0x329C JUMP JUMPDEST SWAP1 PUSH0 MSTORE PUSH1 0x20 PUSH0 KECCAK256 SWAP1 PUSH1 0x8 MUL ADD PUSH1 0x4 ADD PUSH0 SWAP1 SLOAD SWAP1 PUSH2 0x100 EXP SWAP1 DIV PUSH1 0x1 PUSH1 0x1 PUSH1 0xA0 SHL SUB AND PUSH1 0x3 DUP10 PUSH1 0x1 PUSH1 0x1 PUSH1 0x40 SHL SUB AND DUP2 SLOAD DUP2 LT PUSH2 0x20F6 JUMPI PUSH2 0x20F6 PUSH2 0x329C JUMP JUMPDEST PUSH0 SWAP2 DUP3 MSTORE PUSH1 0x20 SWAP2 DUP3 SWAP1 KECCAK256 PUSH1 0x8 SWAP2 SWAP1 SWAP2 MUL ADD PUSH1 0x3 ADD SLOAD PUSH1 0x40 DUP1 MLOAD PUSH1 0x1 PUSH1 0x1 PUSH1 0x40 SHL SUB SWAP11 SWAP1 SWAP11 AND DUP11 MSTORE PUSH1 0xFF SWAP9 SWAP1 SWAP9 AND SWAP2 DUP10 ADD SWAP2 SWAP1 SWAP2 MSTORE PUSH1 0x1 PUSH1 0x1 PUSH1 0x80 SHL SUB SWAP6 DUP7 AND DUP9 DUP9 ADD MSTORE PUSH1 0x60 DUP9 ADD SWAP5 SWAP1 SWAP5 MSTORE SWAP2 DUP5 AND PUSH1 0x80 DUP8 ADD MSTORE SWAP1 SWAP3 AND PUSH1 0xA0 DUP6 ADD MSTORE PUSH1 0x1 PUSH1 0x1 PUSH1 0xA0 SHL SUB SWAP2 DUP3 AND PUSH1 0xC0 DUP6 ADD MSTORE PUSH3 0x10000 SWAP1 DIV AND PUSH1 0xE0 DUP4 ADD MSTORE MLOAD SWAP1 DUP2 SWAP1 SUB PUSH2 0x100 ADD SWAP1 LOG1 SWAP7 SWAP6 POP POP POP POP POP POP JUMP JUMPDEST PUSH2 0x218A PUSH2 0x2727 JUMP JUMPDEST PUSH1 0x1 PUSH1 0x1 PUSH1 0xA0 SHL SUB DUP2 AND PUSH2 0x21B3 JUMPI PUSH1 0x40 MLOAD PUSH4 0x1E4FBDF7 PUSH1 0xE0 SHL DUP2 MSTORE PUSH0 PUSH1 0x4 DUP3 ADD MSTORE PUSH1 0x24 ADD PUSH2 0xC93 JUMP JUMPDEST PUSH2 0x21BC DUP2 PUSH2 0x2754 JUMP JUMPDEST POP JUMP JUMPDEST PUSH0 PUSH1 0x3 DUP3 PUSH1 0x1 PUSH1 0x1 PUSH1 0x40 SHL SUB AND DUP2 SLOAD DUP2 LT PUSH2 0x21DC JUMPI PUSH2 0x21DC PUSH2 0x329C JUMP JUMPDEST PUSH0 SWAP2 DUP3 MSTORE PUSH1 0x20 SWAP1 SWAP2 KECCAK256 PUSH1 0x8 SWAP1 SWAP2 MUL ADD PUSH1 0x3 ADD SLOAD PUSH2 0x100 SWAP1 DIV PUSH1 0xFF AND ISZERO PUSH2 0x2203 JUMPI PUSH1 0x1 PUSH2 0x1AE2 JUMP JUMPDEST PUSH0 SWAP3 SWAP2 POP POP JUMP JUMPDEST PUSH0 DUP1 PUSH2 0x2214 PUSH2 0x2ABF JUMP JUMPDEST PUSH0 DUP4 PUSH1 0x1 PUSH1 0x1 PUSH1 0x40 SHL SUB DUP2 GT ISZERO PUSH2 0x222D JUMPI PUSH2 0x222D PUSH2 0x2F46 JUMP JUMPDEST PUSH1 0x40 MLOAD SWAP1 DUP1 DUP3 MSTORE DUP1 PUSH1 0x20 MUL PUSH1 0x20 ADD DUP3 ADD PUSH1 0x40 MSTORE DUP1 ISZERO PUSH2 0x2256 JUMPI DUP2 PUSH1 0x20 ADD PUSH1 0x20 DUP3 MUL DUP1 CALLDATASIZE DUP4 CALLDATACOPY ADD SWAP1 POP JUMPDEST POP SWAP1 POP PUSH0 JUMPDEST PUSH1 0x1 PUSH1 0x1 PUSH1 0x40 SHL SUB DUP2 AND DUP6 GT ISZERO PUSH2 0x23E4 JUMPI PUSH2 0x239F DUP7 DUP7 DUP4 PUSH1 0x1 PUSH1 0x1 PUSH1 0x40 SHL SUB AND DUP2 DUP2 LT PUSH2 0x228A JUMPI PUSH2 0x228A PUSH2 0x329C JUMP JUMPDEST PUSH2 0x22A0 SWAP3 PUSH1 0x20 PUSH1 0xC0 SWAP1 SWAP3 MUL ADD SWAP1 DUP2 ADD SWAP2 POP PUSH2 0x358B JUMP JUMPDEST DUP8 DUP8 DUP5 PUSH1 0x1 PUSH1 0x1 PUSH1 0x40 SHL SUB AND DUP2 DUP2 LT PUSH2 0x22BB JUMPI PUSH2 0x22BB PUSH2 0x329C JUMP JUMPDEST SWAP1 POP PUSH1 0xC0 MUL ADD PUSH1 0x20 ADD PUSH1 0x20 DUP2 ADD SWAP1 PUSH2 0x22D3 SWAP2 SWAP1 PUSH2 0x358B JUMP JUMPDEST DUP9 DUP9 DUP6 PUSH1 0x1 PUSH1 0x1 PUSH1 0x40 SHL SUB AND DUP2 DUP2 LT PUSH2 0x22EE JUMPI PUSH2 0x22EE PUSH2 0x329C JUMP JUMPDEST SWAP1 POP PUSH1 0xC0 MUL ADD PUSH1 0x40 ADD PUSH1 0x20 DUP2 ADD SWAP1 PUSH2 0x2306 SWAP2 SWAP1 PUSH2 0x358B JUMP JUMPDEST DUP10 DUP10 DUP7 PUSH1 0x1 PUSH1 0x1 PUSH1 0x40 SHL SUB AND DUP2 DUP2 LT PUSH2 0x2321 JUMPI PUSH2 0x2321 PUSH2 0x329C JUMP JUMPDEST SWAP1 POP PUSH1 0xC0 MUL ADD PUSH1 0x60 ADD PUSH1 0x20 DUP2 ADD SWAP1 PUSH2 0x2339 SWAP2 SWAP1 PUSH2 0x31DE JUMP JUMPDEST DUP11 DUP11 DUP8 PUSH1 0x1 PUSH1 0x1 PUSH1 0x40 SHL SUB AND DUP2 DUP2 LT PUSH2 0x2354 JUMPI PUSH2 0x2354 PUSH2 0x329C JUMP JUMPDEST SWAP1 POP PUSH1 0xC0 MUL ADD PUSH1 0x80 ADD PUSH1 0x20 DUP2 ADD SWAP1 PUSH2 0x236C SWAP2 SWAP1 PUSH2 0x35A6 JUMP JUMPDEST DUP12 DUP12 DUP9 PUSH1 0x1 PUSH1 0x1 PUSH1 0x40 SHL SUB AND DUP2 DUP2 LT PUSH2 0x2387 JUMPI PUSH2 0x2387 PUSH2 0x329C JUMP JUMPDEST SWAP1 POP PUSH1 0xC0 MUL ADD PUSH1 0xA0 ADD PUSH1 0x20 DUP2 ADD SWAP1 PUSH2 0x694 SWAP2 SWAP1 PUSH2 0x35BF JUMP JUMPDEST DUP3 DUP3 PUSH1 0x1 PUSH1 0x1 PUSH1 0x40 SHL SUB AND DUP2 MLOAD DUP2 LT PUSH2 0x23BA JUMPI PUSH2 0x23BA PUSH2 0x329C JUMP JUMPDEST PUSH1 0x1 PUSH1 0x1 PUSH1 0x40 SHL SUB SWAP1 SWAP3 AND PUSH1 0x20 SWAP3 DUP4 MUL SWAP2 SWAP1 SWAP2 ADD SWAP1 SWAP2 ADD MSTORE DUP1 PUSH2 0x23DC DUP2 PUSH2 0x3566 JUMP JUMPDEST SWAP2 POP POP PUSH2 0x225B JUMP JUMPDEST POP MLOAD PUSH1 0x1 SWAP6 SWAP1 SWAP5 POP SWAP3 POP POP POP JUMP JUMPDEST PUSH0 DUP1 DUP4 PUSH2 0x23FE DUP2 PUSH2 0x2A1C JUMP JUMPDEST PUSH2 0x2406 PUSH2 0x2727 JUMP JUMPDEST PUSH2 0x240E PUSH2 0x27A5 JUMP JUMPDEST PUSH1 0x1 PUSH1 0x1 PUSH1 0xA0 SHL SUB DUP5 AND PUSH2 0x2465 JUMPI PUSH1 0x40 MLOAD PUSH4 0x21C0E831 PUSH1 0xE0 SHL DUP2 MSTORE PUSH1 0x20 PUSH1 0x4 DUP3 ADD DUP2 SWAP1 MSTORE PUSH1 0x24 DUP3 ADD MSTORE PUSH32 0x4E6F207472616E736665727320746F20746865207A65726F2061646472657373 PUSH1 0x44 DUP3 ADD MSTORE PUSH1 0x64 ADD PUSH2 0xC93 JUMP JUMPDEST PUSH0 PUSH1 0x3 DUP7 PUSH1 0x1 PUSH1 0x1 PUSH1 0x40 SHL SUB AND DUP2 SLOAD DUP2 LT PUSH2 0x2482 JUMPI PUSH2 0x2482 PUSH2 0x329C JUMP JUMPDEST PUSH0 SWAP2 DUP3 MSTORE PUSH1 0x20 DUP3 KECCAK256 PUSH1 0x1 PUSH1 0x8 SWAP1 SWAP3 MUL ADD ADD SLOAD PUSH1 0x3 DUP1 SLOAD PUSH1 0x1 PUSH1 0x1 PUSH1 0x80 SHL SUB SWAP1 SWAP3 AND SWAP4 POP SWAP1 PUSH1 0x1 PUSH1 0x1 PUSH1 0x40 SHL SUB DUP10 AND SWAP1 DUP2 LT PUSH2 0x24BF JUMPI PUSH2 0x24BF PUSH2 0x329C JUMP JUMPDEST PUSH0 SWAP2 DUP3 MSTORE PUSH1 0x20 SWAP1 SWAP2 KECCAK256 PUSH1 0x8 SWAP1 SWAP2 MUL ADD PUSH1 0x1 ADD DUP1 SLOAD PUSH1 0x1 PUSH1 0x1 PUSH1 0x80 SHL SUB NOT AND PUSH1 0x1 PUSH1 0x1 PUSH1 0x80 SHL SUB SWAP3 SWAP1 SWAP3 AND SWAP2 SWAP1 SWAP2 OR SWAP1 SSTORE PUSH1 0x40 MLOAD PUSH1 0x1 PUSH1 0x1 PUSH1 0xA0 SHL SUB DUP7 AND DUP1 BALANCE SWAP2 DUP4 SWAP1 PUSH0 PUSH1 0x40 MLOAD DUP1 DUP4 SUB DUP2 DUP6 DUP8 GAS CALL SWAP3 POP POP POP RETURNDATASIZE DUP1 PUSH0 DUP2 EQ PUSH2 0x253B JUMPI PUSH1 0x40 MLOAD SWAP2 POP PUSH1 0x1F NOT PUSH1 0x3F RETURNDATASIZE ADD AND DUP3 ADD PUSH1 0x40 MSTORE RETURNDATASIZE DUP3 MSTORE RETURNDATASIZE PUSH0 PUSH1 0x20 DUP5 ADD RETURNDATACOPY PUSH2 0x2540 JUMP JUMPDEST PUSH1 0x60 SWAP2 POP JUMPDEST POP SWAP1 SWAP6 POP PUSH2 0x255A SWAP1 POP DUP2 PUSH1 0x1 PUSH1 0x1 PUSH1 0xA0 SHL SUB DUP9 AND BALANCE PUSH2 0x3302 JUMP JUMPDEST SWAP4 POP PUSH1 0x1 DUP6 ISZERO ISZERO EQ DUP1 ISZERO PUSH2 0x2576 JUMPI POP DUP2 DUP5 PUSH1 0x1 PUSH1 0x1 PUSH1 0x80 SHL SUB AND EQ JUMPDEST PUSH2 0x25AD JUMPI PUSH1 0x40 MLOAD PUSH4 0x606E2623 PUSH1 0xE0 SHL DUP2 MSTORE DUP6 ISZERO ISZERO PUSH1 0x4 DUP3 ADD MSTORE PUSH1 0x1 PUSH1 0x1 PUSH1 0x80 SHL SUB DUP6 AND PUSH1 0x24 DUP3 ADD MSTORE PUSH1 0x44 DUP2 ADD DUP4 SWAP1 MSTORE PUSH1 0x64 ADD PUSH2 0xC93 JUMP JUMPDEST POP POP PUSH2 0x25B8 PUSH1 0x1 PUSH0 SSTORE JUMP JUMPDEST POP SWAP3 POP SWAP3 SWAP1 POP JUMP JUMPDEST PUSH0 DUP1 SHL PUSH1 0x3 DUP3 PUSH1 0x1 PUSH1 0x1 PUSH1 0x40 SHL SUB AND DUP2 SLOAD DUP2 LT PUSH2 0x25DF JUMPI PUSH2 0x25DF PUSH2 0x329C JUMP JUMPDEST SWAP1 PUSH0 MSTORE PUSH1 0x20 PUSH0 KECCAK256 SWAP1 PUSH1 0x8 MUL ADD PUSH1 0x5 ADD SLOAD EQ PUSH2 0x21BC JUMPI PUSH1 0x40 MLOAD PUSH4 0xB2084999 PUSH1 0xE0 SHL DUP2 MSTORE PUSH1 0x4 ADD PUSH1 0x40 MLOAD DUP1 SWAP2 SUB SWAP1 REVERT JUMPDEST CALLER PUSH1 0x1 PUSH1 0x1 PUSH1 0xA0 SHL SUB AND PUSH1 0x3 DUP3 PUSH1 0x1 PUSH1 0x1 PUSH1 0x40 SHL SUB AND DUP2 SLOAD DUP2 LT PUSH2 0x2633 JUMPI PUSH2 0x2633 PUSH2 0x329C JUMP JUMPDEST PUSH0 SWAP2 DUP3 MSTORE PUSH1 0x20 SWAP1 SWAP2 KECCAK256 PUSH1 0x4 PUSH1 0x8 SWAP1 SWAP3 MUL ADD ADD SLOAD PUSH1 0x1 PUSH1 0x1 PUSH1 0xA0 SHL SUB AND EQ DUP1 ISZERO SWAP1 PUSH2 0x26CE JUMPI POP CALLER PUSH1 0x1 PUSH1 0x1 PUSH1 0xA0 SHL SUB AND ADDRESS PUSH1 0x1 PUSH1 0x1 PUSH1 0xA0 SHL SUB AND PUSH4 0x8DA5CB5B PUSH1 0x40 MLOAD DUP2 PUSH4 0xFFFFFFFF AND PUSH1 0xE0 SHL DUP2 MSTORE PUSH1 0x4 ADD PUSH1 0x20 PUSH1 0x40 MLOAD DUP1 DUP4 SUB DUP2 DUP7 GAS STATICCALL ISZERO DUP1 ISZERO PUSH2 0x269E JUMPI RETURNDATASIZE PUSH0 DUP1 RETURNDATACOPY RETURNDATASIZE PUSH0 REVERT JUMPDEST POP POP POP POP PUSH1 0x40 MLOAD RETURNDATASIZE PUSH1 0x1F NOT PUSH1 0x1F DUP3 ADD AND DUP3 ADD DUP1 PUSH1 0x40 MSTORE POP DUP2 ADD SWAP1 PUSH2 0x26C2 SWAP2 SWAP1 PUSH2 0x35D8 JUMP JUMPDEST PUSH1 0x1 PUSH1 0x1 PUSH1 0xA0 SHL SUB AND EQ ISZERO JUMPDEST ISZERO PUSH2 0x21BC JUMPI PUSH1 0x40 MLOAD PUSH4 0x32DB94D1 PUSH1 0xE2 SHL DUP2 MSTORE PUSH1 0x4 ADD PUSH1 0x40 MLOAD DUP1 SWAP2 SUB SWAP1 REVERT JUMPDEST PUSH2 0x26F5 DUP2 PUSH2 0x21BF JUMP JUMPDEST PUSH2 0x21BC JUMPI PUSH1 0x40 MLOAD PUSH4 0x8F86C6B3 PUSH1 0xE0 SHL DUP2 MSTORE PUSH1 0x4 ADD PUSH1 0x40 MLOAD DUP1 SWAP2 SUB SWAP1 REVERT JUMPDEST PUSH0 DUP3 PUSH2 0x271E DUP6 DUP5 PUSH2 0x2C46 JUMP JUMPDEST EQ SWAP5 SWAP4 POP POP POP POP JUMP JUMPDEST PUSH1 0x1 SLOAD PUSH1 0x1 PUSH1 0x1 PUSH1 0xA0 SHL SUB AND CALLER EQ PUSH2 0xC03 JUMPI PUSH1 0x40 MLOAD PUSH4 0x118CDAA7 PUSH1 0xE0 SHL DUP2 MSTORE CALLER PUSH1 0x4 DUP3 ADD MSTORE PUSH1 0x24 ADD PUSH2 0xC93 JUMP JUMPDEST PUSH1 0x1 DUP1 SLOAD PUSH1 0x1 PUSH1 0x1 PUSH1 0xA0 SHL SUB DUP4 DUP2 AND PUSH1 0x1 PUSH1 0x1 PUSH1 0xA0 SHL SUB NOT DUP4 AND DUP2 OR SWAP1 SWAP4 SSTORE PUSH1 0x40 MLOAD SWAP2 AND SWAP2 SWAP1 DUP3 SWAP1 PUSH32 0x8BE0079C531659141344CD1FD0A4F28419497F9722A3DAAFE3B4186F6B6457E0 SWAP1 PUSH0 SWAP1 LOG3 POP POP JUMP JUMPDEST PUSH1 0x2 PUSH0 SLOAD SUB PUSH2 0x27C7 JUMPI PUSH1 0x40 MLOAD PUSH4 0x3EE5AEB5 PUSH1 0xE0 SHL DUP2 MSTORE PUSH1 0x4 ADD PUSH1 0x40 MLOAD DUP1 SWAP2 SUB SWAP1 REVERT JUMPDEST PUSH1 0x2 PUSH0 SSTORE JUMP JUMPDEST CALLER PUSH1 0x1 PUSH1 0x1 PUSH1 0xA0 SHL SUB AND PUSH1 0x3 DUP3 PUSH1 0x1 PUSH1 0x1 PUSH1 0x40 SHL SUB AND DUP2 SLOAD DUP2 LT PUSH2 0x27F3 JUMPI PUSH2 0x27F3 PUSH2 0x329C JUMP JUMPDEST PUSH0 SWAP2 DUP3 MSTORE PUSH1 0x20 SWAP1 SWAP2 KECCAK256 PUSH1 0x4 PUSH1 0x8 SWAP1 SWAP3 MUL ADD ADD SLOAD PUSH1 0x1 PUSH1 0x1 PUSH1 0xA0 SHL SUB AND EQ DUP1 PUSH2 0x285A JUMPI POP ORIGIN PUSH1 0x1 PUSH1 0x1 PUSH1 0xA0 SHL SUB AND PUSH1 0x3 DUP3 PUSH1 0x1 PUSH1 0x1 PUSH1 0x40 SHL SUB AND DUP2 SLOAD DUP2 LT PUSH2 0x283C JUMPI PUSH2 0x283C PUSH2 0x329C JUMP JUMPDEST PUSH0 SWAP2 DUP3 MSTORE PUSH1 0x20 SWAP1 SWAP2 KECCAK256 PUSH1 0x4 PUSH1 0x8 SWAP1 SWAP3 MUL ADD ADD SLOAD PUSH1 0x1 PUSH1 0x1 PUSH1 0xA0 SHL SUB AND EQ JUMPDEST ISZERO PUSH2 0x21BC JUMPI PUSH1 0x3 DUP2 PUSH1 0x1 PUSH1 0x1 PUSH1 0x40 SHL SUB AND DUP2 SLOAD DUP2 LT PUSH2 0x287B JUMPI PUSH2 0x287B PUSH2 0x329C JUMP JUMPDEST PUSH0 SWAP2 DUP3 MSTORE PUSH1 0x20 SWAP1 SWAP2 KECCAK256 PUSH1 0x4 PUSH1 0x8 SWAP1 SWAP3 MUL ADD DUP2 ADD SLOAD PUSH1 0x40 MLOAD PUSH4 0x2AC54BAB PUSH1 0xE1 SHL DUP2 MSTORE PUSH1 0x1 PUSH1 0x1 PUSH1 0xA0 SHL SUB SWAP1 SWAP2 AND SWAP2 DUP2 ADD SWAP2 SWAP1 SWAP2 MSTORE CALLER PUSH1 0x24 DUP3 ADD MSTORE ORIGIN PUSH1 0x44 DUP3 ADD MSTORE PUSH1 0x64 ADD PUSH2 0xC93 JUMP JUMPDEST PUSH1 0x3 DUP3 PUSH1 0x1 PUSH1 0x1 PUSH1 0x40 SHL SUB AND DUP2 SLOAD DUP2 LT PUSH2 0x28DE JUMPI PUSH2 0x28DE PUSH2 0x329C JUMP JUMPDEST PUSH0 SWAP2 DUP3 MSTORE PUSH1 0x20 DUP1 DUP4 KECCAK256 PUSH1 0x1 PUSH1 0x1 PUSH1 0xA0 SHL SUB DUP6 AND DUP5 MSTORE PUSH1 0x7 PUSH1 0x8 SWAP1 SWAP4 MUL ADD SWAP2 SWAP1 SWAP2 ADD SWAP1 MSTORE PUSH1 0x40 SWAP1 KECCAK256 SLOAD ISZERO PUSH2 0x292F JUMPI PUSH1 0x40 MLOAD PUSH4 0x322B76D3 PUSH1 0xE2 SHL DUP2 MSTORE PUSH1 0x1 PUSH1 0x1 PUSH1 0x40 SHL SUB DUP4 AND PUSH1 0x4 DUP3 ADD MSTORE PUSH1 0x24 ADD PUSH2 0xC93 JUMP JUMPDEST POP POP JUMP JUMPDEST PUSH1 0x60 PUSH0 DUP6 DUP6 DUP6 DUP6 PUSH1 0x40 MLOAD PUSH1 0x20 ADD PUSH2 0x294D SWAP5 SWAP4 SWAP3 SWAP2 SWAP1 PUSH2 0x3018 JUMP JUMPDEST PUSH1 0x40 DUP1 MLOAD DUP1 DUP4 SUB PUSH1 0x1F NOT ADD DUP2 MSTORE SWAP2 SWAP1 MSTORE SWAP7 SWAP6 POP POP POP POP POP POP JUMP JUMPDEST PUSH1 0x3 DUP2 PUSH1 0x1 PUSH1 0x1 PUSH1 0x40 SHL SUB AND DUP2 SLOAD DUP2 LT PUSH2 0x2983 JUMPI PUSH2 0x2983 PUSH2 0x329C JUMP JUMPDEST PUSH0 SWAP2 DUP3 MSTORE PUSH1 0x20 SWAP1 SWAP2 KECCAK256 PUSH1 0x8 SWAP1 SWAP2 MUL ADD SLOAD PUSH1 0x1 PUSH1 0x1 PUSH1 0x80 SHL SUB AND NUMBER GT ISZERO PUSH2 0x21BC JUMPI PUSH1 0x40 MLOAD PUSH4 0x3A5F7B57 PUSH1 0xE0 SHL DUP2 MSTORE PUSH1 0x4 ADD PUSH1 0x40 MLOAD DUP1 SWAP2 SUB SWAP1 REVERT JUMPDEST PUSH0 PUSH1 0x1 PUSH1 0x1 PUSH1 0xA0 SHL SUB AND PUSH1 0x3 DUP3 PUSH1 0x1 PUSH1 0x1 PUSH1 0x40 SHL SUB AND DUP2 SLOAD DUP2 LT PUSH2 0x29E2 JUMPI PUSH2 0x29E2 PUSH2 0x329C JUMP JUMPDEST PUSH0 SWAP2 DUP3 MSTORE PUSH1 0x20 SWAP1 SWAP2 KECCAK256 PUSH1 0x4 PUSH1 0x8 SWAP1 SWAP3 MUL ADD ADD SLOAD PUSH1 0x1 PUSH1 0x1 PUSH1 0xA0 SHL SUB AND SUB PUSH2 0x21BC JUMPI PUSH1 0x40 MLOAD PUSH4 0x16A9BC57 PUSH1 0xE0 SHL DUP2 MSTORE PUSH1 0x4 ADD PUSH1 0x40 MLOAD DUP1 SWAP2 SUB SWAP1 REVERT JUMPDEST PUSH1 0x3 DUP2 PUSH1 0x1 PUSH1 0x1 PUSH1 0x40 SHL SUB AND DUP2 SLOAD DUP2 LT PUSH2 0x2A38 JUMPI PUSH2 0x2A38 PUSH2 0x329C JUMP JUMPDEST PUSH0 SWAP2 DUP3 MSTORE PUSH1 0x20 SWAP1 SWAP2 KECCAK256 PUSH1 0x8 SWAP1 SWAP2 MUL ADD SLOAD PUSH1 0x1 PUSH1 0x80 SHL SWAP1 DIV PUSH1 0x1 PUSH1 0x1 PUSH1 0x80 SHL SUB AND NUMBER LT DUP1 ISZERO SWAP1 PUSH2 0x2A9E JUMPI POP PUSH1 0x3 DUP2 PUSH1 0x1 PUSH1 0x1 PUSH1 0x40 SHL SUB AND DUP2 SLOAD DUP2 LT PUSH2 0x2A7E JUMPI PUSH2 0x2A7E PUSH2 0x329C JUMP JUMPDEST PUSH0 SWAP2 DUP3 MSTORE PUSH1 0x20 SWAP1 SWAP2 KECCAK256 PUSH1 0x3 PUSH1 0x8 SWAP1 SWAP3 MUL ADD ADD SLOAD PUSH1 0xFF PUSH2 0x100 SWAP1 SWAP2 DIV AND PUSH1 0x1 EQ JUMPDEST PUSH2 0x21BC JUMPI NUMBER PUSH1 0x3 DUP3 PUSH1 0x1 PUSH1 0x1 PUSH1 0x40 SHL SUB AND DUP2 SLOAD DUP2 LT PUSH2 0x1B95 JUMPI PUSH2 0x1B95 PUSH2 0x329C JUMP JUMPDEST ADDRESS PUSH1 0x1 PUSH1 0x1 PUSH1 0xA0 SHL SUB AND PUSH4 0x8DA5CB5B PUSH1 0x40 MLOAD DUP2 PUSH4 0xFFFFFFFF AND PUSH1 0xE0 SHL DUP2 MSTORE PUSH1 0x4 ADD PUSH1 0x20 PUSH1 0x40 MLOAD DUP1 DUP4 SUB DUP2 DUP7 GAS STATICCALL ISZERO DUP1 ISZERO PUSH2 0x2AFB JUMPI RETURNDATASIZE PUSH0 DUP1 RETURNDATACOPY RETURNDATASIZE PUSH0 REVERT JUMPDEST POP POP POP POP PUSH1 0x40 MLOAD RETURNDATASIZE PUSH1 0x1F NOT PUSH1 0x1F DUP3 ADD AND DUP3 ADD DUP1 PUSH1 0x40 MSTORE POP DUP2 ADD SWAP1 PUSH2 0x2B1F SWAP2 SWAP1 PUSH2 0x35D8 JUMP JUMPDEST PUSH1 0x1 PUSH1 0x1 PUSH1 0xA0 SHL SUB AND ORIGIN PUSH1 0x1 PUSH1 0x1 PUSH1 0xA0 SHL SUB AND EQ PUSH2 0xC03 JUMPI ADDRESS PUSH1 0x1 PUSH1 0x1 PUSH1 0xA0 SHL SUB AND PUSH4 0x8DA5CB5B PUSH1 0x40 MLOAD DUP2 PUSH4 0xFFFFFFFF AND PUSH1 0xE0 SHL DUP2 MSTORE PUSH1 0x4 ADD PUSH1 0x20 PUSH1 0x40 MLOAD DUP1 DUP4 SUB DUP2 DUP7 GAS STATICCALL ISZERO DUP1 ISZERO PUSH2 0x2B73 JUMPI RETURNDATASIZE PUSH0 DUP1 RETURNDATACOPY RETURNDATASIZE PUSH0 REVERT JUMPDEST POP POP POP POP PUSH1 0x40 MLOAD RETURNDATASIZE PUSH1 0x1F NOT PUSH1 0x1F DUP3 ADD AND DUP3 ADD DUP1 PUSH1 0x40 MSTORE POP DUP2 ADD SWAP1 PUSH2 0x2B97 SWAP2 SWAP1 PUSH2 0x35D8 JUMP JUMPDEST PUSH1 0x1 PUSH1 0x1 PUSH1 0xA0 SHL SUB AND CALLER PUSH1 0x1 PUSH1 0x1 PUSH1 0xA0 SHL SUB AND EQ PUSH2 0xC03 JUMPI CALLER ORIGIN ADDRESS PUSH1 0x1 PUSH1 0x1 PUSH1 0xA0 SHL SUB AND PUSH4 0x8DA5CB5B PUSH1 0x40 MLOAD DUP2 PUSH4 0xFFFFFFFF AND PUSH1 0xE0 SHL DUP2 MSTORE PUSH1 0x4 ADD PUSH1 0x20 PUSH1 0x40 MLOAD DUP1 DUP4 SUB DUP2 DUP7 GAS STATICCALL ISZERO DUP1 ISZERO PUSH2 0x2BED JUMPI RETURNDATASIZE PUSH0 DUP1 RETURNDATACOPY RETURNDATASIZE PUSH0 REVERT JUMPDEST POP POP POP POP PUSH1 0x40 MLOAD RETURNDATASIZE PUSH1 0x1F NOT PUSH1 0x1F DUP3 ADD AND DUP3 ADD DUP1 PUSH1 0x40 MSTORE POP DUP2 ADD SWAP1 PUSH2 0x2C11 SWAP2 SWAP1 PUSH2 0x35D8 JUMP JUMPDEST PUSH1 0x40 MLOAD PUSH4 0x121AABD5 PUSH1 0xE0 SHL DUP2 MSTORE PUSH1 0x1 PUSH1 0x1 PUSH1 0xA0 SHL SUB SWAP4 DUP5 AND PUSH1 0x4 DUP3 ADD MSTORE SWAP2 DUP4 AND PUSH1 0x24 DUP4 ADD MSTORE SWAP1 SWAP2 AND PUSH1 0x44 DUP3 ADD MSTORE PUSH1 0x64 ADD PUSH2 0xC93 JUMP JUMPDEST PUSH0 DUP2 DUP2 JUMPDEST DUP5 MLOAD DUP2 LT ISZERO PUSH2 0x2C8A JUMPI PUSH2 0x2C76 DUP3 DUP7 DUP4 DUP2 MLOAD DUP2 LT PUSH2 0x2C69 JUMPI PUSH2 0x2C69 PUSH2 0x329C JUMP JUMPDEST PUSH1 0x20 MUL PUSH1 0x20 ADD ADD MLOAD PUSH2 0x2C92 JUMP JUMPDEST SWAP2 POP DUP1 PUSH2 0x2C82 DUP2 PUSH2 0x3508 JUMP JUMPDEST SWAP2 POP POP PUSH2 0x2C4A JUMP JUMPDEST POP SWAP4 SWAP3 POP POP POP JUMP JUMPDEST PUSH0 DUP2 DUP4 LT PUSH2 0x2CAC JUMPI PUSH0 DUP3 DUP2 MSTORE PUSH1 0x20 DUP5 SWAP1 MSTORE PUSH1 0x40 SWAP1 KECCAK256 PUSH2 0x2CBA JUMP JUMPDEST PUSH0 DUP4 DUP2 MSTORE PUSH1 0x20 DUP4 SWAP1 MSTORE PUSH1 0x40 SWAP1 KECCAK256 JUMPDEST SWAP4 SWAP3 POP POP POP JUMP JUMPDEST PUSH0 PUSH1 0x20 DUP3 DUP5 SUB SLT ISZERO PUSH2 0x2CD1 JUMPI PUSH0 DUP1 REVERT JUMPDEST POP CALLDATALOAD SWAP2 SWAP1 POP JUMP JUMPDEST DUP1 CALLDATALOAD PUSH1 0x1 PUSH1 0x1 PUSH1 0x40 SHL SUB DUP2 AND DUP2 EQ PUSH2 0x2CEE JUMPI PUSH0 DUP1 REVERT JUMPDEST SWAP2 SWAP1 POP JUMP JUMPDEST PUSH0 PUSH1 0x20 DUP3 DUP5 SUB SLT ISZERO PUSH2 0x2D03 JUMPI PUSH0 DUP1 REVERT JUMPDEST PUSH2 0x2CBA DUP3 PUSH2 0x2CD8 JUMP JUMPDEST PUSH0 DUP1 PUSH1 0x40 DUP4 DUP6 SUB SLT ISZERO PUSH2 0x2D1D JUMPI PUSH0 DUP1 REVERT JUMPDEST DUP3 CALLDATALOAD SWAP2 POP PUSH2 0x2D2D PUSH1 0x20 DUP5 ADD PUSH2 0x2CD8 JUMP JUMPDEST SWAP1 POP SWAP3 POP SWAP3 SWAP1 POP JUMP JUMPDEST PUSH0 DUP1 DUP4 PUSH1 0x1F DUP5 ADD SLT PUSH2 0x2D46 JUMPI PUSH0 DUP1 REVERT JUMPDEST POP DUP2 CALLDATALOAD PUSH1 0x1 PUSH1 0x1 PUSH1 0x40 SHL SUB DUP2 GT ISZERO PUSH2 0x2D5C JUMPI PUSH0 DUP1 REVERT JUMPDEST PUSH1 0x20 DUP4 ADD SWAP2 POP DUP4 PUSH1 0x20 DUP3 PUSH1 0x5 SHL DUP6 ADD ADD GT ISZERO PUSH2 0x1A01 JUMPI PUSH0 DUP1 REVERT JUMPDEST PUSH0 DUP1 PUSH0 DUP1 PUSH1 0x60 DUP6 DUP8 SUB SLT ISZERO PUSH2 0x2D89 JUMPI PUSH0 DUP1 REVERT JUMPDEST DUP5 CALLDATALOAD PUSH1 0x1 PUSH1 0x1 PUSH1 0x40 SHL SUB DUP2 GT ISZERO PUSH2 0x2D9E JUMPI PUSH0 DUP1 REVERT JUMPDEST PUSH2 0x2DAA DUP8 DUP3 DUP9 ADD PUSH2 0x2D36 JUMP JUMPDEST SWAP1 SWAP9 SWAP1 SWAP8 POP PUSH1 0x20 DUP8 ADD CALLDATALOAD SWAP7 PUSH1 0x40 ADD CALLDATALOAD SWAP6 POP SWAP4 POP POP POP POP JUMP JUMPDEST PUSH0 DUP1 PUSH0 PUSH1 0x60 DUP5 DUP7 SUB SLT ISZERO PUSH2 0x2DD4 JUMPI PUSH0 DUP1 REVERT JUMPDEST PUSH2 0x2DDD DUP5 PUSH2 0x2CD8 JUMP JUMPDEST SWAP6 PUSH1 0x20 DUP6 ADD CALLDATALOAD SWAP6 POP PUSH1 0x40 SWAP1 SWAP5 ADD CALLDATALOAD SWAP4 SWAP3 POP POP POP JUMP JUMPDEST PUSH1 0x1 PUSH1 0x1 PUSH1 0x40 SHL SUB DUP5 AND DUP2 MSTORE PUSH0 PUSH1 0x20 PUSH1 0x60 DUP2 DUP5 ADD MSTORE DUP5 MLOAD DUP1 PUSH1 0x60 DUP6 ADD MSTORE PUSH0 JUMPDEST DUP2 DUP2 LT ISZERO PUSH2 0x2E2D JUMPI DUP7 DUP2 ADD DUP4 ADD MLOAD DUP6 DUP3 ADD PUSH1 0x80 ADD MSTORE DUP3 ADD PUSH2 0x2E11 JUMP JUMPDEST POP PUSH0 PUSH1 0x80 DUP3 DUP7 ADD ADD MSTORE PUSH1 0x80 PUSH1 0x1F NOT PUSH1 0x1F DUP4 ADD AND DUP6 ADD ADD SWAP3 POP POP POP DUP3 PUSH1 0x40 DUP4 ADD MSTORE SWAP5 SWAP4 POP POP POP POP JUMP JUMPDEST PUSH1 0x1 PUSH1 0x1 PUSH1 0x80 SHL SUB DUP2 AND DUP2 EQ PUSH2 0x21BC JUMPI PUSH0 DUP1 REVERT JUMPDEST PUSH0 DUP1 PUSH0 DUP1 PUSH0 PUSH1 0x80 DUP7 DUP9 SUB SLT ISZERO PUSH2 0x2E7D JUMPI PUSH0 DUP1 REVERT JUMPDEST PUSH2 0x2E86 DUP7 PUSH2 0x2CD8 JUMP JUMPDEST SWAP5 POP PUSH1 0x20 DUP7 ADD CALLDATALOAD PUSH1 0x1 PUSH1 0x1 PUSH1 0x40 SHL SUB DUP2 GT ISZERO PUSH2 0x2EA0 JUMPI PUSH0 DUP1 REVERT JUMPDEST PUSH2 0x2EAC DUP9 DUP3 DUP10 ADD PUSH2 0x2D36 JUMP JUMPDEST SWAP1 SWAP6 POP SWAP4 POP POP PUSH1 0x40 DUP7 ADD CALLDATALOAD PUSH2 0x2EC0 DUP2 PUSH2 0x2E55 JUMP JUMPDEST SWAP5 SWAP8 SWAP4 SWAP7 POP SWAP2 SWAP5 PUSH1 0x60 ADD CALLDATALOAD SWAP3 SWAP2 POP POP JUMP JUMPDEST PUSH1 0x20 DUP1 DUP3 MSTORE DUP3 MLOAD DUP3 DUP3 ADD DUP2 SWAP1 MSTORE PUSH0 SWAP2 SWAP1 PUSH1 0x40 SWAP1 DUP2 DUP6 ADD SWAP1 DUP7 DUP5 ADD DUP6 JUMPDEST DUP3 DUP2 LT ISZERO PUSH2 0x2F39 JUMPI DUP2 MLOAD DUP1 MLOAD PUSH1 0x1 PUSH1 0x1 PUSH1 0x80 SHL SUB AND DUP6 MSTORE DUP7 DUP2 ADD MLOAD DUP8 DUP7 ADD MSTORE DUP6 DUP2 ADD MLOAD PUSH1 0x1 PUSH1 0x1 PUSH1 0xA0 SHL SUB AND DUP7 DUP7 ADD MSTORE PUSH1 0x60 SWAP1 DUP2 ADD MLOAD SWAP1 DUP6 ADD MSTORE PUSH1 0x80 SWAP1 SWAP4 ADD SWAP3 SWAP1 DUP6 ADD SWAP1 PUSH1 0x1 ADD PUSH2 0x2EED JUMP JUMPDEST POP SWAP2 SWAP8 SWAP7 POP POP POP POP POP POP POP JUMP JUMPDEST PUSH4 0x4E487B71 PUSH1 0xE0 SHL PUSH0 MSTORE PUSH1 0x41 PUSH1 0x4 MSTORE PUSH1 0x24 PUSH0 REVERT JUMPDEST PUSH1 0x40 MLOAD PUSH1 0x1F DUP3 ADD PUSH1 0x1F NOT AND DUP2 ADD PUSH1 0x1 PUSH1 0x1 PUSH1 0x40 SHL SUB DUP2 GT DUP3 DUP3 LT OR ISZERO PUSH2 0x2F82 JUMPI PUSH2 0x2F82 PUSH2 0x2F46 JUMP JUMPDEST PUSH1 0x40 MSTORE SWAP2 SWAP1 POP JUMP JUMPDEST PUSH0 PUSH1 0x20 DUP1 DUP4 DUP6 SUB SLT ISZERO PUSH2 0x2F9B JUMPI PUSH0 DUP1 REVERT JUMPDEST DUP3 CALLDATALOAD PUSH1 0x1 PUSH1 0x1 PUSH1 0x40 SHL SUB DUP1 DUP3 GT ISZERO PUSH2 0x2FB1 JUMPI PUSH0 DUP1 REVERT JUMPDEST DUP2 DUP6 ADD SWAP2 POP DUP6 PUSH1 0x1F DUP4 ADD SLT PUSH2 0x2FC4 JUMPI PUSH0 DUP1 REVERT JUMPDEST DUP2 CALLDATALOAD DUP2 DUP2 GT ISZERO PUSH2 0x2FD6 JUMPI PUSH2 0x2FD6 PUSH2 0x2F46 JUMP JUMPDEST PUSH2 0x2FE8 PUSH1 0x1F DUP3 ADD PUSH1 0x1F NOT AND DUP6 ADD PUSH2 0x2F5A JUMP JUMPDEST SWAP2 POP DUP1 DUP3 MSTORE DUP7 DUP5 DUP3 DUP6 ADD ADD GT ISZERO PUSH2 0x2FFD JUMPI PUSH0 DUP1 REVERT JUMPDEST DUP1 DUP5 DUP5 ADD DUP6 DUP5 ADD CALLDATACOPY PUSH0 SWAP1 DUP3 ADD SWAP1 SWAP4 ADD SWAP3 SWAP1 SWAP3 MSTORE POP SWAP4 SWAP3 POP POP POP JUMP JUMPDEST PUSH1 0x1 PUSH1 0x1 PUSH1 0xA0 SHL SUB SWAP5 SWAP1 SWAP5 AND DUP5 MSTORE PUSH1 0x20 DUP5 ADD SWAP3 SWAP1 SWAP3 MSTORE PUSH1 0x1 PUSH1 0x1 PUSH1 0x80 SHL SUB AND PUSH1 0x40 DUP4 ADD MSTORE PUSH1 0x60 DUP3 ADD MSTORE PUSH1 0x80 ADD SWAP1 JUMP JUMPDEST PUSH1 0x1 PUSH1 0x1 PUSH1 0xA0 SHL SUB DUP2 AND DUP2 EQ PUSH2 0x21BC JUMPI PUSH0 DUP1 REVERT JUMPDEST DUP1 CALLDATALOAD PUSH2 0x2CEE DUP2 PUSH2 0x3047 JUMP JUMPDEST PUSH0 DUP1 PUSH1 0x40 DUP4 DUP6 SUB SLT ISZERO PUSH2 0x3077 JUMPI PUSH0 DUP1 REVERT JUMPDEST DUP3 CALLDATALOAD PUSH1 0x1 PUSH1 0x1 PUSH1 0x40 SHL SUB DUP1 DUP3 GT ISZERO PUSH2 0x308D JUMPI PUSH0 DUP1 REVERT JUMPDEST DUP2 DUP6 ADD SWAP2 POP DUP6 PUSH1 0x1F DUP4 ADD SLT PUSH2 0x30A0 JUMPI PUSH0 DUP1 REVERT JUMPDEST DUP2 CALLDATALOAD PUSH1 0x20 DUP3 DUP3 GT ISZERO PUSH2 0x30B4 JUMPI PUSH2 0x30B4 PUSH2 0x2F46 JUMP JUMPDEST DUP2 PUSH1 0x5 SHL SWAP3 POP PUSH2 0x30C5 DUP2 DUP5 ADD PUSH2 0x2F5A JUMP JUMPDEST DUP3 DUP2 MSTORE SWAP3 DUP5 ADD DUP2 ADD SWAP3 DUP2 DUP2 ADD SWAP1 DUP10 DUP6 GT ISZERO PUSH2 0x30DE JUMPI PUSH0 DUP1 REVERT JUMPDEST SWAP5 DUP3 ADD SWAP5 JUMPDEST DUP5 DUP7 LT ISZERO PUSH2 0x3103 JUMPI PUSH2 0x30F4 DUP7 PUSH2 0x2CD8 JUMP JUMPDEST DUP3 MSTORE SWAP5 DUP3 ADD SWAP5 SWAP1 DUP3 ADD SWAP1 PUSH2 0x30E3 JUMP JUMPDEST SWAP7 POP PUSH2 0x3112 SWAP1 POP DUP8 DUP3 ADD PUSH2 0x305B JUMP JUMPDEST SWAP5 POP POP POP POP POP SWAP3 POP SWAP3 SWAP1 POP JUMP JUMPDEST PUSH0 DUP1 PUSH1 0x40 DUP4 DUP6 SUB SLT ISZERO PUSH2 0x3130 JUMPI PUSH0 DUP1 REVERT JUMPDEST PUSH2 0x3139 DUP4 PUSH2 0x2CD8 JUMP JUMPDEST SWAP5 PUSH1 0x20 SWAP4 SWAP1 SWAP4 ADD CALLDATALOAD SWAP4 POP POP POP JUMP JUMPDEST DUP1 CALLDATALOAD PUSH1 0xFF DUP2 AND DUP2 EQ PUSH2 0x2CEE JUMPI PUSH0 DUP1 REVERT JUMPDEST DUP1 CALLDATALOAD DUP1 ISZERO ISZERO DUP2 EQ PUSH2 0x2CEE JUMPI PUSH0 DUP1 REVERT JUMPDEST PUSH0 DUP1 PUSH0 DUP1 PUSH0 DUP1 PUSH1 0xC0 DUP8 DUP10 SUB SLT ISZERO PUSH2 0x317B JUMPI PUSH0 DUP1 REVERT JUMPDEST DUP7 CALLDATALOAD PUSH2 0x3186 DUP2 PUSH2 0x2E55 JUMP JUMPDEST SWAP6 POP PUSH1 0x20 DUP8 ADD CALLDATALOAD PUSH2 0x3196 DUP2 PUSH2 0x2E55 JUMP JUMPDEST SWAP5 POP PUSH1 0x40 DUP8 ADD CALLDATALOAD PUSH2 0x31A6 DUP2 PUSH2 0x2E55 JUMP JUMPDEST SWAP4 POP PUSH1 0x60 DUP8 ADD CALLDATALOAD PUSH2 0x31B6 DUP2 PUSH2 0x3047 JUMP JUMPDEST SWAP3 POP PUSH2 0x31C4 PUSH1 0x80 DUP9 ADD PUSH2 0x3147 JUMP JUMPDEST SWAP2 POP PUSH2 0x31D2 PUSH1 0xA0 DUP9 ADD PUSH2 0x3157 JUMP JUMPDEST SWAP1 POP SWAP3 SWAP6 POP SWAP3 SWAP6 POP SWAP3 SWAP6 JUMP JUMPDEST PUSH0 PUSH1 0x20 DUP3 DUP5 SUB SLT ISZERO PUSH2 0x31EE JUMPI PUSH0 DUP1 REVERT JUMPDEST DUP2 CALLDATALOAD PUSH2 0x2CBA DUP2 PUSH2 0x3047 JUMP JUMPDEST PUSH0 DUP1 PUSH1 0x20 DUP4 DUP6 SUB SLT ISZERO PUSH2 0x320A JUMPI PUSH0 DUP1 REVERT JUMPDEST DUP3 CALLDATALOAD PUSH1 0x1 PUSH1 0x1 PUSH1 0x40 SHL SUB DUP1 DUP3 GT ISZERO PUSH2 0x3220 JUMPI PUSH0 DUP1 REVERT JUMPDEST DUP2 DUP6 ADD SWAP2 POP DUP6 PUSH1 0x1F DUP4 ADD SLT PUSH2 0x3233 JUMPI PUSH0 DUP1 REVERT JUMPDEST DUP2 CALLDATALOAD DUP2 DUP2 GT ISZERO PUSH2 0x3241 JUMPI PUSH0 DUP1 REVERT JUMPDEST DUP7 PUSH1 0x20 PUSH1 0xC0 DUP4 MUL DUP6 ADD ADD GT ISZERO PUSH2 0x3255 JUMPI PUSH0 DUP1 REVERT JUMPDEST PUSH1 0x20 SWAP3 SWAP1 SWAP3 ADD SWAP7 SWAP2 SWAP6 POP SWAP1 SWAP4 POP POP POP POP JUMP JUMPDEST PUSH0 DUP1 PUSH1 0x40 DUP4 DUP6 SUB SLT ISZERO PUSH2 0x3278 JUMPI PUSH0 DUP1 REVERT JUMPDEST PUSH2 0x3281 DUP4 PUSH2 0x2CD8 JUMP JUMPDEST SWAP2 POP PUSH1 0x20 DUP4 ADD CALLDATALOAD PUSH2 0x3291 DUP2 PUSH2 0x3047 JUMP JUMPDEST DUP1 SWAP2 POP POP SWAP3 POP SWAP3 SWAP1 POP JUMP JUMPDEST PUSH4 0x4E487B71 PUSH1 0xE0 SHL PUSH0 MSTORE PUSH1 0x32 PUSH1 0x4 MSTORE PUSH1 0x24 PUSH0 REVERT JUMPDEST PUSH4 0x4E487B71 PUSH1 0xE0 SHL PUSH0 MSTORE PUSH1 0x11 PUSH1 0x4 MSTORE PUSH1 0x24 PUSH0 REVERT JUMPDEST DUP1 DUP3 MUL DUP2 ISZERO DUP3 DUP3 DIV DUP5 EQ OR PUSH2 0x1AE2 JUMPI PUSH2 0x1AE2 PUSH2 0x32B0 JUMP JUMPDEST PUSH4 0x4E487B71 PUSH1 0xE0 SHL PUSH0 MSTORE PUSH1 0x12 PUSH1 0x4 MSTORE PUSH1 0x24 PUSH0 REVERT JUMPDEST PUSH0 DUP3 PUSH2 0x32FD JUMPI PUSH2 0x32FD PUSH2 0x32DB JUMP JUMPDEST POP DIV SWAP1 JUMP JUMPDEST PUSH1 0x1 PUSH1 0x1 PUSH1 0x80 SHL SUB DUP3 DUP2 AND DUP3 DUP3 AND SUB SWAP1 DUP1 DUP3 GT ISZERO PUSH2 0x3322 JUMPI PUSH2 0x3322 PUSH2 0x32B0 JUMP JUMPDEST POP SWAP3 SWAP2 POP POP JUMP JUMPDEST PUSH1 0x1 DUP2 DUP2 SHR SWAP1 DUP3 AND DUP1 PUSH2 0x333D JUMPI PUSH1 0x7F DUP3 AND SWAP2 POP JUMPDEST PUSH1 0x20 DUP3 LT DUP2 SUB PUSH2 0x1C70 JUMPI PUSH4 0x4E487B71 PUSH1 0xE0 SHL PUSH0 MSTORE PUSH1 0x22 PUSH1 0x4 MSTORE PUSH1 0x24 PUSH0 REVERT JUMPDEST PUSH1 0x1F DUP3 GT ISZERO PUSH2 0x33A4 JUMPI PUSH0 DUP2 DUP2 MSTORE PUSH1 0x20 DUP2 KECCAK256 PUSH1 0x1F DUP6 ADD PUSH1 0x5 SHR DUP2 ADD PUSH1 0x20 DUP7 LT ISZERO PUSH2 0x3381 JUMPI POP DUP1 JUMPDEST PUSH1 0x1F DUP6 ADD PUSH1 0x5 SHR DUP3 ADD SWAP2 POP JUMPDEST DUP2 DUP2 LT ISZERO PUSH2 0x33A0 JUMPI DUP3 DUP2 SSTORE PUSH1 0x1 ADD PUSH2 0x338D JUMP JUMPDEST POP POP POP JUMPDEST POP POP POP JUMP JUMPDEST DUP2 MLOAD PUSH1 0x1 PUSH1 0x1 PUSH1 0x40 SHL SUB DUP2 GT ISZERO PUSH2 0x33C2 JUMPI PUSH2 0x33C2 PUSH2 0x2F46 JUMP JUMPDEST PUSH2 0x33D6 DUP2 PUSH2 0x33D0 DUP5 SLOAD PUSH2 0x3329 JUMP JUMPDEST DUP5 PUSH2 0x335B JUMP JUMPDEST PUSH1 0x20 DUP1 PUSH1 0x1F DUP4 GT PUSH1 0x1 DUP2 EQ PUSH2 0x3409 JUMPI PUSH0 DUP5 ISZERO PUSH2 0x33F2 JUMPI POP DUP6 DUP4 ADD MLOAD JUMPDEST PUSH0 NOT PUSH1 0x3 DUP7 SWAP1 SHL SHR NOT AND PUSH1 0x1 DUP6 SWAP1 SHL OR DUP6 SSTORE PUSH2 0x33A0 JUMP JUMPDEST PUSH0 DUP6 DUP2 MSTORE PUSH1 0x20 DUP2 KECCAK256 PUSH1 0x1F NOT DUP7 AND SWAP2 JUMPDEST DUP3 DUP2 LT ISZERO PUSH2 0x3437 JUMPI DUP9 DUP7 ADD MLOAD DUP3 SSTORE SWAP5 DUP5 ADD SWAP5 PUSH1 0x1 SWAP1 SWAP2 ADD SWAP1 DUP5 ADD PUSH2 0x3418 JUMP JUMPDEST POP DUP6 DUP3 LT ISZERO PUSH2 0x3454 JUMPI DUP8 DUP6 ADD MLOAD PUSH0 NOT PUSH1 0x3 DUP9 SWAP1 SHL PUSH1 0xF8 AND SHR NOT AND DUP2 SSTORE JUMPDEST POP POP POP POP POP PUSH1 0x1 SWAP1 DUP2 SHL ADD SWAP1 SSTORE POP JUMP JUMPDEST PUSH1 0x1 PUSH1 0x1 PUSH1 0x80 SHL SUB DUP2 DUP2 AND DUP4 DUP3 AND ADD SWAP1 DUP1 DUP3 GT ISZERO PUSH2 0x3322 JUMPI PUSH2 0x3322 PUSH2 0x32B0 JUMP JUMPDEST PUSH0 PUSH1 0xFF DUP4 AND DUP1 PUSH2 0x3496 JUMPI PUSH2 0x3496 PUSH2 0x32DB JUMP JUMPDEST DUP1 PUSH1 0xFF DUP5 AND DIV SWAP2 POP POP SWAP3 SWAP2 POP POP JUMP JUMPDEST DUP2 DUP2 SUB DUP2 DUP2 GT ISZERO PUSH2 0x1AE2 JUMPI PUSH2 0x1AE2 PUSH2 0x32B0 JUMP JUMPDEST PUSH1 0x1 PUSH1 0x1 PUSH1 0x80 SHL SUB DUP2 DUP2 AND DUP4 DUP3 AND MUL DUP1 DUP3 AND SWAP2 SWAP1 DUP3 DUP2 EQ PUSH2 0x34DB JUMPI PUSH2 0x34DB PUSH2 0x32B0 JUMP JUMPDEST POP POP SWAP3 SWAP2 POP POP JUMP JUMPDEST PUSH0 PUSH1 0x1 PUSH1 0x1 PUSH1 0x80 SHL SUB DUP1 DUP5 AND DUP1 PUSH2 0x34FC JUMPI PUSH2 0x34FC PUSH2 0x32DB JUMP JUMPDEST SWAP3 AND SWAP2 SWAP1 SWAP2 DIV SWAP3 SWAP2 POP POP JUMP JUMPDEST PUSH0 PUSH1 0x1 DUP3 ADD PUSH2 0x3519 JUMPI PUSH2 0x3519 PUSH2 0x32B0 JUMP JUMPDEST POP PUSH1 0x1 ADD SWAP1 JUMP JUMPDEST PUSH0 DUP1 PUSH0 DUP1 PUSH1 0x80 DUP6 DUP8 SUB SLT ISZERO PUSH2 0x3533 JUMPI PUSH0 DUP1 REVERT JUMPDEST DUP5 MLOAD PUSH2 0x353E DUP2 PUSH2 0x3047 JUMP JUMPDEST PUSH1 0x20 DUP7 ADD MLOAD PUSH1 0x40 DUP8 ADD MLOAD SWAP2 SWAP6 POP SWAP4 POP PUSH2 0x3556 DUP2 PUSH2 0x2E55 JUMP JUMPDEST PUSH1 0x60 SWAP6 SWAP1 SWAP6 ADD MLOAD SWAP4 SWAP7 SWAP3 SWAP6 POP POP POP JUMP JUMPDEST PUSH0 PUSH1 0x1 PUSH1 0x1 PUSH1 0x40 SHL SUB DUP1 DUP4 AND DUP2 DUP2 SUB PUSH2 0x3581 JUMPI PUSH2 0x3581 PUSH2 0x32B0 JUMP JUMPDEST PUSH1 0x1 ADD SWAP4 SWAP3 POP POP POP JUMP JUMPDEST PUSH0 PUSH1 0x20 DUP3 DUP5 SUB SLT ISZERO PUSH2 0x359B JUMPI PUSH0 DUP1 REVERT JUMPDEST DUP2 CALLDATALOAD PUSH2 0x2CBA DUP2 PUSH2 0x2E55 JUMP JUMPDEST PUSH0 PUSH1 0x20 DUP3 DUP5 SUB SLT ISZERO PUSH2 0x35B6 JUMPI PUSH0 DUP1 REVERT JUMPDEST PUSH2 0x2CBA DUP3 PUSH2 0x3147 JUMP JUMPDEST PUSH0 PUSH1 0x20 DUP3 DUP5 SUB SLT ISZERO PUSH2 0x35CF JUMPI PUSH0 DUP1 REVERT JUMPDEST PUSH2 0x2CBA DUP3 PUSH2 0x3157 JUMP JUMPDEST PUSH0 PUSH1 0x20 DUP3 DUP5 SUB SLT ISZERO PUSH2 0x35E8 JUMPI PUSH0 DUP1 REVERT JUMPDEST DUP2 MLOAD PUSH2 0x2CBA DUP2 PUSH2 0x3047 JUMP INVALID LOG2 PUSH5 0x6970667358 0x22 SLT KECCAK256 DUP11 TIMESTAMP 0xB4 DUP5 CODESIZE 0xDB CALLER 0xC5 0xDE PUSH10 0x934555A2B9228EE8A2E0 PUSH15 0x83F3784D6720159A88234764736F6C PUSH4 0x43000815 STOP CALLER "
		},
		"gasEstimates": {
			"creation": {
				"codeDepositCost": "2773000",
				"executionCost": "infinite",
				"totalCost": "infinite"
			},
			"external": {
				"batchCreateGame((uint128,uint128,uint128,address,uint8,bool)[])": "infinite",
				"checkGameStatus(uint64)": "13487",
				"claimCreatorFees(uint64)": "infinite",
				"claimProtocolFees(uint64,address)": "infinite",
				"claimProtocolFeesMultiple(uint64[],address)": "infinite",
				"claimWinnings(uint64,bytes32[],uint128,bytes32)": "infinite",
				"createGame(uint128,uint128,uint128,address,uint8,bool)": "infinite",
				"endGame(uint64)": "infinite",
				"enterGame(uint64,bytes32,bytes32)": "infinite",
				"entries(uint256)": "2524",
				"games(uint256)": "15716",
				"getCreator(uint64)": "4846",
				"getCreatorBalance(uint64)": "4799",
				"getEntriesForGame(uint64)": "infinite",
				"getEntryFeeForGame(uint64)": "4840",
				"getGame(uint64)": "9187",
				"getGameExtended(uint64)": "29191",
				"getGamesLength()": "2336",
				"getIpfsCid(uint64,uint256)": "infinite",
				"getNumberOfPlayers(uint64)": "4741",
				"getProtocolFeeForGame(uint64)": "4778",
				"getTotalDepositsForGame(uint64)": "4846",
				"isGameEndable(uint64)": "4829",
				"isGameEnded(uint64)": "4815",
				"owner()": "2376",
				"renounceOwnership()": "infinite",
				"setMerkleRootForGame(bytes32,uint64)": "infinite",
				"sponsorGame(uint64)": "infinite",
				"transferOwnership(address)": "infinite",
				"unpackEntry(bytes)": "infinite",
				"verifyProof(bytes32[],bytes32,bytes32)": "infinite"
			}
		},
		"methodIdentifiers": {
			"batchCreateGame((uint128,uint128,uint128,address,uint8,bool)[])": "fae8a599",
			"checkGameStatus(uint64)": "aaf7ec6f",
			"claimCreatorFees(uint64)": "92132484",
			"claimProtocolFees(uint64,address)": "fdd658f9",
			"claimProtocolFeesMultiple(uint64[],address)": "c88d2719",
			"claimWinnings(uint64,bytes32[],uint128,bytes32)": "93cc6cff",
			"createGame(uint128,uint128,uint128,address,uint8,bool)": "e7734d12",
			"endGame(uint64)": "d462c2fb",
			"enterGame(uint64,bytes32,bytes32)": "7b2e4a2b",
			"entries(uint256)": "b30906d4",
			"games(uint256)": "117a5b90",
			"getCreator(uint64)": "5dd31c3d",
			"getCreatorBalance(uint64)": "16001523",
			"getEntriesForGame(uint64)": "a320bd5d",
			"getEntryFeeForGame(uint64)": "df9e608f",
			"getGame(uint64)": "49041903",
			"getGameExtended(uint64)": "46d0bf87",
			"getGamesLength()": "654f1ccb",
			"getIpfsCid(uint64,uint256)": "d03efb19",
			"getNumberOfPlayers(uint64)": "3207b9b8",
			"getProtocolFeeForGame(uint64)": "332775b5",
			"getTotalDepositsForGame(uint64)": "481116b9",
			"isGameEndable(uint64)": "2d82f702",
			"isGameEnded(uint64)": "f5de2a4f",
			"owner()": "8da5cb5b",
			"renounceOwnership()": "715018a6",
			"setMerkleRootForGame(bytes32,uint64)": "4b3700a5",
			"sponsorGame(uint64)": "8757c36c",
			"transferOwnership(address)": "f2fde38b",
			"unpackEntry(bytes)": "aac4fa1f",
			"verifyProof(bytes32[],bytes32,bytes32)": "4bc935d7"
		}
	},
	"abi": [
		{
			"inputs": [
				{
					"internalType": "address",
					"name": "initialOwner",
					"type": "address"
				}
			],
			"stateMutability": "nonpayable",
			"type": "constructor"
		},
		{
			"inputs": [],
			"name": "ClaimFailed",
			"type": "error"
		},
		{
			"inputs": [],
			"name": "ClaimTransferFailed",
			"type": "error"
		},
		{
			"inputs": [
				{
					"internalType": "uint128",
					"name": "amountRequested",
					"type": "uint128"
				},
				{
					"internalType": "uint128",
					"name": "amountAvailable",
					"type": "uint128"
				}
			],
			"name": "ContractBalanceTooLow",
			"type": "error"
		},
		{
			"inputs": [
				{
					"internalType": "address",
					"name": "creator",
					"type": "address"
				},
				{
					"internalType": "address",
					"name": "caller",
					"type": "address"
				},
				{
					"internalType": "address",
					"name": "txOrigin",
					"type": "address"
				}
			],
			"name": "CreatorCannotEnterGame",
			"type": "error"
		},
		{
			"inputs": [
				{
					"internalType": "uint256",
					"name": "amountSent",
					"type": "uint256"
				},
				{
					"internalType": "uint256",
					"name": "amountRequired",
					"type": "uint256"
				}
			],
			"name": "EntryFeeNotMet",
			"type": "error"
		},
		{
			"inputs": [],
			"name": "GameAlreadyEnded",
			"type": "error"
		},
		{
			"inputs": [
				{
					"internalType": "uint256",
					"name": "gameIndex",
					"type": "uint256"
				}
			],
			"name": "GameAlreadyEntered",
			"type": "error"
		},
		{
			"inputs": [
				{
					"internalType": "uint256",
					"name": "block",
					"type": "uint256"
				},
				{
					"internalType": "uint256",
					"name": "currentBlock",
					"type": "uint256"
				}
			],
			"name": "GameAlreadyStarted",
			"type": "error"
		},
		{
			"inputs": [],
			"name": "GameNotEnded",
			"type": "error"
		},
		{
			"inputs": [
				{
					"internalType": "uint256",
					"name": "currentBlock",
					"type": "uint256"
				},
				{
					"internalType": "uint256",
					"name": "gameEndBlock",
					"type": "uint256"
				}
			],
			"name": "GameNotFinished",
			"type": "error"
		},
		{
			"inputs": [],
			"name": "GameNotStarted",
			"type": "error"
		},
		{
			"inputs": [
				{
					"internalType": "address",
					"name": "msgSender",
					"type": "address"
				},
				{
					"internalType": "address",
					"name": "txOrigin",
					"type": "address"
				},
				{
					"internalType": "address",
					"name": "owner",
					"type": "address"
				}
			],
			"name": "InvalidCaller",
			"type": "error"
		},
		{
			"inputs": [],
			"name": "InvalidCreator",
			"type": "error"
		},
		{
			"inputs": [],
			"name": "InvalidEndBlock",
			"type": "error"
		},
		{
			"inputs": [],
			"name": "InvalidFeeAmount",
			"type": "error"
		},
		{
			"inputs": [
				{
					"internalType": "uint64",
					"name": "index",
					"type": "uint64"
				},
				{
					"internalType": "uint256",
					"name": "length",
					"type": "uint256"
				}
			],
			"name": "InvalidGameIndex",
			"type": "error"
		},
		{
			"inputs": [],
			"name": "InvalidIndicesLength",
			"type": "error"
		},
		{
			"inputs": [],
			"name": "InvalidSender",
			"type": "error"
		},
		{
			"inputs": [],
			"name": "InvalidStartBlock",
			"type": "error"
		},
		{
			"inputs": [
				{
					"internalType": "address",
					"name": "sender",
					"type": "address"
				},
				{
					"internalType": "uint128",
					"name": "amount",
					"type": "uint128"
				},
				{
					"internalType": "bytes32",
					"name": "leaf",
					"type": "bytes32"
				}
			],
			"name": "LeafContextMismatch",
			"type": "error"
		},
		{
			"inputs": [],
			"name": "MerkleRootPreviouslySet",
			"type": "error"
		},
		{
			"inputs": [],
			"name": "NoAttachedEth",
			"type": "error"
		},
		{
			"inputs": [],
			"name": "NoDepositFound",
			"type": "error"
		},
		{
			"inputs": [],
			"name": "NonProtocolClaim",
			"type": "error"
		},
		{
			"inputs": [
				{
					"internalType": "address",
					"name": "owner",
					"type": "address"
				}
			],
			"name": "OwnableInvalidOwner",
			"type": "error"
		},
		{
			"inputs": [
				{
					"internalType": "address",
					"name": "account",
					"type": "address"
				}
			],
			"name": "OwnableUnauthorizedAccount",
			"type": "error"
		},
		{
			"inputs": [],
			"name": "ProofVerificationFailed",
			"type": "error"
		},
		{
			"inputs": [
				{
					"internalType": "bool",
					"name": "success",
					"type": "bool"
				},
				{
					"internalType": "uint128",
					"name": "amountClaimed",
					"type": "uint128"
				},
				{
					"internalType": "uint256",
					"name": "targetBalance",
					"type": "uint256"
				}
			],
			"name": "ProtocolFeeClaimFailed",
			"type": "error"
		},
		{
			"inputs": [],
			"name": "ReentrancyGuardReentrantCall",
			"type": "error"
		},
		{
			"inputs": [],
			"name": "UnableToClaimCreatorFees",
			"type": "error"
		},
		{
			"inputs": [
				{
					"internalType": "string",
					"name": "reason",
					"type": "string"
				}
			],
			"name": "ZeroAddressTransfer",
			"type": "error"
		},
		{
			"anonymous": false,
			"inputs": [
				{
					"indexed": true,
					"internalType": "uint64",
					"name": "gameIndex",
					"type": "uint64"
				},
				{
					"indexed": true,
					"internalType": "address",
					"name": "creator",
					"type": "address"
				},
				{
					"indexed": true,
					"internalType": "uint128",
					"name": "amountWithdrawn",
					"type": "uint128"
				}
			],
			"name": "CreatorFeeClaimed",
			"type": "event"
		},
		{
			"anonymous": false,
			"inputs": [
				{
					"indexed": true,
					"internalType": "address",
					"name": "creator",
					"type": "address"
				},
				{
					"indexed": true,
					"internalType": "uint128",
					"name": "fee",
					"type": "uint128"
				}
			],
			"name": "CreatorFeeTaken",
			"type": "event"
		},
		{
			"anonymous": false,
			"inputs": [
				{
					"indexed": true,
					"internalType": "uint128",
					"name": "previousFee",
					"type": "uint128"
				},
				{
					"indexed": true,
					"internalType": "uint128",
					"name": "newFee",
					"type": "uint128"
				},
				{
					"indexed": false,
					"internalType": "uint128",
					"name": "game",
					"type": "uint128"
				}
			],
			"name": "EntryFeeChanged",
			"type": "event"
		},
		{
			"anonymous": false,
			"inputs": [
				{
					"indexed": false,
					"internalType": "uint64",
					"name": "gameIndex",
					"type": "uint64"
				},
				{
					"indexed": false,
					"internalType": "uint8",
					"name": "fee",
					"type": "uint8"
				},
				{
					"indexed": false,
					"internalType": "uint128",
					"name": "entryFee",
					"type": "uint128"
				},
				{
					"indexed": false,
					"internalType": "uint256",
					"name": "createdBlock",
					"type": "uint256"
				},
				{
					"indexed": false,
					"internalType": "uint256",
					"name": "startBlock",
					"type": "uint256"
				},
				{
					"indexed": false,
					"internalType": "uint256",
					"name": "endBlock",
					"type": "uint256"
				},
				{
					"indexed": false,
					"internalType": "address",
					"name": "creator",
					"type": "address"
				},
				{
					"indexed": false,
					"internalType": "address",
					"name": "pool",
					"type": "address"
				}
			],
			"name": "GameCreated",
			"type": "event"
		},
		{
			"anonymous": false,
			"inputs": [
				{
					"indexed": true,
					"internalType": "address",
					"name": "msgSender",
					"type": "address"
				},
				{
					"indexed": true,
					"internalType": "uint128",
					"name": "packedEntryIndex",
					"type": "uint128"
				}
			],
			"name": "GameEntered",
			"type": "event"
		},
		{
			"anonymous": false,
			"inputs": [
				{
					"indexed": true,
					"internalType": "bytes32",
					"name": "gameRoot",
					"type": "bytes32"
				},
				{
					"indexed": true,
					"internalType": "uint256",
					"name": "gameIndex",
					"type": "uint256"
				}
			],
			"name": "GamePayoutClaimInitialized",
			"type": "event"
		},
		{
			"anonymous": false,
			"inputs": [
				{
					"indexed": true,
					"internalType": "address",
					"name": "previousOwner",
					"type": "address"
				},
				{
					"indexed": true,
					"internalType": "address",
					"name": "newOwner",
					"type": "address"
				}
			],
			"name": "OwnershipTransferred",
			"type": "event"
		},
		{
			"anonymous": false,
			"inputs": [
				{
					"indexed": true,
					"internalType": "address",
					"name": "msgSender",
					"type": "address"
				},
				{
					"indexed": false,
					"internalType": "bytes32",
					"name": "predictedPricesHash",
					"type": "bytes32"
				}
			],
			"name": "Prediction",
			"type": "event"
		},
		{
			"anonymous": false,
			"inputs": [
				{
					"indexed": true,
					"internalType": "uint128",
					"name": "fee",
					"type": "uint128"
				}
			],
			"name": "ProtocolFeeTaken",
			"type": "event"
		},
		{
			"anonymous": false,
			"inputs": [
				{
					"indexed": true,
					"internalType": "address",
					"name": "sponsor",
					"type": "address"
				},
				{
					"indexed": true,
					"internalType": "uint128",
					"name": "amountDeposited",
					"type": "uint128"
				},
				{
					"indexed": true,
					"internalType": "uint128",
					"name": "totalDeposits",
					"type": "uint128"
				}
			],
			"name": "Sponsorship",
			"type": "event"
		},
		{
			"anonymous": false,
			"inputs": [
				{
					"indexed": true,
					"internalType": "address",
					"name": "winner",
					"type": "address"
				},
				{
					"indexed": true,
					"internalType": "uint128",
					"name": "amountWon",
					"type": "uint128"
				}
			],
			"name": "WinnerPayout",
			"type": "event"
		},
		{
			"inputs": [
				{
					"components": [
						{
							"internalType": "uint128",
							"name": "startBlock",
							"type": "uint128"
						},
						{
							"internalType": "uint128",
							"name": "endBlock",
							"type": "uint128"
						},
						{
							"internalType": "uint128",
							"name": "entryFee",
							"type": "uint128"
						},
						{
							"internalType": "address",
							"name": "pool",
							"type": "address"
						},
						{
							"internalType": "uint8",
							"name": "fee",
							"type": "uint8"
						},
						{
							"internalType": "bool",
							"name": "split",
							"type": "bool"
						}
					],
					"internalType": "struct DtcGameManager.BatchCreateGameArgs[]",
					"name": "games",
					"type": "tuple[]"
				}
			],
			"name": "batchCreateGame",
			"outputs": [
				{
					"internalType": "bool",
					"name": "success",
					"type": "bool"
				},
				{
					"internalType": "uint64",
					"name": "gamesCreated",
					"type": "uint64"
				}
			],
			"stateMutability": "nonpayable",
			"type": "function"
		},
		{
			"inputs": [
				{
					"internalType": "uint64",
					"name": "gameIndex",
					"type": "uint64"
				}
			],
			"name": "checkGameStatus",
			"outputs": [
				{
					"internalType": "uint8",
					"name": "enabled",
					"type": "uint8"
				},
				{
					"internalType": "uint256",
					"name": "participants",
					"type": "uint256"
				},
				{
					"internalType": "uint128",
					"name": "totalDeposits",
					"type": "uint128"
				},
				{
					"internalType": "uint256",
					"name": "startBlock",
					"type": "uint256"
				},
				{
					"internalType": "uint256",
					"name": "endBlock",
					"type": "uint256"
				}
			],
			"stateMutability": "view",
			"type": "function"
		},
		{
			"inputs": [
				{
					"internalType": "uint64",
					"name": "gameIndex",
					"type": "uint64"
				}
			],
			"name": "claimCreatorFees",
			"outputs": [
				{
					"internalType": "bool",
					"name": "success",
					"type": "bool"
				},
				{
					"internalType": "uint128",
					"name": "amount",
					"type": "uint128"
				}
			],
			"stateMutability": "nonpayable",
			"type": "function"
		},
		{
			"inputs": [
				{
					"internalType": "uint64",
					"name": "gameIndex",
					"type": "uint64"
				},
				{
					"internalType": "address",
					"name": "target",
					"type": "address"
				}
			],
			"name": "claimProtocolFees",
			"outputs": [
				{
					"internalType": "bool",
					"name": "success",
					"type": "bool"
				},
				{
					"internalType": "uint128",
					"name": "amountClaimed",
					"type": "uint128"
				}
			],
			"stateMutability": "nonpayable",
			"type": "function"
		},
		{
			"inputs": [
				{
					"internalType": "uint64[]",
					"name": "indicies",
					"type": "uint64[]"
				},
				{
					"internalType": "address",
					"name": "target",
					"type": "address"
				}
			],
			"name": "claimProtocolFeesMultiple",
			"outputs": [
				{
					"internalType": "bool",
					"name": "success",
					"type": "bool"
				},
				{
					"internalType": "uint128",
					"name": "amountClaimed",
					"type": "uint128"
				}
			],
			"stateMutability": "nonpayable",
			"type": "function"
		},
		{
			"inputs": [
				{
					"internalType": "uint64",
					"name": "gameIndex",
					"type": "uint64"
				},
				{
					"internalType": "bytes32[]",
					"name": "proof",
					"type": "bytes32[]"
				},
				{
					"internalType": "uint128",
					"name": "amount",
					"type": "uint128"
				},
				{
					"internalType": "bytes32",
					"name": "leaf",
					"type": "bytes32"
				}
			],
			"name": "claimWinnings",
			"outputs": [
				{
					"internalType": "bool",
					"name": "success",
					"type": "bool"
				},
				{
					"internalType": "uint128",
					"name": "claimedAmount",
					"type": "uint128"
				}
			],
			"stateMutability": "nonpayable",
			"type": "function"
		},
		{
			"inputs": [
				{
					"internalType": "uint128",
					"name": "startBlock",
					"type": "uint128"
				},
				{
					"internalType": "uint128",
					"name": "endBlock",
					"type": "uint128"
				},
				{
					"internalType": "uint128",
					"name": "entryFee",
					"type": "uint128"
				},
				{
					"internalType": "address",
					"name": "pool",
					"type": "address"
				},
				{
					"internalType": "uint8",
					"name": "fee",
					"type": "uint8"
				},
				{
					"internalType": "bool",
					"name": "split",
					"type": "bool"
				}
			],
			"name": "createGame",
			"outputs": [
				{
					"internalType": "uint64",
					"name": "game",
					"type": "uint64"
				}
			],
			"stateMutability": "nonpayable",
			"type": "function"
		},
		{
			"inputs": [
				{
					"internalType": "uint64",
					"name": "gameIndex",
					"type": "uint64"
				}
			],
			"name": "endGame",
			"outputs": [
				{
					"internalType": "bool",
					"name": "success",
					"type": "bool"
				}
			],
			"stateMutability": "nonpayable",
			"type": "function"
		},
		{
			"inputs": [
				{
					"internalType": "uint64",
					"name": "gameIndex",
					"type": "uint64"
				},
				{
					"internalType": "bytes32",
					"name": "predictedPricesHash",
					"type": "bytes32"
				},
				{
					"internalType": "bytes32",
					"name": "ipfsCid",
					"type": "bytes32"
				}
			],
			"name": "enterGame",
			"outputs": [
				{
					"internalType": "uint64",
					"name": "game",
					"type": "uint64"
				},
				{
					"internalType": "bytes",
					"name": "packedEntry",
					"type": "bytes"
				},
				{
					"internalType": "uint256",
					"name": "entriesIndex",
					"type": "uint256"
				}
			],
			"stateMutability": "payable",
			"type": "function"
		},
		{
			"inputs": [
				{
					"internalType": "uint256",
					"name": "",
					"type": "uint256"
				}
			],
			"name": "entries",
			"outputs": [
				{
					"internalType": "uint256",
					"name": "",
					"type": "uint256"
				}
			],
			"stateMutability": "view",
			"type": "function"
		},
		{
			"inputs": [
				{
					"internalType": "uint256",
					"name": "",
					"type": "uint256"
				}
			],
			"name": "games",
			"outputs": [
				{
					"internalType": "uint128",
					"name": "startBlock",
					"type": "uint128"
				},
				{
					"internalType": "uint128",
					"name": "endBlock",
					"type": "uint128"
				},
				{
					"internalType": "uint128",
					"name": "protocolBalance",
					"type": "uint128"
				},
				{
					"internalType": "uint128",
					"name": "creatorBalance",
					"type": "uint128"
				},
				{
					"internalType": "uint128",
					"name": "totalDeposits",
					"type": "uint128"
				},
				{
					"internalType": "uint128",
					"name": "entryFee",
					"type": "uint128"
				},
				{
					"internalType": "uint8",
					"name": "fee",
					"type": "uint8"
				},
				{
					"internalType": "uint8",
					"name": "gameEnded",
					"type": "uint8"
				},
				{
					"internalType": "address",
					"name": "pool",
					"type": "address"
				},
				{
					"internalType": "address",
					"name": "creator",
					"type": "address"
				},
				{
					"internalType": "bool",
					"name": "protocolFeeSplit",
					"type": "bool"
				},
				{
					"internalType": "bytes32",
					"name": "claimMerkleRoot",
					"type": "bytes32"
				}
			],
			"stateMutability": "view",
			"type": "function"
		},
		{
			"inputs": [
				{
					"internalType": "uint64",
					"name": "index",
					"type": "uint64"
				}
			],
			"name": "getCreator",
			"outputs": [
				{
					"internalType": "address",
					"name": "creator",
					"type": "address"
				}
			],
			"stateMutability": "view",
			"type": "function"
		},
		{
			"inputs": [
				{
					"internalType": "uint64",
					"name": "index",
					"type": "uint64"
				}
			],
			"name": "getCreatorBalance",
			"outputs": [
				{
					"internalType": "uint256",
					"name": "balance",
					"type": "uint256"
				}
			],
			"stateMutability": "view",
			"type": "function"
		},
		{
			"inputs": [
				{
					"internalType": "uint64",
					"name": "gameIndex",
					"type": "uint64"
				}
			],
			"name": "getEntriesForGame",
			"outputs": [
				{
					"components": [
						{
							"internalType": "uint128",
							"name": "depositAmount",
							"type": "uint128"
						},
						{
							"internalType": "bytes32",
							"name": "predictedPrice",
							"type": "bytes32"
						},
						{
							"internalType": "address",
							"name": "entrant",
							"type": "address"
						},
						{
							"internalType": "bytes32",
							"name": "ipfsCid",
							"type": "bytes32"
						}
					],
					"internalType": "struct DtcGameManager.Entry[]",
					"name": "",
					"type": "tuple[]"
				}
			],
			"stateMutability": "view",
			"type": "function"
		},
		{
			"inputs": [
				{
					"internalType": "uint64",
					"name": "gameIndex",
					"type": "uint64"
				}
			],
			"name": "getEntryFeeForGame",
			"outputs": [
				{
					"internalType": "uint128",
					"name": "",
					"type": "uint128"
				}
			],
			"stateMutability": "view",
			"type": "function"
		},
		{
			"inputs": [
				{
					"internalType": "uint64",
					"name": "index",
					"type": "uint64"
				}
			],
			"name": "getGame",
			"outputs": [
				{
					"internalType": "uint128",
					"name": "",
					"type": "uint128"
				},
				{
					"internalType": "uint256",
					"name": "",
					"type": "uint256"
				},
				{
					"internalType": "uint8",
					"name": "",
					"type": "uint8"
				},
				{
					"internalType": "uint128",
					"name": "",
					"type": "uint128"
				}
			],
			"stateMutability": "view",
			"type": "function"
		},
		{
			"inputs": [
				{
					"internalType": "uint64",
					"name": "index",
					"type": "uint64"
				}
			],
			"name": "getGameExtended",
			"outputs": [
				{
					"internalType": "uint128",
					"name": "",
					"type": "uint128"
				},
				{
					"internalType": "uint128",
					"name": "",
					"type": "uint128"
				},
				{
					"internalType": "uint128",
					"name": "",
					"type": "uint128"
				},
				{
					"internalType": "uint128",
					"name": "",
					"type": "uint128"
				},
				{
					"internalType": "uint128",
					"name": "",
					"type": "uint128"
				},
				{
					"internalType": "uint128",
					"name": "",
					"type": "uint128"
				},
				{
					"internalType": "uint8",
					"name": "",
					"type": "uint8"
				},
				{
					"internalType": "uint8",
					"name": "",
					"type": "uint8"
				},
				{
					"internalType": "address",
					"name": "",
					"type": "address"
				},
				{
					"internalType": "address",
					"name": "",
					"type": "address"
				},
				{
					"internalType": "bool",
					"name": "",
					"type": "bool"
				},
				{
					"internalType": "bytes32",
					"name": "",
					"type": "bytes32"
				}
			],
			"stateMutability": "view",
			"type": "function"
		},
		{
			"inputs": [],
			"name": "getGamesLength",
			"outputs": [
				{
					"internalType": "uint256",
					"name": "",
					"type": "uint256"
				}
			],
			"stateMutability": "view",
			"type": "function"
		},
		{
			"inputs": [
				{
					"internalType": "uint64",
					"name": "gameIndex",
					"type": "uint64"
				},
				{
					"internalType": "uint256",
					"name": "entryIndex",
					"type": "uint256"
				}
			],
			"name": "getIpfsCid",
			"outputs": [
				{
					"internalType": "bytes32",
					"name": "ipfsCid",
					"type": "bytes32"
				}
			],
			"stateMutability": "view",
			"type": "function"
		},
		{
			"inputs": [
				{
					"internalType": "uint64",
					"name": "gameIndex",
					"type": "uint64"
				}
			],
			"name": "getNumberOfPlayers",
			"outputs": [
				{
					"internalType": "uint256",
					"name": "players",
					"type": "uint256"
				}
			],
			"stateMutability": "view",
			"type": "function"
		},
		{
			"inputs": [
				{
					"internalType": "uint64",
					"name": "gameIndex",
					"type": "uint64"
				}
			],
			"name": "getProtocolFeeForGame",
			"outputs": [
				{
					"internalType": "uint8",
					"name": "",
					"type": "uint8"
				}
			],
			"stateMutability": "view",
			"type": "function"
		},
		{
			"inputs": [
				{
					"internalType": "uint64",
					"name": "gameIndex",
					"type": "uint64"
				}
			],
			"name": "getTotalDepositsForGame",
			"outputs": [
				{
					"internalType": "uint128",
					"name": "",
					"type": "uint128"
				}
			],
			"stateMutability": "view",
			"type": "function"
		},
		{
			"inputs": [
				{
					"internalType": "uint64",
					"name": "gameIndex",
					"type": "uint64"
				}
			],
			"name": "isGameEndable",
			"outputs": [
				{
					"internalType": "bool",
					"name": "",
					"type": "bool"
				}
			],
			"stateMutability": "view",
			"type": "function"
		},
		{
			"inputs": [
				{
					"internalType": "uint64",
					"name": "gameIndex",
					"type": "uint64"
				}
			],
			"name": "isGameEnded",
			"outputs": [
				{
					"internalType": "bool",
					"name": "ended",
					"type": "bool"
				}
			],
			"stateMutability": "view",
			"type": "function"
		},
		{
			"inputs": [],
			"name": "owner",
			"outputs": [
				{
					"internalType": "address",
					"name": "",
					"type": "address"
				}
			],
			"stateMutability": "view",
			"type": "function"
		},
		{
			"inputs": [],
			"name": "renounceOwnership",
			"outputs": [],
			"stateMutability": "nonpayable",
			"type": "function"
		},
		{
			"inputs": [
				{
					"internalType": "bytes32",
					"name": "merkleRoot",
					"type": "bytes32"
				},
				{
					"internalType": "uint64",
					"name": "gameIndex",
					"type": "uint64"
				}
			],
			"name": "setMerkleRootForGame",
			"outputs": [],
			"stateMutability": "nonpayable",
			"type": "function"
		},
		{
			"inputs": [
				{
					"internalType": "uint64",
					"name": "gameIndex",
					"type": "uint64"
				}
			],
			"name": "sponsorGame",
			"outputs": [
				{
					"internalType": "bool",
					"name": "success",
					"type": "bool"
				}
			],
			"stateMutability": "payable",
			"type": "function"
		},
		{
			"inputs": [
				{
					"internalType": "address",
					"name": "newOwner",
					"type": "address"
				}
			],
			"name": "transferOwnership",
			"outputs": [],
			"stateMutability": "nonpayable",
			"type": "function"
		},
		{
			"inputs": [
				{
					"internalType": "bytes",
					"name": "_packed",
					"type": "bytes"
				}
			],
			"name": "unpackEntry",
			"outputs": [
				{
					"internalType": "address",
					"name": "entrant",
					"type": "address"
				},
				{
					"internalType": "bytes32",
					"name": "predictedPricesHash",
					"type": "bytes32"
				},
				{
					"internalType": "uint128",
					"name": "depositAmount",
					"type": "uint128"
				},
				{
					"internalType": "bytes32",
					"name": "ipfsCid",
					"type": "bytes32"
				}
			],
			"stateMutability": "pure",
			"type": "function"
		},
		{
			"inputs": [
				{
					"internalType": "bytes32[]",
					"name": "proof",
					"type": "bytes32[]"
				},
				{
					"internalType": "bytes32",
					"name": "merkleRoot",
					"type": "bytes32"
				},
				{
					"internalType": "bytes32",
					"name": "leaf",
					"type": "bytes32"
				}
			],
			"name": "verifyProof",
			"outputs": [
				{
					"internalType": "bool",
					"name": "",
					"type": "bool"
				}
			],
			"stateMutability": "pure",
			"type": "function"
		}
	]
}